S01F000064656D6F456C656374726F6E69634E6F736553475034302E7372656375
S3150000000020040020852C0000192B00008F2C0000F6
S315000000108F2C00008F2C00008F2C00008F2C0000EE
S315000000200000000000000000000000008F2C00000F
S315000000308F2C0000000000008F2C00008F2C000089
S31500000040752300000125000019260000FD2600008A
S31500000050E11B0000111B0000691C0000B51C00001C
S315000000607F120000811300002314000035150000E4
S30D00000070DD2E00004000350002
S3150000007840B10079022805D140F23C40C2F20000A6
S31500000088012101607047D4D4D6B042F66071C0F23F
S31500000098000107C91268904708B100BFFEE742F69B
S315000000A88F60C0F2000000F0D7F942F66660C0F231
S315000000B8000000F0D1F90DF10409484601F083F873
S315000000C842F6B263804600205327012226ACC0F2CE
S315000000D8000300218DF89800BE298FBFBF21675401
S315000000E8013160549F5C0132102AF5D1B8F1FF3F07
S315000000F801DD424607E0C8F10002BE298FBFBF21D5
S315000001082D2060520131204600F0C4F942F6A06164
S31500000118074600202023C0F200010022BE2F8FBF11
S31500000128BF27E3550137E0558B1801325B78082A5B
S31500000138F4D101F02AF842F6556ABE2FC0F2000A39
S3150000014808D801091AF80120E119E2550022BE2F44
S315000001584A7001D1BF2706E000F00F001AF8000028
S3150000016802374870E25542F6A96220230120002191
S31500000178C0F20002BE2F8FBFBF27E3550137E155F6
S31500000188135C01300628F5D100F0F9FF70B102784A
S3150000019862B10130002100BFBE2F8FBFBF27E255D5
S315000001A80137E15510F8012B002AF5D142F6856290
S315000001B80D2301200021C0F2000200BFBE2F8FBF11
S315000001C8BF27E3550137E155135C01300A28F5D1FD
S315000001D8802000212D2300BFBE2F0BD819F8002040
S315000001E8BE2F4FEA12161AF8065004EB0706E55515
S315000001F8717001D1BF2206E002F00F021AF8025010
S31500000208BA1C7570A154852806D0BE2A9ABF571CF9
S31500000218A352BF270130DFE742F6AF6700200D2360
S31500000228C0F20007002100BFBE2A8FBFBF22A35419
S315000002380132A0547B1801315B780229F4D126AC2F
S31500000248204600F009F9B8F1000F06D042F6F16031
S31500000258C0F2000000F000F9FEE742F6E96742F650
S31500000268C26942F6CD6A42F6057B42F6446542F615
S31500000278D3680026C0F20007C0F20009C0F2000ADF
S31500000288C0F2000BC0F20005C0F2000801A800F099
S31500000298BEFF00907322012000218DF8986000BFF0
S315000002A8BE298FBFBF216254013166543A5C0130C2
S315000002B80828F5D1249A204600F0ECF842F64E6359
S315000002C8014620220120C0F2000300BFBE298FBFCD
S315000002D8BF216254013166541A5C01300728F5D1F2
S315000002E8BDF88A20204600F0D5F842F6E3630146B9
S315000002F820220120C0F20003BE298FBFBF2162540D
S31500000308013166541A5C01300628F5D1239AB2F1F8
S31500000318FF3F06DC5242BE298FBFBF212D20605207
S315000003280131204600F0B6F807462021012000BF1B
S31500000338BE2F8FBFBF27E1550137E65519F80010C4
S3150000034801300B28F4D101A800F085FF02462046AB
S31500000358394600F09FF842F6AF6701462022012091
S31500000368C0F20007BE298FBFBF216254013166540F
S315000003781AF8002001300628F4D1009AB2F1FF3F9E
S3150000038806DC5242BE298FBFBF212D2060520131A3
S31500000398204600F07FF8014600202022BE298FBFA4
S315000003A8BF216254013166540BEB000201305278CA
S315000003B80428F3D140F24440C2F200000268204605
S315000003C800F068F801462022012000BFBE298FBF31
S315000003D8BF216254013166542A5C01300A28F5D1DE
S315000003E840F24840C2F200000268204600F052F887
S315000003F801462022012000BFBE298FBFBF216254BB
S315000004080131665418F8002001300A28F4D140F268
S315000004184C40C2F200000268204600F03BF800217A
S315000004280D2200BFBE288FBFBF202254013026549C
S315000004387A18013152780229F4D1204600F00CF8D6
S315000004484FF47A704FF47A7102F01CFB42F6E967B2
S31500000458C0F200071AE7D4D4D8B110B5044602F0A2
S31500000468C7FCA0B1024642F66070C0F2000081687F
S3150000047800688B682146984748B940F23C40C2F26A
S31500000488000000BF01680029FCD000210160BDE81A
S3150000049810407047B0B583B08E4682B34CF6CD4453
S315000004A80021CCF6CC440DF1020C00BFA2FB0435AA
S315000004B8ED0805EB8503A2EB430343F030030CF884
S315000004C801300A2A01F1010303D3092919462A46EC
S315000004D8ECD3ACF101024FF0000C00BFBEF1BE0F29
S315000004E808D8D15C00F80E100EF1010E00F80EC007
S315000004F802E000BF4FF0BF0E013BEFD10AE0BEF1AC
S31500000508BE0F05D8302120F80E100EF1010E01E0BD
S315000005184FF0BF0E704603B0B0BD022818BF704733
S3150000052840F2544043F22801C2F20000C0F2000132
S3150000053801F0F6BB40F24441C2F200010A6802F13A
S3150000054801020A60D0B1007902282ED0032843D1CF
S3150000055840F24040C2F200000121017040F24140E1
S31500000568C2F200000022027040F24240C2F20000CD
S31500000578027040F24340C2F2000043E040F24340BA
S31500000588C2F200000321017040F24240C2F20000AC
S315000005980121017040F24040C2F2000000210170C2
S315000005A840F24140C2F200002CE040F24040C2F264
S315000005B800000021017040F24140C2F20000012211
S315000005C8027040F24240C2F20000017040F243401D
S315000005D8C2F20000022115E040F24040C2F20000DB
S315000005E80021017040F24140C2F20000017040F261
S315000005F84240C2F200000121017040F24340C2F2BB
S31500000608000003210170704710B540F25044C2F251
S315000006180004207800284FF0000020D140F2404125
S31500000628C2F20001087040F24141C2F200010870AE
S3150000063840F24241C2F20001087040F24341C2F260
S315000006480001087042F69C71C0F2000107C91268E1
S315000006589047002818BF10BD01202070002010BD4B
S31500000668F0B581B040F24C40C2F20000016840F299
S31500000678504601310160C2F2000642F69C7031789C
S31500000688C0F20000876891B1D0E90045F9682046B4
S315000006988847F969204688470020307001204FF4C2
S315000006A87A7102F0EFF93A682046294602E03A687C
S315000006B8D0E90001904710B901203070002001B040
S315000006C8F0BD40F25041C2F20001097801291CBF71
S315000006D807207047014642F69C70C0F20000826807
S315000006E8006813690122184770B5B0B140F2424656
S315000006F840F240450446C2F20006C2F2000500BFB9
S315000007083078012814D02878012815D001204FF414
S315000007187A7102F0B7F9013CF2D140F24840C2F2D0
S315000007280000016801310160FFF79AFF142070BDCF
S31500000738FFF796FF122070BD0020287070BDD4D434
S3150000074870B5B0B140F2424640F241450446C2F2A5
S315000007580006C2F2000500BF3078012814D02878B8
S31500000768012815D001204FF47A7102F08BF9013C6B
S31500000778F2D140F24840C2F200000168013101603E
S31500000788FFF76EFF142070BDFFF76AFF122070BDD9
S315000007980020287070BD944640F25042C2F2000212
S315000007A81378012B08D10A46014600284FF00100AC
S315000007B818BF002A02D170470720704780B540F25B
S315000007C84040C2F200000023037040F24140C2F2EA
S315000007D80000037040F24240C2F20000037040F28B
S315000007E84340C2F20000037042F69C70C0F200005B
S315000007F883680068D3F808E06346F0470028BDE838
S315000008088040D8D16420FFF76FBF944640F250422B
S31500000818C2F200021378012B08D10A4601460028C5
S315000008284FF0010018BF002A02D170470720704711
S3150000083880B540F24040C2F200000023037040F247
S315000008484140C2F20000037040F24240C2F200008A
S31500000858037040F24340C2F20000037042F69C70F7
S31500000868C0F2000083680068D3F804E06346F047E6
S315000008780028BDE88040D8D16420FFF761BFD4D4F2
S315000008882DE9F04749BA01808BB300F1010C4FF00E
S31500000898020E4FF00008312402EB4801497800EBBC
S315000008A80E0900F80E1012F81810FF264FF0000A6D
S315000008B80CF80E1019F80A104E40082135466FB28A
S315000008C87600002FA1F1010148BF84EA45060D060E
S315000008D8F4D10AF1010ABAF1020FEBD108F10108C5
S315000008E80EF1030E984589F80260D5D101E04FF064
S315000008F8020E1FFA8EF0BDE8F087D4D42DE9F04732
S3150000090890B08A4602EB42011FFA81F9E84617467B
S3150000091841464A4600F078F898BB77B34FF0000E88
S315000009283121002208EB0E0393F802C0FF260025AA
S315000009385C5D6640082400BF374678B2760000281A
S31500000948A4F1010448BF81EA47062006F4D101351F
S31500000958022DEDD1F0B2604511D118F80E0097B20C
S315000009680AF8070058780EF103031FFA83FE1AFAED
S3150000097882F60232CE457070D4D3002001E04FF6DD
S31500000988FF7000B210B0BDE8F087D4D470B5164633
S315000009980D46FFF7B3FF68B966B10021CAB235F84C
S315000009A812300131CCB21BBAA6424FEA134325F8DE
S315000009B81230F3D870BD80B582B049BAADF80610CA
S315000009C80DF10601022200F05BF802B080BDB0B559
S315000009D888B06D460446DBB22846FFF751FF02464B
S315000009E82046294600F04CF808B0B0BD10B540F2D4
S315000009F85144C2F20004207810B9FFF705FE00B191
S31500000A0810BD0120207010BD70B506464FF0FF00DE
S31500000A1891B1144682B142F69C70C0F200000D46B0
S31500000A28816800680B6931460122984718B9304633
S31500000A3800F00EF810B1FF2040B270BD28462146DE
S31500000A480022FFF7E2FE002818BF4FF0FF30F3E759
S31500000A58B0B540F25145C2F200052978044631B9CD
S31500000A68FFF7D2FD08B1FF2008E0012028702046D4
S31500000A78FFF727FE002818BF4FF0FF3040B2B0BD81
S31500000A8870B506464FF0FF0091B1144682B142F6A2
S31500000A989C70C0F200000D46816800680B693146FB
S31500000AA80122984718B93046FFF7D2FF10B1FF2048
S31500000AB840B270BD284621460022FFF76CFE00288A
S31500000AC818BF4FF0FF30F3E7B8B144F6D351C1F27F
S31500000AD86201A0FB011291094FF47A7301FB13001E
S31500000AE80123002818BF03EB9211012998BF194664
S31500000AF808464FF47A7101F0C5BF704780B54FF4C8
S31500000B08C80E4FF440224FF434034FF4481C00211A
S31500000B18C0E900E2C0E9023CC0E904118161BDE810
S31500000B28804000F000B8F0B581B0044640F28D4030
S31500000B38122100F009FA271D83CF0026E16100F192
S31500000B48120140F28D4004F13C05C4E91466A6651D
S31500000B5884F82060C4E90966E76200F0F5F940F612
S31500000B683141C0F2030104F1300340F28D6207C33C
S31500000B782846142102F027F9206804F1640340F698
S31500000B8831418322C4E9177607C384F8706001B03F
S31500000B98F0BD2DE9F04F85B00546006948F2000A18
S31500000BA89146B0F5341FCFF6FF7A04DC00F58030A5
S31500000BB8AE692861B8E1481E4FF6E752904212D254
S31500000BC84CF61F600022814238BF0846CBF2E0127D
S31500000BD802EB004B44F62160814238BF4FF4803B5C
S31500000BE8C5F814B001E0D5F814B0D5E917100022FD
S31500000BF8CFF62472ABEB0000511A00F0A5F94FF4BA
S31500000C08660100F0DFF90646A0F555014FF6566075
S31500000C18CFF6FF7000F0D6F90446AAF546108442CE
S31500000C2802DA4FF0FA7834E0B4F5481F02DD4FF0E7
S31500000C3800082EE0696E002E17D44FF4A02000F0AD
S31500000C48C1F9C0F1FA704FF4802100F07DF906462B
S31500000C5800F1FA77204600F03BFA00F58031384675
S31500000C6800F072F9A0EB060813E008464FF4C80135
S31500000C7800F06AF90646204600F02AFA00F58031A7
S31500000C884FF0FA7000F060F90146304600F09AF924
S31500000C98804695F8700010B1D5E91D1406E00120CC
S31500000CA844464146C5F87C8085F87000AF6EC7F5A6
S31500000CB8803000F087F906463846414600F082F94A
S31500000CC88719EE6E2146C6F580306F6700F07AF90F
S31500000CD804463046414600F075F92044391AA8679B
S31500000CE84CF6CD40CFF6FF7048BF494200F06AF98E
S31500000CF800F0EEF901464FF0F07000F063F900F5E8
S31500000D08A8114FF4803000F01FF9E96F0446C0F5CA
S31500000D18803000F057F906462046414600F052F961
S31500000D280644B6F5004FEE67D8BF4FF40046BBF150
S31500000D38010FAE61C0F2F88095F82000002800F097
S31500000D48E980D5E90921A2F5C80010F5480F9EBF2C
S31500000D5811440022C5E909216C6C0020C7F6FE7013
S31500000D688442BCBF04F580346C64AF6CCDE90321C2
S31500000D78874240F200004FF4803140F28F22C0F6DD
S31500000D888C20CDE901B9BCBF07F58037AF64C5E94A
S31500000D981412A8652846214600F07EF9D5E90C917B
S31500000DA88346A1EB0900594600F00CF900EB090847
S31500000DB82846394600F070F901464FF42A0000F03B
S31500000DC801F900F1AA7041F20A71C5E91510284621
S31500000DD8314600F061F94146824600F0F3F800908A
S31500000DE8E86300204FF48031C1F26440296540F27F
S31500000DF88F21C5E915102846214600F04DF9A96B43
S31500000E08A1EB0902A0EB0B01104600F0DBF800EBA2
S31500000E1809042846394600F03FF901464FF42A00EE
S31500000E2800F0D0F800F1AA7041F20A71C5E9151070
S31500000E382846314600F030F9214600F0C3F844F65A
S31500000E48CD4183462864EC6CCAF58030C0F20101B6
S31500000E5800F0B8F844F6CD41411A40F2444000F09B
S31500000E68B1F82044E96920EAE0708842E864C4BF22
S31500000E780020A864DDE9031008440199081A4FF414
S31500000E88800100F061F8D5F82C80DDF8089004465A
S31500000E98002800D5604240444FF48037B0F1B46F63
S31500000EA8C8BF4FF48027CBF58001384600F08AF892
S31500000EB800F0BAF882464FF48000394600F082F80E
S31500000EC80146404600F040F80146404600F07AF8F0
S31500000ED880465846214600F075F8394600F034F841
S31500000EE8214600F06FF8404400F09EF8014650464F
S31500000EF800F068F80746E8620098214600F062F8B4
S31500000F08039948F2000ADDF810B00844CFF6FF7AD4
S31500000F18686206E0012085F820000020EF6AC5E92E
S31500000F28090B5844C5E9177006F50040000CBAEBE2
S31500000F3806014FF00002C8BFA2EB1140C9F8000035
S31500000F4805B0BDE8F08FD4D459B310B5002886464D
S31500000F5801D5C0F1000E00290A4600D54A424FF4D1
S31500000F688033724508D200BFBEEB420F4FEA4202F9
S31500000F784FEA4303F8D813B3D40F22FA04FC98B106
S31500000F88E3400022BEEB0C0434BF74461A43022B1E
S31500000F984FEA440E09D3BEF1000F4FEA5303F1D1CD
S31500000FA803E04FF0004208E00022E64528BF013280
S31500000FB8484048BF5242BDE81040104670474FF0BF
S31500000FC80042F8E70028844601D5C0F1000C002944
S31500000FD80B4600D54B42B0B54FEA1C4E1A0C1FFA09
S31500000FE88CFC9BB202FB0EF502FB0CF203FB0E22F5
S31500000FF803FB0CF3140C13EB024344EB0502002528
S31500001008B5EBD23F0CD113F5004F28BF013203F5DB
S315000010180045120442EA1542484048BF524201E0E0
S315000010284FF000421046B0BD4FF080410B4681425A
S315000010384FEA9101FAD880B548F2000C00224FF029
S31500001048010ECFF6FF7C00BF63B100BF9918411AA5
S3150000105828BF084603EB520138BF51089B080A46C9
S31500001068F4D100E011465FEACE7210D0B0F5803FA9
S3150000107806D3401A09040CEB004001F5004201E0D2
S3150000108800040A044FF480434FF0000EDCE7884260
S3150000109888BF0131084680BD10B50446D0E915025F
S315000010A8891AFFF78FFF10F5481F01DA206D10BD6A
S315000010B8B0F5481FC4BF002010BD246D00F008F825
S315000010C800F580312046BDE81040FFF73DBFD4D477
S315000010D846F2AE51C0F20A018842C4BF6FF0004022
S315000010E8704743F26E71CFF6F4718842BCBF002098
S315000010F870472DE9F0410028054600D5454242F6DD
S315000011081C7842F60C71C0F2000800284FF48037AC
S315000011184FF000064FF48030C0F2000148BF884601
S31500001128BD4207D358F826402146FFF74BFFED1B73
S31500001138BD42F9D20136042E4FEAD70708BFBDE8EB
S31500001148F081EDE710B582B0044648F20000C6F219
S315000011586660019001AA592042F20F610223FFF747
S3150000116836FC50B948F2A060C0F20100FFF7ACFCAB
S31500001178592021460122FFF709FC02B010BD40F2B2
S315000011880000C2F20000006870475920704710B589
S315000011980446592043F28261FFF70DFC00B110BDE9
S315000011A84FF4FA70FFF790FC592021460322BDE858
S315000011B81040FFF7A3BB80B582B00DF10200FFF720
S315000011C8E6FF02B080BD50B110B59421044601F087
S315000011D8FAFDFFF70BFCFFF7EEFF28B110BD4FF63F
S315000011E81840CFF6FF70704704F18000FFF7CFFF75
S315000011F8002818BF10BD2046FFF780FC012084F8A0
S3150000120890000020A4F88600C4E9220010BDD0B1E1
S3150000121810B5044690F89000012819D104F186000B
S31500001228FFF790FF002818BF10BDB4F8861004F128
S3150000123888022046FFF7ADFCD4F88C000130C4F8CC
S315000012488C00002010BD4FF61840CFF6FF7070478F
S315000012586FF47A7010BD38B1D0F88C002E284FF094
S31500001268000038BF012070470120704780B5FEF79F
S315000012780BFF002080BDEFF303804FF0704101EBB8
S31500001288006046F200318015C4F20001425822F48B
S3150000129880324250415840F21051C2F200010858BB
S315000012A8D0E9061291421FD0026942B190F8203067
S315000012B8102B07D383685B6842F821300EE08268FA
S315000012C852680BE0D0F808C0072B03D89CF8043006
S315000012D8535403E0BCF8043022F81130C2690131D6
S315000012E89142816118BF70474068012290F9030056
S315000012F800F01F0102FA01F14EF200124009CEF287
S31500001308000242F82010704742684169537A43B98F
S31500001318126A32B1127B012A03D18268D278920608
S3150000132829D5C269531E994205D18268138A23F0CA
S3150000133880031382C269914208BF7047C26842B1EE
S3150000134890F82030102B08D352F8212083685A6071
S315000013580FE08268002353600BE0D0F808C0072B23
S3150000136803D8525C8CF8042003E032F81120ACF85C
S315000013780420013141617047EFF303804FF070425A
S3150000138846F2003102EB0060C4F2000180154258B3
S3150000139822F480324250425840F21052C2F2000201
S315000013A810584268136AB3B35B78012B33D1C3690B
S315000013B8D0F814C0013B9C451DD192F903204EF28A
S315000013C8001C51F82230CEF2000C23F4803341F889
S315000013D8223051F8221002F01F010123520903FAA4
S315000013E801F10CEB8203BFF35F8FC3F880114CF851
S315000013F82210FFF789BF116969B192F90310012319
S3150000140801F01F0203FA02F24EF200134909CEF266
S31500001418000343F82120FFF777BF4FF0704246F2EA
S315000014280031EFF3038002EB0062C4F2000190156D
S31500001438435823F480334350435840F21053C2F2C2
S31500001448000318588368DB789B0704D543685B7AE2
S31500001458012B18BF704780B512164EF2001CCEF24B
S31500001468000C02F01F034FF0010E52090EFA03F3A7
S315000014780CEB8202C2F88030BFF34F8FBFF36F8F39
S31500001488426892F90220002A0CD402F01F0352097E
S315000014980EFA03F30CEB8202C2F88030BFF34F8FCB
S315000014A8BFF36F8F8268137803F0BF031370426827
S315000014B892F90230002B15D451F8232022F48032F9
S315000014C841F8232051F8231003F01F01012202FAE4
S315000014D801F15A090CEB8203BFF35F8FC3F8801141
S315000014E84CF822100121BDE8804000F000B82DE933
S315000014F8F04184B00446806A0DF1040828B102461A
S3150000150892E8E0004346E0C300E04046626812788D
S3150000151801710260E16A8160616A8847A06A10B158
S3150000152898E80E000EC004B0BDE8F081F0B581B0B1
S315000015384FF07041EFF3038001EB006540F2105164
S31500001548A815C2F200010C58606890F902104EF214
S3150000155800100029CEF200000DD401F01F0201236D
S31500001568490903FA02F200EB8101C1F88020BFF3B2
S315000015784F8FBFF36F8FA16846F200360A78C4F220
S31500001588000602F0BF020A70616891F9021000298C
S3150000159815D456F82120012322F4803246F821205A
S315000015A856F8212001F01F02490903FA02F200EB5E
S315000015B88103BFF35F8FC3F8802140F82120A0681C
S315000015C80021C778C1703A0703D520460521FFF7E1
S315000015D88EFFF80703D020460421FFF788FFF8435B
S315000015E810F0140F4FEA256503D120460821FFF7AE
S315000015F87EFF56F8250020F4803046F8250056F878
S31500001608250001B0F0BD0A780123934013F0060FB8
S3150000161805D0CB695B681B781B0700F1E1802DE9D3
S31500001628F04748F20003C4F2110343EA02224FF0DE
S315000016380008026280F80080C1614B6943628B69C9
S31500001648C0F82880C362837823F003035E1C867083
S315000016584E7816B943F00203837091F90B704EF277
S31500001668001CCEF2000C07F01F044FF0010E0EFA14
S3150000167804F60CF180047A098D7A44F8226046F261
S31500001688003ABFF34F8FC4F2000ABFF36F8F5AF8C0
S31500001698272040F2105922F480324AF827205AF8B7
S315000016A827202A010CF54075C2F20009EA5549F8C7
S315000016B8270091F905200F7902F01F060EFA06F6A3
S315000016C8530944F82360BFF34F8FBFF36F8F5AF85F
S315000016D8223023F480334AF822305AF822303B016C
S315000016E8AB5449F8220091F907208B7902F01F06BE
S315000016F80EFA06F6570944F82760BFF34F8FBFF373
S315000017086F8F5AF822601B0126F480364AF8226049
S315000017185AF82260AB5449F8220091F909200B7A4D
S3150000172802F01F060EFA06F6570944F82760BFF3BB
S315000017384F8FBFF36F8F5AF822401B0124F4803471
S315000017484AF822405AF82240AB5449F82200EFF3EF
S3150000175810828EF3108844F204050B78C4F208054B
S315000017684FF000442E6824FA03F326EA03032B609D
S315000017782B6882F31088026A82F80280026A82F86D
S315000017880480026A82F80980026A82F80A80026A7C
S3150000179882F80B80026AA2F81A800A780EFA02F317
S315000017A840F2F932134202D0036A4024DC74036A19
S315000017B806241C770B780EFA03F3134203D0026A49
S315000017C84FF478439382CA784E788B78D20042EAEF
S315000017D803123EB1032E08BF42F04002F22602E091
S315000017E80322B0E0E226036A02271A70026A00257D
S315000017F89671CA69137B07EA4307082B036A08BF71
S315000018080A275F73066A5378977835721678056AD9
S3150000181806F0FE06022E4FEAC31667F3451609D1EF
S31500001828FF236B701278022A026A08BF46F0100678
S31500001838D67116E0EE715268036A97785F7057782A
S315000018481E7807F0030706F0FC0637441F70D778A2
S315000018589F74DF79127807F0A30702F05C023A4416
S31500001868DA710022C369C0E90322C0E90522D1F86A
S315000018781CE093F905309EF800105AF8234003F04F
S315000018881F0524F480344AF823405AF823400124DB
S3150000189804FA05F60CF5C0755B09BFF35F8F45F8CA
S315000018A823604CF82360C36993F90B305AF8236018
S315000018B826F480364AF823605AF8236003F01F0698
S315000018C804FA06F65B09BFF35F8F45F823604CF808
S315000018D82360C36993F907305AF8236026F48036E3
S315000018E84AF823605AF8236003F01F0604FA06F63E
S315000018F85B09BFF35F8F45F823604CF82360C36923
S3150000190893F909305AF8236026F480364AF823609A
S315000019185AF8236003F01F06B4405B09BFF35F8FD4
S3150000192845F823404CF823401C23076A63F39F01BC
S31500001938B970BEF80A10018144F65511C5F2433153
S315000019484160BDE8F0471046704703460020C3E9EA
S315000019580512704780B5D0F820E09EF802C00CF05A
S315000019687B038EF80230837803F00303A2EB030CA3
S315000019780B44026AC0E9033C937843F080039370F2
S31500001988827802F00302022A05D10988006A41F426
S315000019987E41C18102E00978006AC170002080BDDD
S315000019A810B5C2690123127803FA02F212F0060F83
S315000019B802D00A78120723D4026A4FF0000E92F872
S315000019C802C00CF00B039370C0F80CE0036A8A7827
S315000019D85A704A781C7802F0030204F0FC04224488
S315000019E81A70CA789A74DA79097802F0A30201F0B3
S315000019F85C011144D971006A0CF07B01817001E029
S31500001A084FF0030E704610BD4FF0FF3200200A60FB
S31500001A184A6070478A0701D4062206E0026A93786C
S31500001A2803F07B03937000220261C9071CBF0022E2
S31500001A388261104670478446C0E909130020CCF835
S31500001A482C207047026A002141609170C1694EF2EC
S31500001A58801C91F90520012102F01F0301FA03F306
S31500001A685209CEF2000C4CF82230BFF34F8FBFF369
S31500001A786F8FC26992F90B2002F01F0301FA03F374
S31500001A8852094CF82230BFF34F8FBFF36F8FC269EC
S31500001A9892F9072002F01F0301FA03F352094CF8E2
S31500001AA82230BFF34F8FBFF36F8FC26992F90920B7
S31500001AB802F01F0301FA03F352094CF82230BFF370
S31500001AC84F8FBFF36F8FEFF3108281F31088C069D1
S31500001AD844F204030078C4F208034FF0004C196876
S31500001AE82CFA00F008431860186882F31088002062
S31500001AF8704702468069086000210020916170479E
S31500001B080620704706207047EFF303804FF07041B8
S31500001B1801EB006046F200318015C4F2000142581C
S31500001B2822F480324250415840F21051C2F200016C
S31500001B380858C1690A690169C2B9C1B1817801F059
S31500001B480302C168022A05D10988026A41F47E4166
S31500001B58D18102E00978026AD1708178026901F0C0
S31500001B680303D11AC26801611A44C26071B9016AD5
S31500001B788A7802F07B0204328A70416A00294FF0A3
S31500001B880001C16002D0802200F001B870472DE93B
S31500001B98F04385B08146806A0DF1040830B10546E8
S31500001BA895E8D800C4468CE8D80000E04046D9F845
S31500001BB81C301B78816003600271D9F82C10C16053
S31500001BC8D9F824108847D9F8280010B198E88E006B
S31500001BD88EC005B0BDE8F08310B582B0EFF3038080
S31500001BE84FF0704101EB006046F200318015C4F2F7
S31500001BF80001425822F480324250415840F21051B6
S31500001C08C2F200010C58A07800F00302206A022AEA
S31500001C1803D1018A6FF35F2100E04179A069019140
S31500001C2898B1606901A901F0D2F8A0786169A26942
S31500001C3800F003000144101A6161A0610ED1606AC8
S31500001C4860B120460021012203E0606A30B12046D7
S31500001C58042202B0BDE81040FFF799BF02B010BDDC
S31500001C6810B54FF07041EFF3038001EB006140F2CD
S31500001C7810528815C2F2000210580C16026A9378A0
S31500001C8803F07B039370426A1AB100210222FFF720
S31500001C987EFF46F20030C4F2000050F8241021F40A
S31500001CA8803140F8241050F8240010BD4FF07041E0
S31500001CB8EFF3038001EB006C40F210514FEAAC5091
S31500001CC8C2F2000108588178036A01F0030102296B
S31500001CD803D1198A6FF35F2100E0597910B51A7993
S31500001CE8D40602F0380204D51C7F64F3861282F00B
S31500001CF840021C7904F0C7041C71436A4FEA2C643D
S31500001D080BB1FFF744FF46F20030C4F2000050F86A
S31500001D18241021F4803140F8241050F8240010BD16
S31500001D2880B545F25422C5F24F020260084600F01B
S31500001D3803F8002080BDD4D470B5044600F05CF8E2
S31500001D4840F20C5CEFF31080012181F31088C2F297
S31500001D58000CDCF8001039B940F60351C4F208014A
S31500001D6800220A7040220A70DCF800100131CCF813
S31500001D78001080F31088208810B340F6000E00216A
S31500001D88C4F2080E606800EBC102928850F8313040
S31500001D98100ADD03D2B20BD50EEB801555F822607A
S31500001DA826F4803645F8226023F4803645F822600A
S31500001DB80EEB801040F82230208801318142E1D3B1
S31500001DC8EFF31081012080F31088DCF8000020B1C1
S31500001DD8DCF800000138CCF80000DCF8000038B95F
S31500001DE840F60350C4F208000022027080220270F6
S31500001DF881F3108870BDD4D42DE9F04F81B0044624
S31500001E08008800285CD043F240084EF2BB4A43F2F1
S31500001E18780BC4F208080026C4F2010AC0F2000BC7
S31500001E284FF00109002700BF60683BF8172000EB58
S31500001E38C600818891423CD100689AF8001000F0EB
S31500001E48B85009FA07F5B0F1807F05EA010015D107
S31500001E5850B9012000F0EBFE9AF8000028438AF8F2
S31500001E680000012000F0BAFE18F91700002820D457
S31500001E7818F8170040F0800015E000BF50B10120A7
S31500001E8800F0D5FE9AF80000A8438AF80000012061
S31500001E9800F0A4FE18F91700B0F1FF3F09DC18F8A6
S31500001EA8170000F07F0008F81700C820012100F08D
S31500001EB8E9FD0137032FB7D1208801368642B1D311
S31500001EC801B0BDE8F08F10B5044608784FF200025D
S31500001ED8C4F2090202EB00202061216088684FF0F5
S31500001EE8010C6060087B44F204022072C869C4F2DF
S31500001EF808026063086AE0630020A063C4E905007D
S31500001F08C4E9070084F8290084F82A0084F82B001D
S31500001F1884F82C00EFF3108E8CF310880B78106879
S31500001F28C3F109030CFA03F39843106010688EF3A3
S31500001F381088204600F0B0F844F64311C5F249214E
S31500001F480020E16010BD9C46012380F82AC000F0FD
S31500001F5865B99C46002380F82AC000F05FB9B0B581
S31500001F68044600690025C5712168204600F094F8EA
S31500001F7894F82600216984F82800A069B322C4E9E8
S31500001F880750002084F82C5084F82A50CA71B0BD36
S31500001F980346416000201A7270478446C0E90D1353
S31500001FA80020CCF83C207047C0684BF2BD62CAF6E8
S31500001FB8B6521044B0FA80F0420900200A70704701
S31500001FC8B0B5044600690025C5712168204600F0B1
S31500001FD863F894F82600216984F82800A0694EF26F
S31500001FE88013C4E90750B32084F82C5084F82A508B
S31500001FF8C8712069CEF20003C5712068E56090F9C2
S315000020081110012001F01F0200FA02F2490943F8F3
S315000020182120BFF34F8FBFF36F8F216891F90E1000
S3150000202801F01F0200FA02F2490943F82120BFF322
S315000020384F8FBFF36F8F216891F9101001F01F02BF
S3150000204800FA02F2490943F82120BFF34F8FBFF384
S315000020586F8F216891F90F1001F01F0200FA02F242
S31500002068490943F82120BFF34F8FBFF36F8FEFF372
S31500002078108180F31088226844F204031278C4F2AF
S315000020880803C2F109021D689040284318601868C1
S3150000209881F310880020B0BDF0B5026900231370E3
S315000020A8026940231370026913785B06FCD5C023C6
S315000020B8137002680369526A082512794EF2001CE9
S315000020C842F0E0021A7402680369526ACEF2000C02
S315000020D8D27840F2105E42F0E0025A740268036950
S315000020E8526AC2F2000E927862F306159D70026873
S315000020F80369526A15785278013DB5FA85F56D0976
S3150000210845EA420242F00402DA70026844F24025C7
S3150000211852680369C0F20F05AA424FF0770208BF5A
S315000021286FF008025A710269002393710269B3239A
S31500002138D3714A7B91F9116013010CF540729355DE
S3150000214846F200334EF82600C4F2000353F8264040
S3150000215806F01F0524F4803443F8264053F8264039
S31500002168012404FA05F70CF5C0757609BFF35F8FED
S3150000217845F826704CF826704E7B91F90F7036019B
S31500002188D6554EF8270053F8276026F4803643F8CC
S31500002198276053F8276007F01F0604FA06F67F093A
S315000021A8BFF35F8F45F827604CF827604E7B91F99F
S315000021B810703601D6554EF8270053F8276026F4D6
S315000021C8803643F8276053F8276007F01F0604FA9D
S315000021D806F67F09BFF35F8F45F827604CF827603E
S315000021E84E7B91F90E10360156544EF8210053F8DD
S315000021F8212022F4803243F8212053F8212001F0CF
S315000022081F0204FA02F24909BFF35F8F45F821203D
S315000022184CF8212000699F210170F0BD90F808C094
S31500002228C0E90512BCF1010F08D101794FF4807C91
S3150000223843EA4101A0F825C080F8241010B581B002
S315000022484EF2200180F82930C4F201010968009194
S31500002258009901F00F210091DDF800E0DDF800C0DB
S3150000226801690B7C90F82C409CB9CEF30322A2EBB3
S315000022781C6203FA02F2042A06D3920891F9013085
S31500002288002B03D5013AF9D108216CE00022CA7166
S31500002298826990F82630002180F82810C0E90721C5
S315000022A880F8273080F82B1080F82D1080F82E1033
S315000022B880F82F1080F830100168D0F810C0496AED
S315000022C80B784C78013BB3FA83F34A795B0991F8AA
S315000022D806E043EA440343EA021242EACE1242F017
S315000022E804028CF803200269137943F01003137172
S315000022F80269137903F0F70313710269137903F07E
S31500002308EF0313710269C979137903F07F0343EA6E
S31500002318C111117101694A7942F001024A710168D5
S3150000232891F90F1000290BD401F01F02012303FABB
S3150000233802F24EF200134909CEF2000343F82120B7
S3150000234801694A7A02F0F3024A720169BF22CA7128
S3150000235890F82C1019B1002180F82C1003E00069C0
S31500002368022141700021084601B010BD10B582B0A7
S31500002378EFF303804FF0704101EB006046F2003244
S315000023888015C4F20002835823F4803383508058A2
S31500002398EFF3038001EB006040F210518015C2F2A2
S315000023A800010C5894F82D00B8B1E069002861D0F6
S315000023B82168496AC979012904D12046052100F016
S315000023C837FAE069012857D0022833D0032840D1CC
S315000023D82069017941F040013AE0A069022804D851
S315000023E82069017941F040010171E06901280ED1A7
S315000023F82069017941F0100101712069017941F0E4
S31500002408080101712069017901F0EF010171206865
S31500002418406AC079012803D12046052100F008FA50
S315000024282069C07C8DF807009DF80700012084F814
S315000024382D001FE02069017941F010010171206922
S31500002448017941F0080101712069017901F0EF0174
S315000024580171D4E90401C07C226A8854D4E90710C2
S3150000246801300139C4E9071004D12069017901F066
S31500002478BF01017102B010BD94F82A00012831D1BC
S3150000248820684EF2801390F90F10012001F01F0208
S3150000249800FA02F24909CEF2000343F82120BFF3FD
S315000024A84F8FBFF36F8F2169CA7942F08002CA71D4
S315000024B821690A7942F010020A7121690A7902F043
S315000024C8F7020A7121690A7902F0EF020A71216995
S315000024D804224A7021694A7902F0FE024A7184F898
S315000024E82C00B6E72069417A01F0F70141722069AC
S315000024F808214170ADE7D4D4B0B5EFF303804FF0AF
S31500002508704146F2003501EB0060C4F20005801503
S31500002518425922F4803242514059EFF3038001EBCD
S31500002528006040F210518015C2F200010C5894F870
S315000025382700C8B194F82600032806D194F8280085
S31500002548022802D194F8300068B394F8240021696F
S31500002558887494F8280094F82710013084F8280025
S31500002568481E84F82700B0BD94F82900D8B9206819
S31500002578406AC079012808D194F82B0028B9206A46
S3150000258818B12046052100F053F9E06960B1D4E995
S315000025980401226A895C8174D4E907100130013983
S315000025A8C4E9071000D0B0BD2069C17901F07F01E8
S315000025B8C17120696FF0BE0190F90720B2F1FF3FA3
S315000025C803DC002901F10101F6D1206890F9100019
S315000025D855F8201021F4803145F8201055F82000D0
S315000025E8206890F9100000280BD400F01F01012282
S315000025F802FA01F14EF280224009CEF2000242F8B8
S3150000260820102069C17941F04001C171B0BDD4D410
S3150000261810B5EFF303804FF0704101EB006040F214
S3150000262810518015C2F200010C582068406AC07922
S31500002638012803D12046052100F0FAF894F829006C
S31500002648012806D194F82700012802D194F8300011
S3150000265880B3E06970BB94F82A00012822D120686B
S31500002668012290F90F004EF2801300F01F0102FAC2
S3150000267801F14009CEF2000343F82010BFF34F8F53
S31500002688BFF36F8F2069C17941F08001C17120695C
S31500002698042141702069417901F0FE01417184F8F5
S315000026A82C2007E02069417A01F0F7014172206980
S315000026B8082141702069C17901F0BF01C171206903
S315000026C86FF0BE01C279520603D5002901F1010156
S315000026D8F8D1EFF303804FF0704101EB006046F24A
S315000026E800318015C4F20001425822F4803242506B
S315000026F8405810BDB0B5EFF303804FF0704101EBC1
S31500002708006040F210518015C2F200010C58216990
S315000027184A7A4B7A02F01F0003F0E0030F2802F012
S3150000272803024B7201D83AB924E021694B785B065B
S3150000273858BF42F00102D2B1012084F82B0020696B
S315000027480025C57121682046FFF7A6FC94F82600E7
S31500002758216984F82800A069C4E90750B32084F8E1
S315000027682C5084F82A50C871204601214DE04A7839
S31500002778520611D4010706D494F82C20012A31D127
S3150000278810F004022ED0E06910B994F82B0098B323
S31500002798002919D4012036E0012084F82B000820EE
S315000027A8487020682169406A02784379807942EA4C
S315000027B8031242EAC01040F00200C870206941794D
S315000027C841F00101417122E094F82600002184F8C5
S315000027D82800A069C4E90710012084F82C1084F8A1
S315000027E82A100DE0400712D52068406AC0790128F2
S315000027F80DD12046042108E094F8290080F0030052
S315000028082169B322CA71C1B2204600F011F8EFF36C
S3150000281803804FF0704101EB006046F200318015ED
S31500002828C4F20001425822F4803242504058B0BDEA
S3150000283810B582B00446806B00281ABFD0E9002381
S31500002848CDE900236846E26B01710260616B884737
S31500002858A06B18B1DDE90012C0E90012002084F867
S315000028682B0002B010BD4EF22000C4F2010081799F
S3150000287840F220420068C2F2000252F82110C0F36A
S31500002888026021FA00F040F24C51C2F200010860E1
S315000028987047D4D42DE9F0414EF2FE34C4F2010457
S315000028A84CF200164AF20350C4F2010620800120B9
S315000028B8B08000BFB0880028FCD147F20001012093
S315000028C8C4F2000130808860086040F2204742F672
S315000028D800504CF2002C4EF22005C2F20007C0F25E
S315000028E8311041F200214FF4004243F20063C0F672
S315000028F8EB3CC4F20105C0F27A01C0F26E1387E818
S315000029080F00C7E9042CA879296857F82000C1F3F5
S31500002918026140F24C58C840C2F20008C8F80000EC
S3150000292800206075092085F8820094F8820018B99D
S3150000293894F88300800760D094F8820050B901208B
S3150000294884F88200C820012100F09CF894F88200DF
S315000029580128FBD1002084F8830084F88200002037
S31500002968A87400BF287F0007FCD543F2021028810F
S315000029780020A872287F8006FCD50320307741F214
S315000029882120C2F2010028600520A871A8792968CB
S3150000299857F82000C1F30261C840C8F8000042F2A7
S315000029A80800C4F20000F12101710121F022017032
S315000029B80271297485F8321095F8580040F04000E5
S315000029C885F8580095F95800B0F1FF3FFADC002069
S315000029D885F85000C42085F8580095F8580000F08E
S315000029E8BF0085F8580000BF95F958000028FBD4A9
S315000029F84FF425402080BDE8F0814FF47A7000F04E
S31500002A0801F8ACE77047D4D4B0B543F22404C4F255
S31500002A1808040025C8200121257100F033F8257027
S31500002A2820780028FCD1207840F00200207000BFF2
S31500002A3820788007FCD4002004F8020C14F8020C55
S31500002A480028FBD1002004F11C0100BF11F810205A
S31500002A5802F07F0201F8102011F91020002AFBD499
S31500002A6801300328F2D1012000F0E1F84EF2BB4113
S31500002A78C4F20101002201200A70BDE8B04000F04E
S31500002A88ADB8704740F24C52C2F20002126841F2E9
S31500002A980023C0F27A039A4201FB00F00FD340F6F6
S31500002AA8FF01C0F23D0111444DF68362C4F21B32A8
S31500002AB8A1FB0212110DA0FB0101E9B11FE04CF6C2
S31500002AC8002348F63811C3F69A33C0F24101B3FB26
S31500002AD8F2F2884207D24FF47A7100FB01F0B0FB9C
S31500002AE8F2F0800808E09200B0FBF2F0884206D2C5
S31500002AF84FF47A7100FB01F028B100F005B84FF0E9
S31500002B08FF3000F001B8704701380028FCD1704743
S31500002B182DE9F04146F22018C4F20008B8F8000082
S31500002B28B8F8201040F2CC4501EA0006B7B20024F6
S31500002B38C2F2000527FA04F0C00704D055F824109D
S31500002B4809B1204688470134102CF3D1A8F8106043
S31500002B58BDE8F08170B584B048F248060320C4F297
S31500002B68000600F064F86FF0FF0043F234043060AA
S31500002B784FF0FF300021C0F200040122CDE9020027
S31500002B8834F8113002FA01F5002B01F1010118BFE2
S31500002B98A8430C29F4D14EF280320190002001A9F5
S31500002BA8CEF2000251F8203006EB8005AB6242F8FF
S31500002BB8203001300328F5D1032000F00FF846F243
S31500002BC800310020C4F2000134F810200AB141F89F
S31500002BD8202001300C28F7D104B070BD0122EFF394
S31500002BE8108182F3108840F24052C2F2000232F895
S31500002BF8103023B132F81030013B22F8103032F889
S31500002C0810208AB94EF2FE3CC4F2010C43F294122B
S31500002C18BCF80030C0F2000232F8100043F4254236
S31500002C2822EA0000ACF8000081F31088704780B5EE
S31500002C380122EFF3108182F3108840F24052C2F26B
S31500002C48000232F810308BB94EF2FE3C43F2941370
S31500002C58C4F2010CC0F20003BCF800E033F81030EF
S31500002C6843EA0E0343F42543ACF8003032F810303B
S31500002C78013322F8103081F3108880BD00F006F881
S31500002C88FEF7F4FAFEE700BE7047D4D4B0B54EF6A8
S31500002C980850CEF200004FF47001C0F8801040F2E0
S31500002CA80001C0F20001016000200024FDF735FC98
S31500002CB8FFF7F0FD0120FDF730FC40F22000C2F2DC
S31500002CC8000080F30A88002000F050F8FFF7CBFDDB
S31500002CD8FFF79AFE0320FFF7AAFF40F61050C4F24A
S31500002CE808004FF6FF7100BF20F8141001340C2CB1
S31500002CF8FAD10320FFF772FF0320FFF798FF04209D
S31500002D08C4F20E000021016041608160C1600320A9
S31500002D18FFF764FF0220FDF700FC012000F026F80B
S31500002D2840F25454C2F20004204600F069F82046E6
S31500002D3800F07AF843F2EE1043F2EE11C0F200000A
S31500002D48C0F20001081A8410012C08DB43F2EE15C4
S31500002D58C0F2000555F8040B8047013CFAD1FFF78D
S31500002D68F9FE0020BDE8B040FFF78BBEF0B581B094
S31500002D7843F2B005C0F200052E68044676B16868CD
S31500002D88071D00BF7879844204D157E90101091A61
S31500002D9800F019F8013E07F10C07F3D1AE6886B1C9
S31500002DA8E86800F1080500BF6879844205D155E94D
S31500002DB802022968121A00F00AF8013E05F1100508
S31500002DC8F2D101B0F0BD0A46002100F009B810B5ED
S31500002DD800239A4203D0CC5CC4540133F9E710BDF2
S31500002DE800239A4208BF7047C1540133F9E7D4D487
S31500002DF8034613F8012B002AFBD1181A013870472D
S31500002E0810B505490446054AFFF7E1FF0448054998
S31500002E182044FFF7D8FF10BD78000000000000002E
S31500002E2800000000000000000249401A024908603C
S31500002E38704700BF08000000500500202074696D27
S31500002E48656F75743D0020737261773D00303132CD
S31500002E5833343536373839414243444546005347BB
S31500002E68503430206D696E696D616C20564F432071
S31500002E78746573742073746172740D0A000D0A7395
S31500002E88657269616C3D000D0A53434937206F70BE
S31500002E98656E206F6B0D0A0020616464723D3078A0
S31500002EA800206472763D000D0A00534750343020E6
S31500002EB8696E6974206572723D0020626C61636B8D
S31500002EC86F75743D00206572723D00207265636FF0
S31500002ED87665723D00372E312E320020766F633DBF
S31500002EE80073616D706C653D00534750343020693E
S31500002EF86E6974206661696C65640D0A00206362F8
S31500002F083D00D4D42D5E0000EBE1000008FC000073
S31500002F1880FF0000E1B70200162201000804010044
S31500002F288000010000010000040000200F00FFFFE0
S31500002F3800000000FFFF0000070200000C040C055B
S31500002F480C060C07000000000000000079000000D5
S31500002F58000000002C2F00005C040020402F000019
S31500002F684C3000000101031B1C0000000200000099
S31500002F78A086010044000000010C000102030000C5
S31500002F8800000000000000003D05000000000000F1
S31500002F986C2F00008C040020742F00008030000085
S31500002FA80000010600010000000001060101000002
S31500002FB800000106020100000000010008010000EF
S31500002FC800000106020200000000010603020000DC
S31500002FD800000106040200000500000005020000CA
S31500002FE80400000008020000040000000A020000B5
S31500002FF80000010000030000000401070E040000A1
S31500003008000401070F040000050000000806000080
S31500003018000001050D060000000001050E0600006F
S3150000302810000000A82F0000000000007D007E00B0
S315000030387F008000AA01AB01AC01AD01C401C50146
S31500003048C801C7010F160000531900005D190000DA
S31500003058A9190000111A00001D1A00003F1A0000E5
S315000030684D1A0000FB1A0000091B00000D1B00008A
S31500003078020403040404D4D4CF1E00004F1F00002A
S315000030885B1F0000671F0000991F0000A31F0000B8
S31500003098B11F0000C91F000000000068000000689A
S315000030A8200000202000002005000000C830000095
S315000030B8090000000431000002000000A0300000F2
S315000030C800000068000000680001000800000068B1
S315000030D800000068000100082000002020000020F1
S315000030E8000000033C0400205405002000000003F3
S315000030F85405002054050020000000030000006865
S31500003108000000680000006000010C08000000686C
S31500003118000000680000007000010908000000684F
S3150000312800000068000000080001020800000068AE
S31500003138000000687000000000010108000000207F
S31500003148000000200000006000010C0300000020C1
S3150000315800000020000000700001090300000020A4
S315000031680000002000000008000002030000002004
S31500003178080000207000000000000103540500202C
S315000031885405002078000000000001030100020039
S31500003198080010002000D4D400010306362E332E72
S315000031A831004275696C7420776974682052656EBF
S315000031B86573617320416476616E63656420466C4D
S315000031C8657869626C6520536F66747761726520ED
S315000031D85061636B6167652076657273696F6E20EF
S30B000031E8362E332E3100E5
S3090100A100FFFFFFFF58
S3090100A200FFFDFFFF59
S3090100A280F8F8FFFFE5
S70500002C8549
