S02B000064656D6F456C656374726F6E69634E6F736553637265656E322E302B416473313131352E73726563BC
S31500000000200400200D290000A12700001729000068
S3150000001017290000172900001729000017290000DA
S31500000020000000000000000000000000172900008A
S3150000003017290000000000001729000017290000FA
S31500000040FD1F000089210000A12200008523000079
S315000000506918000099170000F11800003D1900000A
S31500000060070F000009100000AB100000BD110000D2
S30B0000007080484000350047
S3150000007810B540F23C44C2F20004207808B10020D2
S3150000008810BD00F0F1FC00B110BD40F20100C2F253
S315000000980000007800F045FD002818BF10BD0120BB
S315000000A840F23E412070C2F200010020088040F272
S315000000B80001C2F2000180220A7010BDA0F14C01B5
S315000000C8C9B2FC293CBF0120704740F23C41C2F24C
S315000000D80001097840F20102C2F2000201291070FB
S315000000E81CBF0020704700F01CBD4FEA702105298F
S315000000F88FBF012040F23E41C2F20001088098BF3E
S3150000010800207047C1061CBF0120704740F200015D
S31500000118C2F2000108700020704740F23C42C2F269
S3150000012800021278012A1CBF0720704780B582B0EA
S315000001388DF80500080A8DF8060040F20100C2F2A3
S31500000148000000788DF8071000F0EBFC28B90DF1D7
S3150000015805000321002200F04EFD02B080BD10B557
S3150000016882B00C4601464FF00100F4B140F23C4221
S31500000178C2F200021278C2B140F20100C2F20000D7
S3150000018800788DF8071000F0CCFC70B90DF1070067
S315000001980DF105020121022300F0A1FD28B9BDF8E1
S315000001A8050000BA000C2080002002B010BDD4D48F
S315000001B870B582B00C46014603284FF0010025D8D9
S315000001C824B340F23C42C2F200021278F2B1481E51
S315000001D8C1B203294CF203114DF20312CFF6FF7197
S315000001E8CFF6FF7238BF02EB003140F23E40C2F252
S315000001F8000040F200050088C2F200052A7808438C
S31500000208104381B20120FFF788FF08B102B070BD24
S3150000021828784FEA7010072806D842F6CC21C0F293
S31500000228000151F8206000E0142600200DF10605B3
S31500000238ADF8060001202946FFF791FF0028E5D111
S31500000248BDF90600002808D401204FF47A7102F09F
S315000002585DFA013EEED11420D8E701A90020FFF788
S315000002687EFF0028D2D1BDF8040020800020CDE70B
S3150000027840F23E41C2F2000109884FF0FF3202EB1C
S315000002887121042906D842F6EC22C0F2000232F89F
S31500000298111001E04FF4C05181FB000100294FF411
S315000002A8804144BF4CF20001CFF6FF710844C117E4
S315000002B800EB5140C013704710B530B1044600201A
S315000002C82146FFF775FF10B110BD012010BDA11C16
S315000002D80120FFF76DFF0028F6D1211D0220FFF748
S315000002E867FF0028F0D1A11D0320BDE81040FFF7E5
S315000002F85FBF40B10079022805D140F24040C2F202
S3150000030800000121016070479EB017A800F008FDA3
S3150000031801A800F043FD684600F047FD42F6AC41EF
S31500000328C0F2000107C91268904700B1FEE742F61D
S315000003383230C0F2000000F079F8FFF799FE30B1CC
S3150000034842F61930C0F2000000F070F8FEE74820C7
S31500000358FFF7B4FE38B142F61740C0F2000000F0CD
S3150000036865F800BFFEE70020FFF7BFFE38B142F68A
S315000003786530C0F2000000F059F800BFFEE78020A3
S31500000388FFF7C0FE38B142F64330C0F2000000F075
S315000003984DF800BFFEE742F64940C0F2000000F003
S315000003A845F817A800F0C8FC38B142F6CB30C0F2C1
S315000003B8000000F03BF800BFFEE701A817A900F00F
S315000003C8FBFC30B142F63340C0F2000000F02EF8D4
S315000003D8FEE742F60230C0F2000000F027F817AC3C
S315000003E82046002100F042F801AD2846002100F021
S315000003F80DF9E846204600F09FFC0746064628B950
S3150000040828462146424600F0FBFC06462046394669
S3150000041800F02CF82846314600F0F8F84FF47A70C8
S315000004284FF47A7102F072F9E4E7D4D480B110B5CA
S31500000438044602F021FB68B1024642F6AC40C0F21F
S315000004480000816800688B682146984720B110BD76
S3150000045801207047012010BD40F24041C2F2000160
S3150000046808680028FCD00020086010BD2DE9F04F70
S3150000047899B042F696330E460546002066270121B6
S3150000048801ACC0F2000300228DF804005E2A9EBF6C
S31500000498A7540132A0545F5C01311029F6D12B789C
S315000004A82046602100F02CFA42F6AD33024620279A
S315000004B801200021C0F200035E2A9EBFA754013224
S315000004C8A1541F5C01300628F6D1B6F1FF3F05DCC2
S315000004D876425E2A9EBF2D20A05201322046602118
S315000004E8334600F00DFA42F67E3B00210D23C0F29A
S315000004F8000B00225E289EBF2354013021540BEBCB
S31500000508020301325B78022AF4D101AC2046FFF7D8
S315000005188DFF002876D1A81C05F10C0942F62F3567
S3150000052842F6BA3642F660380027C0F20005C0F235
S315000005380006C0F200084FF0000A00904321002090
S3150000054800228DF8047000BF5E2A9EBFA1540132B6
S31500000558A7542918013049780228F5D12046602188
S31500000568534600F0CDF90246202101205E2A9EBF9F
S31500000578A1540132A754315C01300628F6D10098FF
S3150000058830F91A30B3F1FF3F05DC5B425E2A9EBFA5
S315000005982D20A05201322046602100F0B1F9024612
S315000005A8002020215E2A9EBFA1540132A75408EBE1
S315000005B80001013049780428F4D159F82A30B3F1FA
S315000005C8FF3F05DC5B425E2A9EBF2D20A05201320A
S315000005D82046602100F094F900210D225E289EBF76
S315000005E82254013027540BEB0102013152780229BB
S315000005F8F4D12046FFF71AFF20B90AF1010ABAF129
S31500000608040F9BD119B0BDE8F08FD4D42DE9F04F73
S31500000618A5B042F6E8330E46054600206D270121AF
S3150000062805ACC0F2000300228DF814007E2A9EBF96
S31500000638A7540132A0545F5C01310F29F6D12B78FB
S315000006482046802100F05CF942F6F7310246002088
S315000006582027C0F2000100237E2A9EBFA75401323C
S31500000668A054CF1801337F78102BF5D16B7820462C
S31500000678802100F045F942F6813302462027012001
S315000006880021C0F2000300BF7E2A9EBFA754013294
S31500000698A1541F5C01300D28F6D1AB782046802185
S315000006A800F02EF942F6F623024620270120002103
S315000006B8C0F200037E2A9EBFA7540132A1541F5CD4
S315000006C801300C28F6D1EB782046802100F018F985
S315000006D842F608430246202701200021C0F2000303
S315000006E87E2A9EBFA7540132A1541F5C01300F28F1
S315000006F8F6D16B6D2046802100F002F942F6AD3343
S315000007080246202701200021C0F200037E2A9EBF50
S31500000718A7540132A1541F5C01300628F6D1B6F160
S31500000728FF3F05DC76427E2A9EBF2D20A05201326D
S3150000073820468021334600F0E3F842F67E36002153
S315000007480D23C0F2000600227E289EBF23540130E6
S315000007582154B31801325B78022AF5D105AC20463C
S31500000768FFF764FE002840F0C780281D039005F1B6
S315000007782400029005F14400019005F1340042F688
S315000007882F3842F6A63942F68E3A42F6C03B42F672
S31500000798B33500900027C0F20008C0F20009C0F285
S315000007A8000AC0F2000BC0F200050020049000BF4A
S315000007B84321002000228DF8147000BF7E2A9EBFB8
S315000007C8A1540132A75408EB0001013049780228E8
S315000007D8F4D1049B2046802100F092F8024620219D
S315000007E8012000BF7E2A9EBFA1540132A75419F8E2
S315000007F8001001300728F5D1DDE9030150F8213052
S31500000808B3F1FF3F05DC5B427E2A9EBF2D20A05236
S3150000081801322046802100F073F80246202101208B
S315000008287E2A9EBFA1540132A7541AF8001001303F
S315000008380828F5D10298049950F82130B3F1FF3F02
S3150000084805DC5B427E2A9EBF2D20A052013220463F
S31500000858802100F055F80246202101207E2A9EBFFD
S31500000868A1540132A7541BF8001001300B28F5D10A
S315000008780198049950F82130B3F1FF3F05DC5B423B
S315000008887E2A9EBF2D20A05201322046802100F0EC
S3150000089837F80246202101207E2A9EBFA154013244
S315000008A8A754295C01300728F6D10098049950F816
S315000008B82130B3F1FF3F05DC5B427E2A9EBF2D2027
S315000008C8A05201322046802100F01AF800210D229C
S315000008D87E289EBF2254013027547218013152785F
S315000008E80229F5D12046FFF7A1FD28B90498013061
S315000008F8042804907FF45CAF25B0BDE8F08FD4D40B
S31500000908944673B370B583B04CF6CD454FF0000EE0
S31500000918CCF6CC450DF10204A3FB0526F60806EB3A
S315000009288602A3EB420242F0300204F80E200A2B9C
S315000009380EF1010204D3BEF1090F96463346EBD3F6
S31500000948631E00250CF101068E4204D29C5C855577
S3150000095800F80C40B446013AF4D103B0BDE8704043
S3150000096809E00CF101028A4205D2302100F80C1088
S3150000097800219446815460467047022818BF704784
S3150000098840F2584042F67451C2F20000C0F200012B
S3150000099801F00AB840F24841C2F200010A6802F1C1
S315000009A801020A60D0B1007902282ED0032843D16B
S315000009B840F24440C2F200000121017040F2454075
S315000009C8C2F200000022027040F24640C2F2000065
S315000009D8027040F24740C2F2000043E040F247404E
S315000009E8C2F200000321017040F24640C2F2000044
S315000009F80121017040F24440C2F20000002101705A
S31500000A0840F24540C2F200002CE040F24440C2F2F7
S31500000A1800000021017040F24540C2F200000122A8
S31500000A28027040F24640C2F20000017040F24740B0
S31500000A38C2F20000022115E040F24440C2F2000072
S31500000A480021017040F24540C2F20000017040F2F8
S31500000A584640C2F200000121017040F24740C2F24E
S31500000A68000003210170704710B540F25444C2F2E9
S31500000A780004207800284FF0000020D140F24441BD
S31500000A88C2F20001087040F24541C2F20001087046
S31500000A9840F24641C2F20001087040F24741C2F2F4
S31500000AA80001087042F6E841C0F2000107C9126861
S31500000AB89047002818BF10BD01202070002010BDE7
S31500000AC8F0B581B040F25040C2F20000016840F231
S31500000AD8544601310160C2F2000642F6E840317818
S31500000AE8C0F20000876891B1D0E90045F968204650
S31500000AF88847F969204688470020307001204FF45E
S31500000B087A7101F003FE3A682046294602E03A68FF
S31500000B18D0E90001904710B901203070002001B0DB
S31500000B28F0BD40F25441C2F20001097801291CBF08
S31500000B3807207047014642F6E840C0F20000826886
S31500000B48006813690122184770B5B0B140F24646ED
S31500000B5840F244450446C2F20006C2F2000500BF50
S31500000B683078012814D02878012815D001204FF4B0
S31500000B787A7101F0CBFD013CF2D140F24C40C2F251
S31500000B880000016801310160FFF79AFF142070BD6B
S31500000B98FFF796FF122070BD0020287070BDD4D4D0
S31500000BA870B5B0B140F2464640F245450446C2F239
S31500000BB80006C2F2000500BF3078012814D0287854
S31500000BC8012815D001204FF47A7101F09FFD013CF0
S31500000BD8F2D140F24C40C2F20000016801310160D6
S31500000BE8FFF76EFF142070BDFFF76AFF122070BD75
S31500000BF80020287070BD944640F25442C2F20002AA
S31500000C081378012B08D10A46014600284FF0010047
S31500000C1818BF002A02D170470720704780B540F2F6
S31500000C284440C2F200000023037040F24540C2F27D
S31500000C380000037040F24640C2F20000037040F222
S31500000C484740C2F20000037042F6E840C0F20000D6
S31500000C5883680068D3F808E06346F0470028BDE8D3
S31500000C688040D8D16420FFF76FBF944640F25442C3
S31500000C78C2F200021378012B08D10A460146002861
S31500000C884FF0010018BF002A02D1704707207047AD
S31500000C9880B540F24440C2F200000023037040F2DF
S31500000CA84540C2F20000037040F24640C2F200001E
S31500000CB8037040F24740C2F20000037042F6E84073
S31500000CC8C0F2000083680068D3F804E06346F04782
S31500000CD80028BDE88040D8D16420FFF761BFB0B5D1
S31500000CE8154640F25442C2F200021278012A0ED189
S31500000CF8024600284FF0010008D039B135B11C462C
S31500000D0823B110460022FFF776FF10B1B0BD0720C9
S31500000D18B0BD284621460022BDE8B040FFF7A5BF72
S31500000D2848B100210170C0F80610C0F80210C0E9E9
S31500000D380311C0E90511704738B3B0B582B004464F
S31500000D4800202546207045F8020FC4F80600C4E9BD
S31500000D580300C4E905006846FFF7AEFA98B9DDE96D
S31500000D68001068602960002504EB4500B0F9020010
S31500000D78FFF77EFA04EB85010135042DC860F3D12F
S31500000D8801202070002002B0B0BD01207047002865
S31500000D9814BF0078002000F00100704720B180B52C
S31500000DA8582101F054FE80BD704718B10A21C0F2DF
S31500000DB8050101607047D4D4B0B5044600284FF049
S31500000DC801001AD00D46C1B12846FFF7E0FFA8B1C9
S31500000DD805F10C00002100228358A5180432102AB8
S31500000DE86B606B61696269636964F5D140F20110F1
S31500000DF8C0F20010206000206065B0BD0320B0BDC1
S31500000E0870B5044600284FF001006AD00E46002946
S31500000E1867D01546002A64D03046FFF7B8FF002889
S31500000E2860D06078002861D006F10C00002100BF70
S31500000E3850F8212004EB8103013104295A61F7D1C6
S31500000E48002000BF04EB80014A684B6901309A1AFA
S31500000E5804284A62F6D100204FF47A7104EB800226
S31500000E6853682BB1566A06FB01F696FBF3F300E0CE
S31500000E780023013004285364F0D1002004EB8001DC
S31500000E884A6A4B6B01309A42C8BF4A630428F5D1B7
S31500000E982888092154F82120824203DA0C2901F115
S31500000EA80101F7D182424FF00000A8BF0120A070CF
S31500000EB86888092154F82120002A00D55242824226
S31500000EC803D80C2901F10101F4D182424FF0000048
S31500000ED898BF0120616DE07001202070002001316B
S31500000EE8616570BD00202070032070BD0020207051
S31500000EF8072070BD80B5FFF707FA002080BDEFF325
S31500000F0803804FF0704101EB006046F20031801516
S31500000F18C4F20001425822F480324250415840F24D
S31500000F281451C2F200010858D0E9061291421FD0A6
S31500000F38026942B190F82030102B07D383685B68AA
S31500000F4842F821300EE0826852680BE0D0F808C0FB
S31500000F58072B03D89CF80430535403E0BCF804303C
S31500000F6822F81130C26901319142816118BF704778
S31500000F784068012290F9030000F01F0102FA01F10E
S31500000F884EF200124009CEF2000242F820107047D5
S31500000F9842684169537A43B9126A32B1127B012A0F
S31500000FA803D18268D278920629D5C269531E99421E
S31500000FB805D18268138A23F080031382C26991429D
S31500000FC808BF7047C26842B190F82030102B08D38A
S31500000FD852F8212083685A600FE082680023536024
S31500000FE80BE0D0F808C0072B03D8525C8CF8042015
S31500000FF803E032F81120ACF8042001314161704752
S31500001008EFF303804FF0704246F2003102EB0060C6
S31500001018C4F200018015425822F4803242504258E8
S3150000102840F21452C2F2000210584268136AB3B36F
S315000010385B78012B33D1C369D0F814C0013B9C45BA
S315000010481DD192F903204EF2001C51F82230CEF23F
S31500001058000C23F4803341F8223051F8221002F0B4
S315000010681F010123520903FA01F10CEB8203BFF3B6
S315000010785F8FC3F880114CF82210FFF789BF1169FA
S3150000108869B192F90310012301F01F0203FA02F273
S315000010984EF200134909CEF2000343F82120FFF768
S315000010A877BF4FF0704246F20031EFF3038002EB50
S315000010B80062C4F200019015435823F4803343506C
S315000010C8435840F21453C2F2000318588368DB7879
S315000010D89B0704D543685B7A012B18BF704780B518
S315000010E812164EF2001CCEF2000C02F01F034FF04F
S315000010F8010E52090EFA03F30CEB8202C2F8803095
S31500001108BFF34F8FBFF36F8F426892F90220002A10
S315000011180CD402F01F0352090EFA03F30CEB8202F9
S31500001128C2F88030BFF34F8FBFF36F8F8268137892
S3150000113803F0BF031370426892F90230002B15D4EE
S3150000114851F8232022F4803241F8232051F8231045
S3150000115803F01F01012202FA01F15A090CEB82037E
S31500001168BFF35F8FC3F880114CF822100121BDE848
S31500001178804000F000B82DE9F04184B00446806A4A
S315000011880DF1040828B1024692E8E0004346E0C3A0
S3150000119800E040466268127801710260E16A816087
S315000011A8616A8847A06A10B198E80E000EC004B0BC
S315000011B8BDE8F081F0B581B04FF07041EFF30380E0
S315000011C801EB006540F21451A815C2F200010C5853
S315000011D8606890F902104EF200100029CEF2000065
S315000011E80DD401F01F020123490903FA02F200EBAC
S315000011F88101C1F88020BFF34F8FBFF36F8FA168BD
S3150000120846F200360A78C4F2000602F0BF020A70F7
S31500001218616891F90210002915D456F82120012396
S3150000122822F4803246F8212056F8212001F01F02C8
S31500001238490903FA02F200EB8103BFF35F8FC3F893
S31500001248802140F82120A0680021C778C1703A079C
S3150000125803D520460521FFF78EFFF80703D0204661
S315000012680421FFF788FFF84310F0140F4FEA2565AD
S3150000127803D120460821FFF77EFF56F8250020F403
S31500001288803046F8250056F8250001B0F0BD0A78EA
S315000012980123934013F0060F05D0CB695B681B78D2
S315000012A81B0700F1E1802DE9F04748F20003C4F27C
S315000012B8110343EA02224FF00008026280F8008018
S315000012C8C1614B6943628B69C0F82880C362837821
S315000012D823F003035E1C86704E7816B943F00203AA
S315000012E8837091F90B704EF2001CCEF2000C07F0D9
S315000012F81F044FF0010E0EFA04F60CF180047A0969
S315000013088D7A44F8226046F2003ABFF34F8FC4F252
S31500001318000ABFF36F8F5AF8272040F2145922F4B7
S3150000132880324AF827205AF827202A010CF54075FA
S31500001338C2F20009EA5549F8270091F905200F7904
S3150000134802F01F060EFA06F6530944F82360BFF3A7
S315000013584F8FBFF36F8F5AF8223023F480334AF841
S3150000136822305AF822303B01AB5449F8220091F951
S3150000137807208B7902F01F060EFA06F6570944F87D
S315000013882760BFF34F8FBFF36F8F5AF822601B0198
S3150000139826F480364AF822605AF82260AB5449F897
S315000013A8220091F909200B7A02F01F060EFA06F6BA
S315000013B8570944F82760BFF34F8FBFF36F8F5AF86A
S315000013C822401B0124F480344AF822405AF822406D
S315000013D8AB5449F82200EFF310828EF3108844F2DA
S315000013E804050B78C4F208054FF000442E6824FA69
S315000013F803F326EA03032B602B6882F31088026A3C
S3150000140882F80280026A82F80480026A82F80980F9
S31500001418026A82F80A80026A82F80B80026AA2F8D7
S315000014281A800A780EFA02F340F2F932134202D011
S31500001438036A4024DC74036A06241C770B780EFAC8
S3150000144803F3134203D0026A4FF478439382CA78AF
S315000014584E788B78D20042EA03123EB1032E08BFBB
S3150000146842F04002F22602E00322B0E0E226036AD6
S3150000147802271A70026A00259671CA69137B07EA61
S315000014884307082B036A08BF0A275F73066A53785F
S31500001498977835721678056A06F0FE06022E4FEA28
S315000014A8C31667F3451609D1FF236B701278022A13
S315000014B8026A08BF46F01006D67116E0EE71526849
S315000014C8036A97785F7057781E7807F0030706F067
S315000014D8FC0637441F70D7789F74DF79127807F0B7
S315000014E8A30702F05C023A44DA710022C369C0E934
S315000014F80322C0E90522D1F81CE093F905309EF8CD
S3150000150800105AF8234003F01F0524F480344AF8E3
S3150000151823405AF82340012404FA05F60CF5C07551
S315000015285B09BFF35F8F45F823604CF82360C369F6
S3150000153893F90B305AF8236026F480364AF823606C
S315000015485AF8236003F01F0604FA06F65B09BFF390
S315000015585F8F45F823604CF82360C36993F9073019
S315000015685AF8236026F480364AF823605AF823602E
S3150000157803F01F0604FA06F65B09BFF35F8F45F80A
S3150000158823604CF82360C36993F909305AF823603D
S3150000159826F480364AF823605AF8236003F01F06BB
S315000015A8B4405B09BFF35F8F45F823404CF82340EE
S315000015B81C23076A63F39F01B970BEF80A100181FC
S315000015C844F65511C5F243314160BDE8F04710466F
S315000015D8704703460020C3E90512704780B5D0F866
S315000015E820E09EF802C00CF07B038EF80230837868
S315000015F803F00303A2EB030C0B44026AC0E9033CA5
S31500001608937843F080039370827802F00302022AEB
S3150000161805D10988006A41F47E41C18102E0097852
S31500001628006AC170002080BD10B5C2690123127816
S3150000163803FA02F212F0060F02D00A78120723D430
S31500001648026A4FF0000E92F802C00CF00B0393707A
S31500001658C0F80CE0036A8A785A704A781C7802F057
S31500001668030204F0FC0422441A70CA789A74DA79E0
S31500001678097802F0A30201F05C011144D971006AED
S315000016880CF07B01817001E04FF0030E704610BD2F
S315000016984FF0FF3200200A604A6070478A0701D47B
S315000016A8062206E0026A937803F07B039370002211
S315000016B80261C9071CBF0022826110467047844632
S315000016C8C0E909130020CCF82C207047026A0021D3
S315000016D841609170C1694EF2801C91F90520012183
S315000016E802F01F0301FA03F35209CEF2000C4CF87C
S315000016F82230BFF34F8FBFF36F8FC26992F90B2069
S3150000170802F01F0301FA03F352094CF82230BFF323
S315000017184F8FBFF36F8FC26992F9072002F01F033C
S3150000172801FA03F352094CF82230BFF34F8FBFF387
S315000017386F8FC26992F9092002F01F0301FA03F3B9
S3150000174852094CF82230BFF34F8FBFF36F8FEFF378
S31500001758108281F31088C06944F204030078C4F249
S3150000176808034FF0004C19682CFA00F0084318607B
S31500001778186882F31088002070470246806908605E
S3150000178800210020916170470620704706207047A7
S31500001798EFF303804FF0704101EB006046F2003131
S315000017A88015C4F20001425822F480324250415852
S315000017B840F21451C2F200010858C1690A69016968
S315000017C8C2B9C1B1817801F00302C168022A05D104
S315000017D80988026A41F47E41D18102E00978026AE9
S315000017E8D1708178026901F00303D11AC2680161D8
S315000017F81A44C26071B9016A8A7802F07B0204321F
S315000018088A70416A00294FF00001C16002D0802227
S3150000181800F001B870472DE9F04385B08146806A2B
S315000018280DF1040830B1054695E8D800C4468CE8A1
S31500001838D80000E04046D9F81C301B788160036068
S315000018480271D9F82C10C160D9F824108847D9F844
S31500001858280010B198E88E008EC005B0BDE8F08368
S3150000186810B582B0EFF303804FF0704101EB0060D2
S3150000187846F200318015C4F20001425822F4803243
S315000018884250415840F21451C2F200010C58A07857
S3150000189800F00302206A022A03D1018A6FF35F214E
S315000018A800E04179A069019198B1606901A901F048
S315000018B8D2F8A0786169A26900F003000144101A01
S315000018C86161A0610ED1606A60B1204600210122E3
S315000018D803E0606A30B12046042202B0BDE8104039
S315000018E8FFF799BF02B010BD10B54FF07041EFF386
S315000018F8038001EB006140F214528815C2F200021F
S3150000190810580C16026A937803F07B039370426AA8
S315000019181AB100210222FFF77EFF46F20030C4F218
S31500001928000050F8241021F4803140F8241050F8B3
S31500001938240010BD4FF07041EFF3038001EB006CFB
S3150000194840F214514FEAAC50C2F2000108588178AF
S31500001958036A01F00301022903D1198A6FF35F2193
S3150000196800E0597910B51A79D40602F0380204D580
S315000019781C7F64F3861282F040021C7904F0C704C7
S315000019881C71436A4FEA2C640BB1FFF744FF46F219
S315000019980030C4F2000050F8241021F4803140F8D9
S315000019A8241050F8240010BD80B545F25422C5F223
S315000019B84F020260084600F003F8002080BDD4D428
S315000019C870B5044600F05CF840F2105CEFF3108046
S315000019D8012181F31088C2F2000CDCF8001039B935
S315000019E840F60351C4F2080100220A7040220A7028
S315000019F8DCF800100131CCF8001080F3108820883C
S31500001A0810B340F6000E0021C4F2080E606800EB21
S31500001A18C102928850F83130100ADD03D2B20BD5D4
S31500001A280EEB801555F8226026F4803645F82260BC
S31500001A3823F4803645F822600EEB801040F82230F9
S31500001A48208801318142E1D3EFF31081012080F330
S31500001A581088DCF8000020B1DCF800000138CCF86A
S31500001A680000DCF8000038B940F60350C4F208005C
S31500001A78002202708022027081F3108870BDD4D4CF
S31500001A882DE9F04F81B00446008800285CD043F267
S31500001A9840084EF2BB4A42F6C45BC4F20808002668
S31500001AA8C4F2010AC0F2000B4FF00109002700BF7B
S31500001AB860683BF8172000EBC600818891423CD14C
S31500001AC800689AF8001000F0B85009FA07F5B0F166
S31500001AD8807F05EA010015D150B9012000F0EBFE20
S31500001AE89AF8000028438AF80000012000F0BAFEA0
S31500001AF818F91700002820D418F8170040F08000BD
S31500001B0815E000BF50B1012000F0D5FE9AF800009C
S31500001B18A8438AF80000012000F0A4FE18F917006F
S31500001B28B0F1FF3F09DC18F8170000F07F0008F84D
S31500001B381700C820012100F0E9FD0137032FB7D1AE
S31500001B48208801368642B1D301B0BDE8F08F10B5C2
S31500001B58044608784FF20002C4F2090202EB00209C
S31500001B682061216088684FF0010C6060087B44F2B0
S31500001B7804022072C869C4F208026063086AE06356
S31500001B880020A063C4E90500C4E9070084F8290019
S31500001B9884F82A0084F82B0084F82C00EFF3108EC2
S31500001BA88CF310880B781068C3F109030CFA03F359
S31500001BB89843106010688EF31088204600F0B0F83D
S31500001BC844F64311C5F249210020E16010BD9C4648
S31500001BD8012380F82AC000F065B99C46002380F8E6
S31500001BE82AC000F05FB9B0B5044600690025C57182
S31500001BF82168204600F094F894F82600216984F8B4
S31500001C082800A069B322C4E90750002084F82C50A4
S31500001C1884F82A50CA71B0BD0346416000201A7282
S31500001C2870478446C0E90D130020CCF83C20704765
S31500001C38C0684BF2BD62CAF6B6521044B0FA80F0DC
S31500001C48420900200A707047B0B5044600690025AD
S31500001C58C5712168204600F063F894F826002169CA
S31500001C6884F82800A0694EF28013C4E90750B3200F
S31500001C7884F82C5084F82A50C8712069CEF20003E3
S31500001C88C5712068E56090F91110012001F01F0266
S31500001C9800FA02F2490943F82120BFF34F8FBFF338
S31500001CA86F8F216891F90E1001F01F0200FA02F2F7
S31500001CB8490943F82120BFF34F8FBFF36F8F21687F
S31500001CC891F9101001F01F0200FA02F2490943F8CF
S31500001CD82120BFF34F8FBFF36F8F216891F90F1043
S31500001CE801F01F0200FA02F2490943F82120BFF366
S31500001CF84F8FBFF36F8FEFF3108180F31088226840
S31500001D0844F204031278C4F20803C2F109021D68FA
S31500001D18904028431860186881F310880020B0BDE9
S31500001D28F0B5026900231370026940231370026933
S31500001D3813785B06FCD5C023137002680369526AE0
S31500001D48082512794EF2001C42F0E0021A74026865
S31500001D580369526ACEF2000CD27840F2145E42F061
S31500001D68E0025A7402680369526AC2F2000E927857
S31500001D7862F306159D7002680369526A15785278EF
S31500001D88013DB5FA85F56D0945EA420242F00402BD
S31500001D98DA70026844F2402552680369C0F20F05FA
S31500001DA8AA424FF0770208BF6FF008025A7102691B
S31500001DB8002393710269B323D3714A7B91F91160A9
S31500001DC813010CF54072935546F200334EF826007F
S31500001DD8C4F2000353F8264006F01F0524F48034A5
S31500001DE843F8264053F82640012404FA05F70CF573
S31500001DF8C0757609BFF35F8F45F826704CF82670D4
S31500001E084E7B91F90F703601D6554EF8270053F8D8
S31500001E18276026F4803643F8276053F8276007F0D2
S31500001E281F0604FA06F67F09BFF35F8F45F8276099
S31500001E384CF827604E7B91F910703601D6554EF84E
S31500001E48270053F8276026F4803643F8276053F8AE
S31500001E58276007F01F0604FA06F67F09BFF35F8FAF
S31500001E6845F827604CF827604E7B91F90E1036012D
S31500001E7856544EF8210053F8212022F4803243F8B4
S31500001E88212053F8212001F01F0204FA02F2490921
S31500001E98BFF35F8F45F821204CF8212000699F2168
S31500001EA80170F0BD90F808C0C0E90512BCF1010F39
S31500001EB808D101794FF4807C43EA4101A0F825C096
S31500001EC880F8241010B581B04EF2200180F8293030
S31500001ED8C4F2010109680091009901F00F210091EF
S31500001EE8DDF800E0DDF800C001690B7C90F82C40B5
S31500001EF89CB9CEF30322A2EB1C6203FA02F2042A6F
S31500001F0806D3920891F90130002B03D5013AF9D18D
S31500001F1808216CE00022CA71826990F826300021F7
S31500001F2880F82810C0E9072180F8273080F82B10A0
S31500001F3880F82D1080F82E1080F82F1080F83010B9
S31500001F480168D0F810C0496A0B784C78013BB3FA9F
S31500001F5883F34A795B0991F806E043EA440343EAC6
S31500001F68021242EACE1242F004028CF803200269F9
S31500001F78137943F0100313710269137903F0F70319
S31500001F8813710269137903F0EF0313710269C979B2
S31500001F98137903F07F0343EAC111117101694A7984
S31500001FA842F001024A71016891F90F1000290BD419
S31500001FB801F01F02012303FA02F24EF20013490947
S31500001FC8CEF2000343F8212001694A7A02F0F302AF
S31500001FD84A720169BF22CA7190F82C1019B1002102
S31500001FE880F82C1003E000690221417000210846A0
S31500001FF801B010BD10B582B0EFF303804FF0704109
S3150000200801EB006046F200328015C4F200028358E4
S3150000201823F4803383508058EFF3038001EB00608C
S3150000202840F214518015C2F200010C5894F82D00A4
S31500002038B8B1E069002861D02168496AC9790129DF
S3150000204804D12046052100F037FAE069012857D067
S31500002058022833D0032840D12069017941F0400194
S315000020683AE0A069022804D82069017941F04001C4
S315000020780171E06901280ED12069017941F010014A
S3150000208801712069017941F008010171206901791E
S3150000209801F0EF0101712068406AC079012803D177
S315000020A82046052100F008FA2069C07C8DF8070053
S315000020B89DF80700012084F82D001FE020690179AA
S315000020C841F0100101712069017941F0080101719F
S315000020D82069017901F0EF010171D4E90401C07C9E
S315000020E8226A8854D4E9071001300139C4E9071077
S315000020F804D12069017901F0BF01017102B010BD58
S3150000210894F82A00012831D120684EF2801390F9FC
S315000021180F10012001F01F0200FA02F24909CEF25F
S31500002128000343F82120BFF34F8FBFF36F8F216958
S31500002138CA7942F08002CA7121690A7942F010020E
S315000021480A7121690A7902F0F7020A7121690A7986
S3150000215802F0EF020A71216904224A7021694A795C
S3150000216802F0FE024A7184F82C00B6E72069417A2B
S3150000217801F0F7014172206908214170ADE7D4D416
S31500002188B0B5EFF303804FF0704146F2003501EB2E
S315000021980060C4F200058015425922F4803242518B
S315000021A84059EFF3038001EB006040F214518015AB
S315000021B8C2F200010C5894F82700C8B194F826001A
S315000021C8032806D194F82800022802D194F8300092
S315000021D868B394F824002169887494F8280094F860
S315000021E82710013084F82800481E84F82700B0BD5F
S315000021F894F82900D8B92068406AC079012808D11E
S3150000220894F82B0028B9206A18B12046052100F059
S3150000221853F9E06960B1D4E90401226A895C8174E2
S31500002228D4E9071001300139C4E9071000D0B0BD60
S315000022382069C17901F07F01C17120696FF0BE0183
S3150000224890F90720B2F1FF3F03DC002901F10101F3
S31500002258F6D1206890F9100055F8201021F4803145
S3150000226845F8201055F82000206890F9100000283D
S315000022780BD400F01F01012202FA01F14EF280226E
S315000022884009CEF2000242F820102069C17941F0D7
S315000022984001C171B0BDD4D410B5EFF303804FF03F
S315000022A8704101EB006040F214518015C2F2000142
S315000022B80C582068406AC079012803D120460521B8
S315000022C800F0FAF894F82900012806D194F82700B6
S315000022D8012802D194F8300080B3E06970BB94F805
S315000022E82A00012822D12068012290F90F004EF217
S315000022F8801300F01F0102FA01F14009CEF2000333
S3150000230843F82010BFF34F8FBFF36F8F2069C17951
S3150000231841F08001C1712069042141702069417929
S3150000232801F0FE01417184F82C2007E02069417A0A
S3150000233801F0F70141722069082141702069C179CD
S3150000234801F0BF01C17120696FF0BE01C279520662
S3150000235803D5002901F10101F8D1EFF303804FF00D
S31500002368704101EB006046F200318015C4F20001AD
S31500002378425822F480324250405810BDB0B5EFF3AF
S3150000238803804FF0704101EB006040F21451801554
S31500002398C2F200010C5821694A7A4B7A02F01F00F2
S315000023A803F0E0030F2802F003024B7201D83AB992
S315000023B824E021694B785B0658BF42F00102D2B18E
S315000023C8012084F82B0020690025C5712168204664
S315000023D8FFF7A6FC94F82600216984F82800A0696E
S315000023E8C4E90750B32084F82C5084F82A50C871E1
S315000023F8204601214DE04A78520611D4010706D439
S3150000240894F82C20012A31D110F004022ED0E0696C
S3150000241810B994F82B0098B3002919D4012036E096
S31500002428012084F82B000820487020682169406A3A
S3150000243802784379807942EA031242EAC01040F0F2
S315000024480200C8702069417941F00101417122E01A
S3150000245894F82600002184F82800A069C4E907102A
S31500002468012084F82C1084F82A100DE0400712D5B4
S315000024782068406AC07901280DD12046042108E069
S3150000248894F8290080F003002169B322CA71C1B209
S31500002498204600F011F8EFF303804FF0704101EB8E
S315000024A8006046F200318015C4F20001425822F459
S315000024B8803242504058B0BD10B582B00446806B99
S315000024C800281ABFD0E90023CDE900236846E26B4D
S315000024D801710260616B8847A06B18B1DDE90012D3
S315000024E8C0E90012002084F82B0002B010BD4EF29D
S315000024F82000C4F20100817940F220420068C2F24D
S31500002508000252F82110C0F3026021FA00F040F2EE
S315000025185051C2F2000108607047D4D42DE9F04149
S315000025284EF2FE34C4F201044CF200164AF203508D
S31500002538C4F2010620800120B08000BFB0880028C0
S31500002548FCD147F200010120C4F200013080886006
S31500002558086040F2204742F600504CF2002C4EF23A
S315000025682005C2F20007C0F2311041F200214FF4F3
S31500002578004243F20063C0F6EB3CC4F20105C0F228
S315000025887A01C0F26E1387E80F00C7E9042CA87910
S31500002598296857F82000C1F3026140F25058C84034
S315000025A8C2F20008C8F8000000206075092085F806
S315000025B8820094F8820018B994F88300800760D0E6
S315000025C894F8820050B9012084F88200C8200121BD
S315000025D800F09CF894F882000128FBD1002084F8CA
S315000025E8830084F882000020A87400BF287F0007B3
S315000025F8FCD543F2021028810020A872287F8006A5
S31500002608FCD50320307741F22120C2F20100286070
S315000026180520A871A879296857F82000C1F3026136
S31500002628C840C8F8000042F20800C4F20000F121D0
S3150000263801710121F02201700271297485F83210A6
S3150000264895F8580040F0400085F8580095F958006C
S31500002658B0F1FF3FFADC002085F85000C42085F869
S31500002668580095F8580000F0BF0085F8580000BFDC
S3150000267895F958000028FBD44FF425402080BDE882
S31500002688F0814FF47A7000F001F8ACE77047D4D4C3
S31500002698B0B543F22404C4F208040025C820012179
S315000026A8257100F033F8257020780028FCD12078B1
S315000026B840F00200207000BF20788007FCD400207C
S315000026C804F8020C14F8020C0028FBD1002004F1CF
S315000026D81C0100BF11F8102002F07F0201F810203B
S315000026E811F91020002AFBD401300328F2D1012069
S315000026F800F0E1F84EF2BB41C4F2010100220120CC
S315000027080A70BDE8B04000F0ADB8704740F25052CC
S31500002718C2F20002126841F20023C0F27A039A421A
S3150000272801FB00F00FD340F6FF01C0F23D01114452
S315000027384DF68362C4F21B32A1FB0212110DA0FBF7
S315000027480101E9B11FE04CF6002348F63811C3F63B
S315000027589A33C0F24101B3FBF2F2884207D24FF432
S315000027687A7100FB01F0B0FBF2F0800808E09200F5
S31500002778B0FBF2F0884206D24FF47A7100FB01F002
S3150000278828B100F005B84FF0FF3000F001B87047E7
S3150000279801380028FCD170472DE9F04146F220188F
S315000027A8C4F20008B8F80000B8F8201040F2D04586
S315000027B801EA0006B7B20024C2F2000527FA04F0BF
S315000027C8C00704D055F8241009B1204688470134BB
S315000027D8102CF3D1A8F81060BDE8F08170B584B06C
S315000027E848F248060320C4F2000600F064F86FF0C9
S315000027F8FF0042F6805430604FF0FF300021C0F2EF
S3150000280800040122CDE9020034F8113002FA01F57C
S31500002818002B01F1010118BFA8430C29F4D14EF28F
S3150000282880320190002001A9CEF2000251F8203032
S3150000283806EB8005AB6242F8203001300328F5D15B
S31500002848032000F00FF846F200310020C4F2000120
S3150000285834F810200AB141F8202001300C28F7D1AD
S3150000286804B070BD0122EFF3108182F3108840F2A4
S315000028784452C2F2000232F8103023B132F8103056
S31500002888013B22F8103032F810208AB94EF2FE3C8D
S31500002898C4F2010C42F6E062BCF80030C0F2000255
S315000028A832F8100043F4254222EA0000ACF8000092
S315000028B881F31088704780B50122EFF3108182F307
S315000028C8108840F24452C2F2000232F810308BB936
S315000028D84EF2FE3C42F6E063C4F2010CC0F200037D
S315000028E8BCF800E033F8103043EA0E0343F42543FE
S315000028F8ACF8003032F81030013322F8103081F38A
S31500002908108880BD00F006F8FEF7F4FAFEE700BE70
S315000029187047D4D4B0B54EF60850CEF200004FF446
S315000029287001C0F8801040F20001C0F20001016099
S3150000293800200024FEF721F8FFF7F0FD0120FEF73E
S315000029481CF840F22000C2F2000080F30A8800203A
S3150000295800F050F8FFF7CBFDFFF79AFE0320FFF7CC
S31500002968AAFF40F61050C4F208004FF6FF7100BFE8
S3150000297820F8141001340C2CFAD10320FFF772FF4B
S315000029880320FFF798FF0420C4F20E00002101601F
S3150000299841608160C1600320FFF764FF0220FDF7F4
S315000029A8ECFF012000F026F840F25854C2F2000469
S315000029B8204600F069F8204600F07AF842F63A70A8
S315000029C842F63A71C0F20000C0F20001081A8410FB
S315000029D8012C08DB42F63A75C0F2000555F8040BDF
S315000029E88047013CFAD1FFF7F9FE0020BDE8B04068
S315000029F8FFF78BBEF0B581B042F6FC55C0F2000574
S31500002A082E68044676B16868071D00BF7879844247
S31500002A1804D157E90101091A00F019F8013E07F136
S31500002A280C07F3D1AE6886B1E86800F1080500BF67
S31500002A386879844205D155E902022968121A00F01C
S31500002A480AF8013E05F11005F2D101B0F0BD0A46BB
S31500002A58002100F009B810B500239A4203D0CC5CD7
S31500002A68C4540133F9E710BD00239A4208BF7047E2
S31500002A78C1540133F9E7D4D4034613F8012B002ACD
S31500002A88FBD1181A0138704710B505490446054A9E
S31500002A98FFF7E1FF044805492044FFF7D8FF10BDBA
S31500002AA876000000000000000000000000000000A2
S31500002AB80249401A02490860704700BF0800000032
S31500002AC8540500208200000046000000280000008F
S31500002AD8140000000C0000000800000006000000BA
S31500002AE80400000000100008000400020001207223
S31500002AF865636F76657265643D00626173656C69CE
S31500002B086E652065737461626C69736865640D0A25
S31500002B1800414453313131355F4F70656E2066612F
S31500002B28696C65640D0A004348000D0A534349372A
S31500002B38206F70656E206F6B0D0A0041445331316A
S31500002B4831355F53657444617461526174652066FA
S31500002B5861696C65640D0A00206D563D0041445359
S31500002B68313131355F5365744761696E2066616935
S31500002B786C65640D0A000D0A0020726573706F6E2D
S31500002B8864696E673D002064656C74613D00667219
S31500002B98616D6520636F6D706C6574653D002062BC
S31500002BA86173653D00206572723D00207065616B3A
S31500002BB83D00207261773D0020726174696F5F7015
S31500002BC86D3D00626173656C696E65206672616D44
S31500002BD8652072656164206661696C65640D0A002A
S31500002BE86D6574726963732076616C69643D002053
S31500002BF8626173656C696E655F72656164793D00D3
S31500002C08207570646174655F636F756E743D00410D
S31500002C184453313131355F53657441646472657369
S31500002C2873206661696C65640D0A00626173656C80
S31500002C38696E6520736574206661696C65640D0A42
S31500002C4800414453313131352030783438204D51E4
S31500002C5820342D6368616E6E656C206D65747269CB
S31500002C68637320746573742073746172740D0A003B
S31500002C7800010000020000200F00FFFF0000000016
S31500002C88FFFF0000070200000C040C050C060C07E9
S31500002C980000000000000000FB0200000000000029
S31500002CA8782C0000600400208C2C0000982D000071
S31500002CB80101031B1C00000002000000A0860100A1
S31500002CC844000000010C000102030000000000009F
S31500002CD8000000009D09000000000000B82C00005C
S31500002CE890040020C02C0000CC2D00000000010636
S31500002CF800010000000001060101000000000106B5
S31500002D0802010000000001000801000000000106A1
S31500002D18020200000000010603020000000001068E
S31500002D28040200000500000005020000040000007F
S31500002D3808020000040000000A020000000001006A
S31500002D4800030000000401070E0400000004010748
S31500002D580F04000005000000080600000000010539
S31500002D680D060000000001050E0600001000000018
S31500002D78F42C0000000000007D007E007F0080002B
S31500002D88AA01AB01AC01AD01C401C501C801C70167
S31500002D9897120000DB150000E5150000311600004B
S31500002DA899160000A5160000C7160000D5160000E3
S31500002DB8831700009117000095170000020403040A
S31500002DC80404D4D4571B0000D71B0000E31B0000E3
S31500002DD8EF1B0000211C00002B1C0000391C000002
S31500002DE8511C000000000068000000682000002058
S31500002DF82000002005000000142E00000900000035
S31500002E08502E000002000000EC2D000000000068B3
S31500002E180000006800010008000000680000006863
S31500002E280001000820000020200000200000000308
S31500002E383C04002058050020000000035805002027
S31500002E485805002000000003000000680000006824
S31500002E580000006000010C0800000068000000681F
S31500002E680000007000010908000000680000006802
S31500002E780000000800010208000000680000006861
S31500002E88700000000001010800000020000000207A
S31500002E980000006000010C03000000200000002074
S31500002EA80000007000010903000000200000002057
S31500002EB800000008000002030000002006000020B1
S31500002EC87000000000000103580500205805002086
S31500002ED8760000000000010301000200080010004F
S31500002EE82000D4D400010306362E332E3100427555
S31500002EF8696C7420776974682052656E65736173AE
S31500002F0820416476616E63656420466C6578696203
S31500002F186C6520536F667477617265205061636BC8
S31500002F286167652076657273696F6E20362E332E5B
S30700002F38310060
S3090100A100FFFFFFFF58
S3090100A200FFFDFFFF59
S3090100A280F8F8FFFFE5
S7050000290DC4
