S026000064656D6F456C656374726F6E69634E6F7365416C6C53656E736F72342E312E7372656396
S3150000000080820120D9F6000031F50000E3F60000F9
S31500000010E3F60000E3F60000E3F60000E3F6000076
S31500000020000000000000000000000000E3F60000F1
S31500000030E3F6000000000000E3F60000B33E000017
S3150000004079ED000005EF00001DF0000001F1000051
S315000000509BE50000CBE4000023E600006FE600000D
S3150000006039DC00003BDD0000DDDD0000EFDE0000D6
S31500000070084E0200184E0200084E02000000000062
S3150000008000000000204E02000000000000000000FA
S315000000900000000000000000244E0200344E020062
S315000000A0244E020000000000000000003C4E02004A
S315000000B0000000000000000000000000000000003A
S315000000C0404E0200504E0200404E0200000000006A
S315000000D000000000584E0200000000000000000072
S315000000E000000000000000005C4E0200644E0200AA
S315000000F05C4E020000000000000000006C4E020092
S3150000010000000000000000000000000000000000E9
S3150000011080480101382E0200842B0200B12702001C
S315000001207037020000010203040000002E000000E8
S3150000013004000000050000000000803F01000000F0
S31500000140702D02000000404006000000E82C02006E
S315000001504000000003000000CDCCCC3DA0380200DA
S3150000016001010000010000007119020000000000FA
S315000001702E000000B900000011500000BC00002055
S31500000180B40000200500000001000000000000008F
S3150000019000000000010000002F000000D451020002
S315000001A001010100D851020000000000000000C358
S315000001B00000803B01000000BBF51138BBF591380B
S315000001C0BBF511380000803F395DB5BF8F3C053F58
S315000001D00000803F000000400000803F0000803F9C
S315000001E084C9AABFCD39183F0000803F00000040F7
S315000001F00000803F0000803F246C9EBFB9D6393F87
S315000002000000803F000000400000803F0000803F6B
S315000002103FEA9BBFAB16663F26A3AB3AD1482EBA40
S31500000220482D9E3C972F33BC0F1C183E1640D1BD5F
S315000002304D37533F0A7439BF497376314973F631E6
S31500000240497376310000803F0B06E9BF39B3543F4E
S315000002500000803F000000400000803F0000803F1B
S315000002600D1BEABF14F65A3F0000803F0000004015
S315000002700000803F0000803F9A05EDBFC2C9663F7F
S315000002800000803F000000400000803F0000803FEB
S31500000290CFC1F2BF87E4763FDB50B935DBE399B5D2
S315000002A075C15A3942E53AB99182883C09CB75BC89
S315000002B0FC357A3FE52771BFCC2D020023270200CB
S315000002C00000000000000000C5D8000009D90000A9
S315000002D040003500D30901009F0A010042220200B6
S315000002E02DE9F04F97B0024610204FF40471904765
S315000002F048F2A021C2F201010028086069D048F244
S31500000300A429C2F2010948F2A828C9F8000000F59C
S315000003100470C2F20108C8F8000011A800210022EA
S315000003200023002401F060F843F63041C0F20201D8
S315000003300831119148F2AC21C2F20101886040F205
S31500000340E140C0F20000486340F26D5040F2C352F3
S31500000350C0F20000C0F20002C1E90F0240F2E5500F
S3150000036040F23562C0F20000C0F20002C1E9130299
S3150000037041F2CD40C0F2000008610B20086043F650
S315000003802430C0F20200D9F8006000F10C0701AD7C
S315000003902046294600F087F99DF81800022807D163
S315000003A0029839680844B04284BFC9F8000006467E
S315000003B001340B2C07F11807EAD1D8F80000864261
S315000003C00FD941F6EF60C0F2020004F0A4F801254F
S315000003D076E042F6C040C0F2020004F09CF8012527
S315000003E071E001AC204600F02EFA48F2043AC2F25F
S315000003F0010A8ECC50468EC094E8CE00CEC001AC29
S31500000400204600F048FD8ECC0AF124008EC094E808
S31500000410CE0043F62C4BCEC040F20000C2F20000E4
S3150000042048F2AC2400F110050026C0F2020BC2F21D
S31500000430010400BF1BF8060000EBC0005AF820308C
S3150000044023B1696820460022984728600136042EA9
S3150000045005F12805EED148F23C4648F24C5848F2E0
S31500000460AC290024C2F2010647F6FF77C2F2010862
S31500000470C2F201091BF8040000EBC0000AEB800081
S315000004808268CAB1402000BF37524430B0F5A87F19
S31500000490FAD1002008EB0001103040288F81F9D1F5
S315000004A040F2000104EB8400C2F2000101EBC0013E
S315000004B048469047054618B90134042CDAD1002580
S315000004C011A800F0A1FF284617B0BDE8F08F02E0A2
S315000004D001E000E0FFE711A800F096FF1AF034FDF6
S315000004E0B0B548F2A82011F00F02C2F2010048F29E
S315000004F0A4230C4618BF61F00F020168C2F2010383
S31500000500121B1B680A449A420BD248F25035C2F2BB
S3150000051001052868322811D343F22B10C0F20200DD
S315000005201FE0091B0F3921F00F0101F110050560CD
S31500000530284621461DF009FB2846B0BD204601216C
S3150000054003F0FBFE48B129684A1C2A6048F254327F
S31500000550C2F2010242F82100B0BD43F63910C0F2E2
S315000005600200214603F0D7FF0020B0BD70B548F267
S315000005704C36C2F2010630680C46042804D341F218
S31500000580DC60C0F2020017E021461546FFF7A8FF1F
S3150000059070B1316848F21C42C2F2010202EBC1039B
S315000005A05860481C42F8314029603060002070BD18
S315000005B042F2A810C0F20200214603F0ACFF01206F
S315000005C070BD48F24C30C2F2010000688142C4BFDF
S315000005D00020704748F21C40C2F2010000EBC10047
S315000005E040687047B0B50C4648F23C410020C2F264
S315000005F0010147F6FF7200BF0D18B5F940309C4265
S3150000060015D09BB293420CD04430B0F5887FF3D11D
S3150000061043F2DC60C0F20200042103F07CFF0025F7
S3150000062005E02046294600F03EF8A5F84040284659
S31500000630B0BDD4D470B548F24C5C0022C2F2010CB5
S3150000064047F6FF7E0CEB0200B0F90C30994208BF6A
S3150000065070BD9BB273450BD01032402AF2D143F2E3
S315000006601470C0F20200042103F055FF002070BD93
S3150000067043F6243E01EB4103C0F2020E0EEBC30427
S315000006806578D4E9016405721EF8333048F2A02576
S31500000690C2F2010544602D68022B08BF2E444CF8B7
S315000006A00260818170BD43F6243C00EB4000C0F23D
S315000006B0020C0CEBC0035A780A70002281F82D2038
S315000006C01CF830C048F2A02081F814C0DA68C2F2E3
S315000006D001008A619A6800688A605A68BCF1020F54
S315000006E008BF02444A60D3E90420D3B2012BC1E912
S315000006F00C2018BF704702685268CA60406840689C
S315000007000861704780B50020FFF7CDFF002080BD4F
S3150000071080B50A20FFF7C7FF002080BD2DE9F04F06
S3150000072081B048F23C4648F24C5443F62C4948F214
S31500000730043A40F2000B48F2AC280025C2F201064A
S3150000074047F6FF77C2F20104C0F20209C2F2010ABB
S31500000750C2F2000BC2F20108402000BF37524430FB
S31500000760B0F5A87FFAD100202118103040288F81DB
S31500000770FAD119F8050000EBC0000AEB8000C26848
S3150000078005EB85000BEBC0014046904710B90135DB
S31500000790042DE1D101B0BDE8F08FD4D4F0B581B01D
S315000007A048F2A021C2F201010968024608469047B4
S315000007B048F25034C2F20104216848F24C30C2F2C9
S315000007C001000025056069B148F254370026C2F2DF
S315000007D0010700BF57F8260003F035FE20680136F2
S315000007E08642F7D30020256001B0F0BD80B500F049
S315000007F00BFEBDE880401AF0A0BBFFF771BEFFF705
S31500000800B5BE48F24C30C2F2010000688142C4BF56
S315000008100020704748F21C40C2F2010000EBC10004
S3150000082040687047FFF7DEBE7047FFF703BFB1F1C0
S31500000830FF3F06DD02689142BEBF00EB81004068C3
S3150000084070471DF069FB80B582B040F6730140F633
S31500000850810240F649334FF0000CC0F20001C0F2AD
S315000008600002C0F20003CDF800C000F087FA02B023
S3150000087080BD426B0AB13C2110471DF04DFBD4D41C
S315000008802DE9F04F9FB0D1F810A0BAF1000F00F09B
S315000008905981D1F814900F46B9F1000F00F052813A
S315000008A08568804644F670602968C0F202000268D6
S315000008B08B69284639469847002800F0A3800646EB
S315000008C044F674602968C0F2020002688B69284603
S315000008D039469847002800F0A680044644F678601A
S315000008E02968C0F2020002688B6928463946984793
S315000008F044F67C612B68C0F202010A68DB69834614
S31500000900284639469847002800F09E8007463078EA
S315000009103978884240F0AE80A168CDE9066B51F87F
S31500000920046B19A80430B20008941DF01CF9B968CC
S31500000930199651F804BB059713AF381D4FEA8B0281
S315000009401DF011F9741E19AE30462146CDF84CB093
S31500000950FFF76DFF0F900120CDE91000ABF101010B
S3150000096038460491FFF763FF129030462146FFF7A1
S315000009705EFFBBF1010FCAF83400C0F2E3801398A2
S31500000980834500F3DF804042012101228B4514BFDD
S3150000099057F82130012301314618012E03FB02F2DC
S315000009A0F4D1049913A8CAF83020FFF740FFCAF81B
S315000009B038004FF0FF30544644F82C0F069E089836
S315000009C099F80010327800900798059F01904046EC
S315000009D033460297CDF80CA000F09BF9002846D1CB
S315000009E03078072842D0092866D1BBF1010F40F3C1
S315000009F0A980BBF1050F80F0A5800FA801F01CFDB2
S31500000A0001465AE0D8F8107043F24A7642F20B617A
S31500000A1042F27802C0F20206C0F20201C0F20202FD
S31500000A204046472320E0D8F8107041F6594642F276
S31500000A300B6142F27802C0F20206C0F20201C0F275
S31500000A40020240464A230FE0D8F8107042F2C1066F
S31500000A5042F20B6142F27802C0F20206C0F20201D3
S31500000A60C0F2020240464F230096B84701201FB04D
S31500000A70BDE8F08FD8F8106000F098FF3978054689
S31500000A80084600F093FF074642F6156041F67A6184
S31500000A90C0F20200C0F20201CDE9001042F64F5149
S31500000AA042F27802C0F20201C0F20202404651232D
S31500000AB002950397B047D9E70021DDE907B999F810
S31500000AC0000012281CD10891D9F8081009A851F87D
S31500000AD0046B071DB20038461DF045F80121012EB2
S31500000AE006DB00BF57F8040B013E00FB01F1F9D10C
S31500000AF0D8F83C300AF1200240469847059F0899ED
S31500000B00012906DBD8F83C304046224698470028A3
S31500000B10ADD128683946426A284690472868069922
S31500000B20426A2846904728684946426A28469047BE
S31500000B30BBF1000F04D028685946426A2846904700
S31500000B40002094E71DF0E8F92DE9F04385B00F4643
S31500000B504969002945D0044644F67060C0F2020097
S31500000B6002682046394600F028F944F67461C0F25E
S31500000B7002010A6881462046394600F01EF944F60D
S31500000B807861C0F202010A6805462046394600F03F
S31500000B9014F944F67C61C0F202010A6880462046D8
S31500000BA0394600F00CF93E69DEB1326A074602A802
S31500000BB021462B4600F01CF999F8080009284FF049
S31500000BC001000BD19DF81010092907D102AB204670
S31500000BD031464A46CDE9008700F005F805B0BDE884
S31500000BE0F0831DF099F92DE9F04FA7B0319C0F461F
S31500000BF0834621A821469A46164600F0EAF821982F
S31500000C00012840F38480052880F08180D7E900011F
S31500000C10D7E90C23CDE91F01B96B0120CDE91901F4
S31500000C20CDE91501CDE91101F96A309DCDE91C0028
S31500000C30CDE91730CDE91300CDE90F2000200029BA
S31500000C401B921E930D900E9004D4DBF8402058465C
S31500000C5090470D90002D14BF2D6800257B69D7E9BC
S31500000C600212FF6900205B42002ECDE90830CDE973
S31500000C700A710C924BD0002C49D0DAF8000031688A
S31500000C8022680DF14C080DF15C090FACCDE9001995
S31500000C90CDE9020806920DA808A91FAA1BAB049568
S31500000CA0059401F093FB4FF0000760B35146319A6B
S31500000CB0306809681668DBF810A0CDE90009CDE9AF
S31500000CC002180DA808A91FAA1BABCDE90454069665
S31500000CD001F07CFB064641F61F0043F2C131C0F22B
S31500000CE00200C0F20201CDE9001043F2A81142F25F
S31500000CF07802C0F20201C0F202025846F9230397B5
S31500000D000296D0470127384627B0BDE8F08F1DF080
S31500000D1003F92DE9F04385B00546012A4FF000009E
S31500000D2029D01F46DDE90C93DDF838800C46CDE965
S31500000D30020002AE284639464A46CDE9008600F052
S31500000D40E7FCC0B90F9E9DED020B311D304600F049
S31500000D50EBFB386906F108037061D9F8100006F15B
S31500000D600C07B061D8F810002146F06128464246CB
S31500000D70009700F039FD05B0BDE8F08380B5DDF8D9
S31500000D8008C0C0E90223C0E9001C103014211CF081
S31500000D90DCFE80BD78B171B1002A0AD409680B68FF
S31500000DA09A4206DA01EB82014968002901D4026DF4
S31500000DB01047002070471DF0AFF8FFF7EBBF30B1CA
S31500000DC029B14968036D01EB8201496818471DF096
S31500000DD0A3F851B1496841B180B551F8042B40F8E8
S31500000DE0042B92001CF0BFFE80BD002101607047FD
S31500000DF0F0B587B01C461B7A0646122B1DD10B6C2C
S31500000E00084611469847D4E9005104460920C6E928
S31500000E1000413072A9B151F8047B01A8061DBA0041
S31500000E2030461CF0A0FE012F0BDB012156F8040B07
S31500000E30013F00FB01F1F9D104E094E8070007C681
S31500000E4004E001212846224600F050FB07B0F0BD21
S31500000E50B0B5054608201AF09BF80446294600F06E
S31500000E6010F849F224114AF2A962C0F20201C0F256
S31500000E70010220461AF00CF920461AF0D3F81AF0AF
S31500000E8063F880B51BF012FD49F21011C0F20201A1
S31500000E900831016080BD80B582B040F6C36140F67E
S31500000EA0D16241F223134FF0000CC0F20001C0F2F0
S31500000EB00002C0F20003CDF800C0FFF75FFF02B0EA
S31500000EC080BD426B0AB1402110471DF025F8D4D4ED
S31500000ED02DE9F04F93B00C4609680746002900F04B
S31500000EE0A4800868012840F0A1806068002800F00E
S31500000EF0B5800068012840F0B280D7F808A02146E6
S31500000F00DAF800000022836950469847002800F06E
S31500000F10C380054680680068002840F3CD80DAF873
S31500000F2000002146C369504600229847002800F079
S31500000F30D3802669002E00F0DF808046636938463C
S31500000F40294642460496009600F016F9A96804461A
S31500000F5051F8049B0DA804304FEA890206951CF04F
S31500000F6002FED8F80810CDF8349051F8045B07A8B3
S31500000F700430AA00CDF814801CF0F5FDB9F1010F7C
S31500000F800795C0F2CC80A9F1010700250DAE0DF141
S31500000F901C0B00BFAF420BD030462946FFF747FC7B
S31500000FA0804658462946FFF742FC804540F0B78008
S31500000FB00135A945EED10D98814500F3B080012594
S31500000FC0002100BF8F421ABF06EB81025268012240
S31500000FD00131884202FB05F5F4D10DA83946FFF729
S31500000FE026FC064607A83946FFF721FC864240F054
S31500000FF096800DA83946FFF71AFC064607A839461B
S31500001000FFF715FCB042B8BF064604980699C0E93A
S315000010100E56DAF80000426A50469047DAF80000A9
S315000010200599426A5046904732E0002042F68D21EB
S3150000103042F28742C0F20201C0F202023E69CDE9E5
S31500001040002143F2A81142F6A17201240290C0F2D7
S315000010500201C0F202023846342317E0002042F6AD
S315000010608D2141F68662C0F20201C0F202023E699B
S31500001070CDE9002143F2A81142F6A17201240290A3
S31500001080C0F20201C0F20202384635230394B0478B
S31500001090204613B0BDE8F08F3E6943F24A7542F22E
S315000010A00B6142F6A172C0F20205C0F20201C0F263
S315000010B00202384637232EE03E6942F2DB1542F241
S315000010C00B6142F6A172C0F20205C0F20201C0F243
S315000010D00202384638231EE03E6942F2C10542F25A
S315000010E00B6142F6A172C0F20205C0F20201C0F223
S315000010F0020238463A230EE03E6941F6340542F2D2
S315000011000B6142F6A172C0F20205C0F20201C0F202
S31500001110020238463C230095B0470124B8E71CF08C
S31500001120FBFE70B584B000220D460646FFF745FE6D
S315000011300446304629460022FFF741FE2969C1B11F
S31500001140227A092A12D1027A092A0FD12668D1E910
S315000011500235D1F818C0D1E90E1204683046CDE93F
S31500001160005C029400F0D4FF002000E0012004B0EF
S3150000117070BD1CF0D1FED4D470B52DED028B88B0B5
S315000011800D4609780446092913D02669072914BF94
S315000011900846072000F00AFC2B7842F2226102463C
S315000011A0C0F202012046B047012008B0BDEC028B18
S315000011B070BD1078092842D007286CD1106910F547
S315000011C0004F40F0888092ED030A9FED682A9FED5C
S315000011D0661AB4EE420A30EE011A32EE403AF1EEE9
S315000011E010FA9FED632A31FE031AB4EE421AF1EEAD
S315000011F010FA31DD256910EE100A1BF06DFF41EC87
S31500001200100B0020C3F6F0600021CDE9041043F274
S31500001210C21041F65A11C0F20200C0F20201CDE935
S31500001220001042F23E6141F66122C0F20201C0F2B4
S315000012300202204670238DED020BA847B4E7106921
S3150000124010F1800162D192ED030A9FED461AB4EEC9
S31500001250410AF1EE10FA73D118680E9C1BF03CFFA0
S3150000126041EC180BE8681BF037FF41EC110BB0EEB0
S31500001270480A04F1080107AAF0EE680A052000F002
S31500001280CBF9079905201F22E16000F0F9F94042E9
S31500001290A061002089E7266900F088FB0546092041
S315000012A000F084FB844642F2974042F61561C0F294
S315000012B00200C0F20201CDE9001042F64F5141F69C
S315000012C061220295C0F20201C0F202022046722398
S315000012D0CDF80CC067E741F6976142F2BE32C0F224
S315000012E00201C0F20202266948F20005CDE900219A
S315000012F043F2A81141F66122CFF6FF750290C0F2C3
S315000013000201C0F2020220466E2317E041F69E61FA
S3150000131042F2BE32C0F20201C0F202022669CDE9F3
S31500001320002143F2A81141F661226FF07F05029079
S31500001330C0F20201C0F2020220467323039532E78F
S31500001340266941F6275542F20B6141F66122C0F249
S315000013500205C0F20201C0F2020220467423009583
S3150000136021E700BF0000803B000080B70000803707
S315000013706F12833219F020FE0FF0F3FA0844013899
S31500001380B0FBF1F000FB01F07047D4D42DE9F04337
S3150000139081B00546C0690F46042198469146FFF77D
S315000013A0EDFFAC696CB1031D0022214653F80C6BAE
S315000013B0013608BF01320139F8D10B2A01D90120C3
S315000013C00FE004EB440100EB810240F821704FF07E
S315000013D0FF30C2E90109A869C8F800000130A86118
S315000013E0002001B0BDE8F08380B544F6806CC0F201
S315000013F0020C0CF1080C4FF0000EC0E900C1C0E968
S315000014000232C0E904EE80BD704719F096BD40680F
S315000014100268526910471346D0E901025269FFF784
S31500001420B5BF006950F821007047B0B582B0D0E969
S315000014300132D0F80CC01868D2E9042445688E46FB
S315000014401846614673460094A84702B0B0BD002A0C
S315000014500BD409680B689A4207DA01EB82014968E6
S31500001460002902D402685269104700207047002AFA
S315000014700BD449680B689A4207DA01EB8201496886
S31500001480002902D402685269104700207047002ADA
S315000014900BD489680B689A4207DA01EB8201496826
S315000014A0002902D40268526910470020704740683C
S315000014B0026892681047806801EB4101D0E9040296
S315000014C000EBC200406800EB8100704782B080B537
S315000014D082B0084604A9CDE90423019100F005F87D
S315000014E002B0BDE8804002B0704770470129B8BF1E
S315000014F0704710B5A1F1010C4FF0000E0378F445CA
S3150000150043F3030302F80E3009D010F9013B02EB56
S315000015100E040EF1020E1B098E456370EEDBBDE86C
S3150000152010407047D4D4D4D4B0B52DED028BB0EEB4
S31500001530408AF0EE608A9FED200B0D46044651EC82
S31500001540180B53EC102B1CF023F918B10020206067
S3150000155028602CE0B0EE480AF0EE680A28461EF035
S31500001560BFFD51EC100B9FED160B53EC102B1CF02E
S3150000157053F841EC100B1EF0C5FB51EC100B1BF0A1
S31500001580E7FD0122C8F20002821A71F1000211DAA7
S3150000159080F000421143296802BF013129604FF0F3
S315000015A0804011F1200FDCBF002028602060BDECD8
S315000015B0028BB0BD1CF0B0FC000000000000000073
S315000015C0000000000000E041B0B52DED028BB0EE4A
S315000015D0408AF0EE608A9FED0E0B0C46054651ECF4
S315000015E0180B53EC102B1CF00BF970B1B0EE480A37
S315000015F0F0EE680A28462146FFF796FF2068B0F10C
S31500001600FF3FC4BFBDEC028BB0BD1CF085FC00BF24
S31500001610000000000000F03F2DE9F04381B0904645
S315000016208946064651EC100B53EC112B1BF0F4FFC8
S3150000163007464FF00040F0400C461BF045FE0246C0
S315000016400B46384621461BF0E7FF9FED0B0B044681
S3150000165057EC105B2A463B460E461CF0D1F8002894
S3150000166004BF3746254647EC105B4846414601B065
S31500001670BDE8F043FFF7A8BF0000C0FFFFFFDF4152
S315000016802DE9F04381B006464FF0FF30B040C0432D
S3150000169015460C461BF048FE8146A81B88460127C6
S315000016A0C0F12001B0F1200227FA01F107FA00F09B
S315000016B058BF07FA02F158BF00201BF0FDFD024695
S315000016C00B46484641461BF0A7FF0E46C4F12001D3
S315000016D00546B4F1200027FA01F158BF07FA00F1D8
S315000016E007FA04F058BF00201BF0E6FD02460B4641
S315000016F0284631461BF0A8FC41EC100B1EF0A2FA5E
S3150000170051EC100B1BF028FD01B0BDE8F083D4D4DA
S315000017102DE9F04F81B0DDE90A7B91468A46002B20
S3150000172080464BD0DAF80C001C461BF0D5FC05466B
S31500001730D9F80C000E461BF0CFFC02460B46284695
S3150000174031461BF069FF0546E0680E461BF0C4FCF7
S3150000175002460B46284631461BF068FF9FED1E0BDE
S3150000176004460D4651EC100BC80F60F3DF75F868A0
S315000017701BF0B2FC02460B46204629461BF064FCD1
S315000017809FED170B53EC102B1CF01EF8B0B9D8F8D0
S31500001790107042F28F7642F20B6142F64812C0F2A6
S315000017A00206C0F20201C0F2020240464FF49E73E6
S315000017B00096B847012001B0BDE8F08F404651467B
S315000017C04A463B46CDF828B001B0BDE8F04F00F0E0
S315000017D0B5B800BF00BF00BF000000000000000059
S315000017E07B14AE47E17A943F10B582B01478032C8F
S315000017F00FD0072C06D0092C32D14FF07F0C6FF09A
S315000018007F0409E048F2000447F6FF7CCFF6FF7438
S3150000181002E04FF0FF0C0024DDF810E092ED030A21
S31500001820126903293ED002292AD0012973D19FEDDE
S31500001830421A81EE000A9FED3F1AB8FE400AB0EE4A
S31500001840C02AB4EE412AF1EE10FA50D8BDEEC00A15
S3150000185010EE100A10448442C8BF2046186064E0A7
S31500001860046941F2347C42F20B6142F64812C0F23E
S31500001870020CC0F20201C0F2020240F28F1345E0F0
S31500001880BFEE001A81EE001AB8FE412A9FED291A12
S31500001890B0EEC23AB4EE413AF1EE10FA27D8B7EEFE
S315000018A0003A10E09FED241A81EE001AB8FE412A94
S315000018B09FED201AB0EEC23AB4EE413AF1EE10FABC
S315000018C015D8B1EE083A83EE000ABDEEC22A12EE32
S315000018D0101A11448C42C8BF21461960B8FE400A4E
S315000018E0B0EEC02AB4EE412AF1EE10FA15D9046919
S315000018F042F65E3C42F20B6142F64812C0F2020C1E
S31500001900C0F20201C0F2020240F25713CDF800C045
S31500001910A04701200CE01C6007E0BDEEC00A10EEF7
S31500001920100A10446045B8BF84460020CEF800C0B7
S3150000193002B010BD0000004F00000000F0B581B0FD
S3150000194091ED030A92ED031A20EE010AB5EE400A64
S31500001950F1EE10FA12DA076942F68C1642F20B61C2
S3150000196042F64812C0F20206C0F20201C0F20202BA
S3150000197040F249130096B847012015E0069F10EE85
S31500001980100A1C461BF0A8FB0546E0680E461BF035
S31500001990A3FB02460B46284631461BF055FB41EC9D
S315000019A0100B002087ED000B01B0F0BD122882BF9E
S315000019B043F2C840C0F20200704744F6D461C0F258
S315000019C0020151F8200070472DE9F04F8AB0012935
S315000019D0079300910990C0F29883169F149C944631
S315000019E000200190069200BF0998BCF1020F05780D
S315000019F004970DDB012700BF09986EB210F9079016
S31500001A0001374E45C8BFB146BC454D46F4D104E04A
S31500001A10BCF1010FC0F27583A9464FFA89F04FF069
S31500001A20000A0022059000BF099911F90A703F1AB1
S31500001A30A742C0F22C81139907988F4087EA0005C8
S31500001A400126B5F1FF3F4FF0FF35CCF20006C8BFC7
S31500001A500025C8BF4FF08046C7FB0065E91716EBA7
S31500001A60510145F10006C90F80F0004E41EA460CCF
S31500001A7087F0004151EA0E0108BF6FF0004C4CF0B0
S31500001A807F4B4FF0805000EB4B164FF0000E4FF09F
S31500001A908041C6FB061EC90F41EA4E0500274FF0DE
S31500001AA08048E5FB058747F35D03002B4FF00103F4
S31500001AB086EA05000892A5FB061248BF0223B0F18C
S31500001AC0FF3F4FEAE6704FEADE7405FB002040F266
S31500001AD0010ECCF2000E4FF0FF3204FB06007446F6
S31500001AE0C8BF0022C8BF4FF0804409195041C21731
S31500001AF011EB520140F10000C90F41EA40004FEAE4
S31500001B00D87141EA47017A0001F0030100EBA20017
S31500001B104AF6AB27994288BF0130C2F6AA27A0FB36
S31500001B200712B0F1FF3F4FEAE0704FF0FF3300FBC2
S31500001B3007207246C8BF0023C8BF4FF080428918ED
S31500001B405841C21711EB520140F10000C90F41EA9A
S31500001B504000284400F0010106EB60024AF69405B5
S31500001B60B1EBD07F88BF0132C7F2F505A2FB0501B4
S31500001B70B2F1FF3F4FEAE2724FF0FF3302FB05116D
S31500001B80C8BF0023C8BF4FF0804E10EB0E0059416E
S31500001B90CA1710EB520041F10001C00F40EA4100A4
S31500001BA04BF67B62461900204FF08041C6F2AF32F9
S31500001BB0E6FB0210ABEB0C05EA014FEAD1714CF6DD
S31500001BC0F23248BF41EA400600204FF08041C4F699
S31500001BD0A252E6FB0210AA014FEAD1714AF66C4204
S31500001BE048BF41EA400600204FF08041C2F6167217
S31500001BF0E6FB02106A014FEAD1714AF6A42248BFF9
S31500001C0041EA400600204FF08041C1F25212E6FB45
S31500001C1002102A014FEAD17142F6B72248BF41EAC3
S31500001C20400600204FF08041C0F25822E6FB021029
S31500001C30EA004FEAD1714FF6116248BF41EA400609
S31500001C4000204FF08041C0F20A02E6FB0210C90FE5
S31500001C50AA0048BF41EA400600204FF08041F22228
S31500001C60E6FB02106A004FEAD17148BF41EA40061E
S31500001C70BCF1000FDDF818C008BF6FF000460898E9
S31500001C80C6F3C02100EB1630149C421805980AF1E1
S31500001C90010AD4457FF4C8AEB2FA82F04FF080460E
S31500001CA002FA00F1002AC8BF46EA5106049FC0F1B5
S31500001CB023004D4608906FF0404000214FF03C3223
S31500001CC0E6FB0201C00F40EA4100C0F15A30002194
S31500001CD04FF08042E0FB0621D20F40F2010842EAB3
S31500001CE04101CCF20008C1F10052B1F1005F4FF0A2
S31500001CF0FF31434698BF002198BF4FF08043C2FB97
S31500001D000031CA1713EB520241F10001D20F42EA29
S31500001D10410100EB81014FF0FF304246B1F1FF3F38
S31500001D20C4BF00204FF08042C1FB0620C31712EB50
S31500001D30530240F10000D20F42EA4000C0F10050C9
S31500001D4080EA0102B2F1FF3F4FF0FF324346C4BFC3
S31500001D5000224FF08043C0FB0132D01713EB500036
S31500001D6042F10002C00F40EA42008200B0F1005F7B
S31500001D70A8BF6FF00042B0F1604F4FF0004AD8BFE5
S31500001D80524611444FF0FF304246B1F1FF3FC4BF07
S31500001D9000204FF08042C1FB0620C31712EB53020E
S31500001DA040F10000D20F42EA4000C0F1005080EA44
S31500001DB00102B2F1FF3F4FF0FF324346C4BF00229B
S31500001DC04FF08043C0FB0132D01713EB500042F1B5
S31500001DD00002C00F40EA42008200B0F1005FA8BFD7
S31500001DE06FF00042B0F1604FD8BF524650184FEA2C
S31500001DF04009B0F1804FA8BF6FF00049B0F1404FE5
S31500001E001598D8BFD146002840F07F81BCF1010F5C
S31500001E10C0F26B8108994FF0FF308840C0436AB228
S31500001E20039040084FF0000802900592099810F9B7
S31500001E300800811AA14201DA80214FE1139A079F17
S31500001E40914081EA07020123B2F1FF3F4FF0FF32D2
S31500001E50CCF20003C8BF0022C8BF4FF08043C1FBCD
S31500001E60073287F00040D71713EB570342F1000201
S31500001E70DB0F81F0004143EA4206084308BF6FF0DA
S31500001E80004646F07F4E4FF0805000EB4E14002780
S31500001E904FF08040C4FB0407C00F40EA470C4FF0E8
S31500001EA0000B4FF08041ECFB0C1B4BF35D03ACFBCE
S31500001EB00402002B4FF0010384EA0C0A4FEAE47592
S31500001EC048BF0223BAF1FF3F0CFB052240F2010A8C
S31500001ED04FEAD777CCF2000A4FF0FF3507FB042212
S31500001EE05746C8BF0025C8BF4FF08047C0196A4192
S31500001EF0D51710EB550042F10002C00FC90F40EA9A
S31500001F00420041EA4B014FEA4B0201F0030100EBAC
S31500001F10A2004AF6AB25994288BF0130C2F6AA252F
S31500001F20A0FB0512B0F1FF3F4FEAE0704FF0FF3320
S31500001F3000FB05205246C8BF0023C8BF4FF08042B1
S31500001F4089185841C21711EB520140F10000C90F20
S31500001F5041EA4000604400F0010104EB60024AF6E9
S31500001F609404DDF818C0B1EBD07F88BF0132C7F208
S31500001F70F504A2FB0401B2F1FF3F4FEAE2724FF013
S31500001F80FF3302FB04115246C8BF0023C8BF4FF0FF
S31500001F90804280185941CA1710EB520041F10001E6
S31500001FA0C00F40EA41004BF67B62044400204FF02C
S31500001FB08041C6F2AF32E4FB0210AEEB0607FA012F
S31500001FC04FEAD1714CF6F23248BF41EA4004002094
S31500001FD04FF08041C4F6A252E4FB0210BA014FEA68
S31500001FE0D1714AF66C4248BF41EA400400204FF0E6
S31500001FF08041C2F61672E4FB02107A014FEAD171F3
S315000020004AF6A42248BF41EA400400204FF080412E
S31500002010C1F25212E4FB02103A014FEAD17142F6C4
S31500002020B72248BF41EA400400204FF08041C0F289
S315000020305822E4FB0210FA004FEAD1714FF6116202
S3150000204048BF41EA400400204FF08041C0F20A0236
S31500002050E4FB0210C90FBA0048BF41EA4004002061
S315000020604FF08041F222E4FB02107A00049F4FEA0F
S31500002070D17148BF41EA4004002E08BF6FF000440A
S3150000208084EA0902A4FB0901B2F1FF3F4FEAE972B3
S3150000209004FB02114FF0FF325346C4BF00224FF03B
S315000020A08043C0185141CA1710EB520041F100019C
S315000020B0C00F4A0040EA41000399029B014003EB2E
S315000020C0D27291420899059A40FA01F088BF013010
S315000020D0149C80F308006FF07F01414007F8081058
S315000020E008F10108C4457FF4A1AE0998019960443E
S315000020F00990009801318142674401917FF474ACE4
S3150000210003E003204FF08046D4E50AB0BDE8F08F27
S31500002110B0B584B0DDE908CE0A9C0025CDE900CE35
S31500002120CDE90254FFF750FC04B0B0BD2DE9F04FE5
S3150000213092B00D90219DDDE91F741B98022D00B20F
S31500002140C0EA004A4FEAE4760096C0F2D88005EB72
S31500002150D57040100C9004EB9670861001966600C0
S315000021600B96E61C0A9620F0030627EAE77008900D
S315000021707D424FF0FF30002FC8BF0025A840C7435F
S315000021807808DDF890C00590012000EB5700049018
S315000021904FEA4C000697039001EB040CA01B0027A6
S315000021A007950996029000BF0E971AB1F2E80258F9
S315000021B0109204E000204FF00008002510900A98C5
S315000021C0DDF834E00728119104D201EB04097046CA
S315000021D027E000BF019C9B46002000BF5EF8007010
S315000021E02AFA97F30E582FFA96F222FB03522AFA8E
S315000021F087F72FFA86F626FB07255CF80020013CB8
S3150000220000F104002FFA92F62FFA82F226FB0383DE
S3150000221022FB0738E2D1209C0CEB000901447044F4
S315000022205B46099ADDF808B0DDF86CE094420F933E
S315000022300EDD00BF10F9012B11F9017B19F9016BB5
S31500002240724402FB075502FB0688BBF1010BF1D174
S31500002250089FDDF8789005FA07F000214FF08042DC
S31500002260C0FB092108FA07F700254FF08046D00F7A
S31500002270079CC7FB096540EA41000599F60FDDF8A2
S3150000228018B040FA04F346EA4507002B0A4647FA17
S3150000229004F500EA0B0E049848BF0246002D0E46D0
S315000022A048BF064696451D9A07EA0B0103EB020056
S315000022B088BF0130B14205EB0201229D239A88BFF7
S315000022C00131A842D8BF28469042A8BF10460F9BAE
S315000022D0A94218702498D8BF29469142A8BF114632
S315000022E01954039811990B9A0E9F03440C981144A4
S315000022F001379444109A209C87427FF455AF219869
S31500002300C0075ED0002A14BF1268002200980D9DF7
S315000023109C4604EB9070E31C072B4FEAA00E13D3E8
S31500002320704600BF55F8043B2AFA93F751F8046B40
S315000023302FFA96F424FB072201382AFA83F32FFAA0
S3150000234086F626FB0322EDD1209BB3EB8E0F0CDD28
S315000023504FEA8E001B9F181A15F9016B11F9013B04
S315000023603E4406FB03220138F6D11F9B1E9F23EA3B
S31500002370E37002FA00F000214FF08042C0FB072113
S31500002380D00F5A42002B4FF0FF3340EA4100C8BF3E
S3150000239000229340DF4320EA03031041C1F380711A
S315000023A01D9A01EB570110448B42229988BF0130D8
S315000023B08842D8BF084623998842A8BF08468CF8A9
S315000023C00000002012B0BDE8F08FD4D42DE9F04F04
S315000023D08BB01C6864B38846DDE91916DDE9147014
S315000023E0C968006892464FF0010900BFDAE9002C7F
S315000023F0D8F80050D8E9023ED8F810B0009500256C
S31500002400CDE9032CCDE905011699189ACDE90153BA
S3150000241038463346CDE908B9CDF81CE0FFF786FE0D
S31500002420159819990068C9680744013C0E44DDD126
S3150000243000200BB0BDE8F08F0020704709B3F0B55F
S31500002440002300BF02EB430C32F813E0BCF802C0D5
S315000024502EF0030E2CF0030C50F80E5050F80C60C2
S3150000246000EB0E0400EB0C0740F80E6040F80C5031
S315000024707E68656802338B4266607D60E2D3BDE8A4
S31500002480F04070472DE9F0472DED028B8146038819
S31500002490D9F80420084601EB830A082B4FEA5308B3
S315000024A0C0F0B0806FF00E010AEB880C00EB880ECE
S315000024B001EA4306002700BFC3190AEB070593ED9F
S315000024C0000A95ED004A93ED011A95ED015A0EEBBF
S315000024D007010CEB070493ED022A95ED026A70EEF4
S315000024E0045A91ED007AD4ED002AC3ED005A71EE3C
S315000024F0055AD1ED010AD4ED013AC3ED015A72EE47
S31500002500065A93ED033AD1ED021AD4ED024AC3ED11
S31500002510025AD5ED035A30EE440A33EE258A37EED9
S31500002520224AD1ED036AD4ED037A83ED038A81ED65
S31500002530004A30EEA34A81ED014A31EEA44A81ED0C
S31500002540024A36EEA74A81ED034AD11931EE451A01
S3150000255032EE462A33EEE05A34EEE16AD1ED000A55
S31500002560D1ED011A32EEC74A60EE202A61EE213A19
S3150000257021EE201A20EE210A31EE400A85ED010AED
S3150000258024EE210A25EE211A25EE205A72EEA32A00
S3150000259024EE204A30EE450AC5ED002A84ED000AF5
S315000025A034EE010A84ED010A91ED020A91ED031A57
S315000025B033EE653A22EE004A23EE015A23EE003A44
S315000025C022EE012A37EEE67A33EE422A85ED032A19
S315000025D026EE012A27EE011A27EE003A26EE000A19
S315000025E0103734EE054A32EE432A30EE010ABE4277
S315000025F085ED024A84ED022A84ED030A7FF45CAF7E
S31500002600D9F804204146022300F0E0FAD9F8042064
S31500002610504641460223BDEC028BBDE8F04700F070
S31500002620D5BAD4D42DE9F04F81B02DED108B8CB0F6
S31500002630028891ED000A570801EB870E0EEB87041E
S3150000264091ED011A94ED002A94ED013A04EB870806
S3150000265002904668900830EE024A30EE420A31EEA9
S31500002660032A31EE431A9EED013A9EED005A01907F
S3150000267098ED017AD8ED000A6FF0010030EE036A9A
S3150000268071EE451A74EE452A72EE433A30EE430A6D
S3150000269031EE051A34EE054A32EE032A00EB9200BB
S315000026A036EE476A71EEA01A72EEE02A73EEC73A6A
S315000026B030EE070A31EE601A34EE204A32EE072A6F
S315000026C0420805A881ED004A81ED012A8EED006AD7
S315000026D0CEED011AC4ED002AC4ED013A88ED000AD8
S315000026E088ED011A52C0CDE903E800F04D816FF084
S315000026F0030000EB07166FF0070C00EBC70307EBB0
S3150000270047000CEB87010CEB8009002700244FF0F3
S31500002710000A00BFCDE90A72DDF814C006980CEB7A
S315000027200A0200EB0A0B0498D64492ED024A92ED97
S31500002730035ADBED020ADBED031A00EB0A059EEDF8
S31500002740020A9EED032A34EE206A35EE217A95EDD3
S31500002750021A95ED033A76EE002A77EE023A72EE09
S31500002760812A73EE833A27460CEB06040CEB010034
S315000027700CEB0308C2ED022AC2ED033ACC44D0EDBD
S31500002780015ADCED016AD8ED003A75EEA62AD4EDC1
S31500002790004A34EE604A72EEA30A70EEA47A35EE71
S315000027A0615A90ED008A9CED009A58ED010A54EDAD
S315000027B0011AC0ED017A18ED01AA0995089478EE80
S315000027C0097A14ED01BA37EE8AAA079D3AEE0BAAEA
S315000027D080ED00AA05EB0A0034EE02AA35EE40BAF7
S315000027E090ED02CA90ED03DA3AEE43AA3BEE01BA47
S315000027F02AEE0CEA2BEE0DFA2BEE0CBA2AEE0DAAF7
S3150000280075EEE65A3BEE4AAA38EE498A75EEE06A5C
S3150000281033EEE49A8EED03AA76EEA16A38EE09AAA3
S3150000282026EE8DBA2AEE0DDA2AEE0CAA66EE8C6A30
S315000028303EEE0FEA3C463BEE4AAA76EE8D6A8EEDF8
S3150000284002EA48ED016A88ED00AA281936EE406AC8
S3150000285037EE427AD0ED046A90ED05AA36EE416A6B
S3150000286037EE437A26EE26BA27EE0ACA27EE267AEE
S3150000287026EE0A6A37EE466A8BED036A32EEE36AA3
S3150000288037EEE07A36EE646A37EE617A0A9F66EED4
S31500002890662A67EE263A27EE0A7A26EE0A6A3BEEA3
S315000028A00CBA32EEC77A36EE636A8BED02BA8CED5D
S315000028B0006A8CED017AE81990ED066A90ED077AC8
S315000028C034EE422A35EE000A32EE032A30EE410A91
S315000028D022EE061A20EE073A099831EE031A20EE88
S315000028E0060A22EE072A30EE420A80ED021A31EE7F
S315000028F0E01A0B9A80ED030A39EE480A31EE651AA2
S31500002900DDF80CE021EE072A20EE073A20EE060A53
S3150000291021EE061A089832EE400A31EE031A013A01
S315000029200AF1080A04F1100407F11807A6F10806CF
S31500002930A1F10801A3F10803A9F1080900ED011AA4
S3150000294080ED000A7FF4E6AE079A059802EB0A0BC3
S3150000295000EB0A080BF108000B90161906983A448A
S31500002960079200EB0A0404980EEB0A0100EB0A0337
S3150000297008F1080901F1080C06F1100E04F108052A
S31500002980183203F1080015E006F1180A06F11002E4
S3150000299006F108030F4608F1080004F108050EF1D8
S315000029A0080C0B93B34601F1080971469646434657
S315000029B05246B84699ED000A95ED001A9CED007A4C
S315000029C030EE012AD0ED000A98ED033A94ED034A61
S315000029D072EE472A32EE072A32EE202A30EE410AFC
S315000029E033EE041A33EE443A91ED034A93ED035A5B
S315000029F089ED002A91ED032A30EE046A71EE443A1D
S31500002A0030EE440A93ED034A31EE021A31EE041A0F
S31500002A100B9F88ED031A73EE471A97ED001A9BED8C
S31500002A20032A36EE456A71EEA01A73EEC53A30EE09
S31500002A30050A26EE014A21EE825A21EE811A26EE79
S31500002A40022A34EE054A31EE421A8CED004A81ED37
S31500002A50031A9EED001A96ED052A72EEE02A22EE82
S31500002A60814A23EE825A23EE811A22EE822A34EE1E
S31500002A70054A31EE421A079985ED004A84ED031A9C
S31500002A8033EE073A92ED001A91ED072A33EE603ADB
S31500002A9020EE014A23EE025A23EE011A20EE020A24
S31500002AA034EE052A31EE400A029C80ED002A83EDC1
S31500002AB0030A019D626805982946042300F086F8FA
S31500002AC0626803982946042300F080F86268069835
S31500002AD02946042300F07AF86268049829460423FC
S31500002AE00CB0BDEC108B01B0BDE8F04F00F06EB835
S31500002AF02DE9F0410488984616460746012A0D46F8
S31500002B000CD15CB1281D214690ED000A0139B1EEC9
S31500002B10400A80ED000A00F10800F5D1FF2C0CDD1B
S31500002B20B4F5806F19DBB4F5805F1CD0B4F5006F87
S31500002B3020D0B4F5806F0BD020E03F2C04DC102CA5
S31500002B4006D0202C16D019E0402C0CD0802C15D1A4
S31500002B5038462946FFF796FC10E0B4F5807F09D089
S31500002B60B4F5007F0AD17A6828462146012300F091
S31500002B702DF803E038462946FFF754FDB8F1000F5B
S31500002B8004D0B989BA682846FFF758FC012E1BD134
S31500002B90002C08BFBDE8F08100EE104AB8EE400AEE
S31500002BA0B7EE001A81EE000A95ED001A95ED012A9E
S31500002BB020EE011A22EE402A85ED001A85ED012A43
S31500002BC0013C05F10805EFD1BDE8F0812DE9F04F94
S31500002BD081B02DED108B9EB0DFED03CA0D4602923B
S31500002BE0CDE900031C9101E0F304353FEA08D70064
S31500002BF0A7EBD500C00004301B90AA46042060F362
S31500002C00020A02EB42000601C00053014FEA021E0F
S31500002C1006960436079202EB8202049004301A9656
S31500002C20D20018900EF10400009EEC0005920432CA
S31500002C301790181D4FF0000819920E9316901D95C7
S31500002C4016981B993518199806EB0A0B06EB00091E
S31500002C501798721806EB000C1A9815ED011A33181E
S31500002C60189896ED002A30441BED013A19ED014AF9
S31500002C701CED017A53ED010A50ED011A52ED012ABD
S31500002C8032EE015A33EE046A77EE203A71EEA24A2A
S31500002C9075EE235A76EE246A75EEA67AC6ED007AAC
S31500002CA075EEE65ADBED007A99ED008A90ED00BAF2
S31500002CB092ED00CAD5ED006A45ED015AD6ED015AEE
S31500002CC09CED009A93ED00AA37EE88EA7BEE0C8A1B
S31500002CD035EEA6DA39EE0AFA35EE635A36EE646A4E
S31500002CE07EEE684A7DEE0F9A7DEE4F3A35EE24DA97
S31500002CF035EE645A7EEE28AA0CED01DA33EEC6DA1A
S31500002D0003ED015A36EE235A32EE411A33EE442AC7
S31500002D1037EE603A31EEE24A37EEC86A7BEE4C0A8D
S31500002D2079EEAABA79EEEA9A72EE441A32EE042ADB
S31500002D3036EE604A36EE206AC6ED01BAC5ED009A57
S31500002D40DDE91C158CED00DA83ED005A35EEE65A06
S31500002D5039EE4A7A61EEAC1A22EE2C2A24EE2C4A7F
S31500002D6026EE2C6A71EE210A73EE022A75EE043AFB
S31500002D7077EE064A31EE611A33EE422A35EE443AD0
S31500002D8037EE464A70EEA45A70EEE40A31EE045A63
S31500002D9031EE441AA8444BED015A73EEE25A42ED65
S31500002DA0010A72EEA30A09ED015A33EE425A00ED0A
S31500002DB0011A32EE031A88452644CBED005AC2EDBD
S31500002DC0000A89ED005A80ED001AFFF439AF402D54
S31500002DD0C0F0AF810BA880E890400198DDF800C0F4
S31500002DE080B2039007980023C0EBC0004FEAC008EA
S31500002DF0012700BF0398029A034402EBC30090ED3B
S31500002E00000A0A938DED1B0A90ED010A02EB0310EE
S31500002E108DED1A0A90ED000ACDE908C78DED190A65
S31500002E2090ED010A03EB430002EBC0018DED180A99
S31500002E3091ED000A02EB00108DED170A91ED010AE3
S31500002E4002EB43118DED160A91ED000A069C8DEDFD
S31500002E50150A91ED010A03EB830102EBC1018DED29
S31500002E60140A91ED000A8DED130A91ED010A8DED1C
S31500002E70120A90ED000A8DED110A90ED010AC3EBDE
S31500002E80C30002EBC0008DED100A90ED000AD0EDF4
S31500002E90016A3B46DDE9047E8DED0F0A0E980D9919
S31500002EA00CEB00050C980CEB010B0CEB00090CEB82
S31500002EB00E000CEB040A0CEB07020CEB0806DCED2B
S31500002EC0027A95ED028A99ED029A90ED02AA9BED9F
S31500002ED002BA9AED02CA92ED02DA96ED02EA77EEAE
S31500002EE088FA39EE0A0A3BEE0C1A3DEE0E2A3FEE40
S31500002EF081FA70EE028A7FEE289ACCED029A3FEEB6
S31500002F00683A9CED03FAD5ED038AD9ED039AD0ED24
S31500002F1003AADBED03BAF0EE6C3ADAED03CAD2EDA2
S31500002F2003DAD6ED03EA3FEE284A39EEAA5A3BEE1B
S31500002F30AC6A3DEEAE7A74EE060A75EE071ADDED62
S31500002F40154ADDED145A70EEA12A70EEE10ACCEDB9
S31500002F50032A64EE831A65EEA02A64EEA00A25EE23
S31500002F60833A71EEA21A30EEC33AC5ED021A85ED28
S31500002F70033A3FEEC11A30EE420A34EE462A35EEE7
S31500002F80473ADDED190ADDED181A31EE034A32EE45
S31500002F90405A20EE846A21EE857A20EE855A21EE8B
S31500002FA0844A35EE444A8BED034A9DED114A9DED68
S31500002FB0105A31EE431A30EE020A24EE012A25EEAB
S31500002FC0003A24EE000A25EE011A37EE066A33EEC1
S31500002FD0022A30EE410A39EE4A1A3DEE4E3A39EEF1
S31500002FE0EA5A3DEEEE7A71EE430A31EE031A35EEF9
S31500002FF0473A35EE075A8BED026A8AED022A8AEDC8
S31500003000030A37EEC80A3BEE4C2A3FEE684A3BEE0F
S31500003010EC6A20EEA37A21EE231A23EE233A25EE5C
S31500003020235AF0EE63CA70EE070A72EE011A74EEC6
S31500003030032A76EE057ADDED1B3A9DED1ACA30EECF
S31500003040A78A32EEE19A23EE88AA2CEE09BA23EE7D
S31500003050899ADDED0F3A70EEE70A71EEA21A2CEEB0
S31500003060088A63EEA02A66EEA17A63EEA11A66EEDE
S31500003070A00A39EE488A71EEE00A89ED038AC6EDA8
S31500003080030A30EE470A32EE411A34EE432A36EE90
S31500003090453ADDED130ADDED121A30EE034A32EE43
S315000030A0415A20EE846A21EE857A20EE855A21EE79
S315000030B0844A3AEE0BAA72EEA72A36EE076A35EE76
S315000030C0444A89ED02AAC6ED022A80ED026A80ED25
S315000030D0034A1D989DED174A9DED165A1C9930EE30
S315000030E0430A31EE021A03440B9824EE002A25EE19
S315000030F0013A24EE011A25EE000A32EE032A31EED9
S31500003100400A8B42844482ED022A82ED030AFFF4D0
S31500003110C5AE099F0798DDF820C001370A9B874294
S315000031200CF1080C7FF466AE0198079DC000019073
S315000031305CE51EB0BDEC108B01B0BDE8F08FD4D4B9
S3150000314091ED000A91ED011AB0F800C030EE002AA8
S3150000315031EE011A436932EE013AB6EE000A32EE5A
S31500003160411A23EE003A21EE001A01F1080001EBA4
S31500003170CC0182ED003A82ED011A08330832043997
S3150000318011ED011A90ED003A91ED002A90ED014AF9
S3150000319093ED005A93ED016A31EE437A72EE040A1A
S315000031A067EE051A27EE067A31EE031A34EE422A46
S315000031B025EE205A20EE866A31EE211A32EE072AD3
S315000031C031EE061A32EE452A21EE001A22EE002AC8
S315000031D0ACF1010C82ED001A82ED012A08330830A9
S315000031E00832BCF1010FA1F10801C9DC7047D4D443
S315000031F091ED001A91ED012AB0F800C031EE023AC5
S31500003200B6EE000A31EE421A436923EE003A21EE89
S31500003210001ABCF1020F82ED003A82ED011A38BFA6
S31500003220704701F1080001EBCC010832083304397C
S3150000323011ED011A91ED002A90ED003A90ED014A48
S3150000324093ED005A93ED016A33EE417A72EE040A69
S3150000325067EE051A60EE862A27EE066A31EE031A35
S3150000326034EE422A25EE205A31EE611A32EE062A53
S3150000327031EE621A32EE452A21EE001A22EE002ABB
S31500003280ACF1010C82ED001A82ED012A08320833F6
S315000032900830BCF1010FA1F10801C9D87047F0B59B
S315000032A081B014460E46054673B12846314622467D
S315000032B01F46FFF79DFF284621463A46012301B0E7
S315000032C0BDE8F040FFF714BC284631460022012332
S315000032D0FFF70EFC28463146224601B0BDE8F04015
S315000032E0FFF72EBF9FED090A31B10B46B0EC011A6C
S315000032F0013B30EE010AF9D101EE101AB8EE411A7F
S3150000330080EE010A82ED000A704700BF000000004F
S315000033109FED0F0AB0EE401A51B19FED0D1A0B4604
S31500003320B0EC012A013B22EE022A32EE011AF7D155
S3150000333002EE101AB8EE422A81EE021AB5EE401AD3
S31500003340F1EE10FA01DBB1EEC10A82ED000A704718
S3150000335000000000022902D29FED140A22E09FED30
S31500003360131A84460B4600BFBCEC010A013B31EE42
S31500003370001AF9D100EE101AB8EE400A81EE002AC2
S315000033809FED0A1AB0EC013A013933EE423A23EEC8
S31500003390033A33EE011AF5D1BFEE002A30EE020AE7
S315000033A081EE000A82ED000A704700BF00000000AF
S315000033B00288438803FB02F252B14968406800BFA5
S315000033C0B0EC011A013A20EE011AA1EC011AF7D16C
S315000033D000207047B0B5B0F800E042684B68B0F81E
S315000033E002C04FEA8E0000BFBCF1000F08D019469C
S315000033F0644600BF52F8045B013C0D600144F9D1FC
S31500003400BEF1010E03F10403EED10020B0BDD4D409
S3150000341042B100BFB0EC011A013A30EE011AA1EC3C
S31500003420011AF7D1704710B548F28C54C2F2010464
S31500003430207808B1002010BD08F02FFA00B110BDA9
S3150000344040F2A100C2F20000007808F083FA0028DA
S3150000345018BF10BD012048F28E512070C2F2010142
S315000034600020088040F2A001C2F2000180220A700A
S3150000347010BDA0F14C01C9B2FC293CBF0120704728
S3150000348048F28C51C2F20101097840F2A102C2F25F
S315000034900002012910701CBF0020704708F05ABABC
S315000034A040F2A100C2F20000007870474FEA702196
S315000034B005298FBF012048F28E51C2F20101088012
S315000034C098BF00207047C1061CBF0120704740F21C
S315000034D0A001C2F2000108700020704748F28C5229
S315000034E0C2F201021278012A1CBF0720704780B57C
S315000034F082B08DF80500080A8DF8060040F2A1009A
S31500003500C2F2000000788DF8071008F023FA28B9F7
S315000035100DF105000321002208F087FA02B080BDF4
S3150000352010B582B00C4601464FF00100F4B148F2E6
S315000035308C52C2F201021278C2B140F2A100C2F26C
S31500003540000000788DF8071008F004FA70B90DF144
S3150000355007000DF105020121022308F0DAFA28B965
S31500003560BDF8050000BA000C2080002002B010BD96
S3150000357070B582B00C46014603284FF0010025D8ED
S3150000358024B348F28C52C2F201021278F2B1481EFC
S31500003590C1B203294CF203114DF20312CFF6FF71AB
S315000035A0CFF6FF7238BF02EB003148F28E50C2F2FE
S315000035B0010040F2A0050088C2F200052A780843FF
S315000035C0104381B20120FFF789FF08B102B070BD38
S315000035D028784FEA7010072806D845F29011C0F2F5
S315000035E0020151F8206000E0142600200DF10605C6
S315000035F0ADF8060001202946FFF792FF0028E5D125
S31500003600BDF90600002808D401204FF47A710BF0AA
S3150000361048FF013EEED11420D8E701A90020FFF7AC
S315000036207FFF0028D2D1BDF8040020800020CDE71E
S3150000363048F28E51C2F2010109884FF0FF3202EBC7
S315000036407121042906D845F2B012C0F2020232F8FE
S31500003650111001E04FF4C05181FB000100294FF425
S31500003660804144BF4CF20001CFF6FF710844C117F8
S3150000367000EB5140C013704710B530B1044600202E
S315000036802146FFF775FF10B110BD012010BDA11C2A
S315000036900120FFF76DFF0028F6D1211D0220FFF75C
S315000036A067FF0028F0D1A11D0320BDE81040FFF7F9
S315000036B05FBFB0B582B04AF218300124C2F20100F1
S315000036C00DF1070200218DF8074000250BF014F8D4
S315000036D0A8B99DF8071040F2A202C2F200021170CA
S315000036E040F2A302C2F20002117048F29051C2F2F7
S315000036F001010D6048F29451C2F201010C7002B052
S31500003700B0BDB0B582B0054601208DF8070099B36B
S315000037100020087048F29450C2F2010000780C466E
S31500003720012828D14AF21830C2F201000DF1070231
S3150000373000210AF0E1FFF8B940F2A200C2F200004F
S315000037409DF807100278914218D148F29050C2F2C3
S3150000375001000068281A14284FF000000CD340F22C
S31500003760A302C2F2000213788B4205D0117019B978
S315000037700120207008E0072002B0B0BD017048F2B9
S315000037809050C2F2010005600020F5E740B10079D3
S31500003790022805D148F29850C2F2010001210160C9
S315000037A0704710B548F29C54C2F20104207808B163
S315000037B0002010BD46F23C31C0F2020107C9126872
S315000037C0904700B110BD012048F298512070C2F216
S315000037D001010020086010BD80B110B504461AF042
S315000037E0E9F968B1024646F23C30C0F2020081684F
S315000037F000688B682146984720B110BD01207047AC
S31500003800012010BD48F29851C2F201010868002853
S31500003810FCD00020086010BD48B141B102F1010C96
S315000038208C4504D283540021624600F80C101046E1
S315000038307047D4D49446F3B11A78E2B1B0B5B0FA71
S3150000384080F5B1FA81F46D09640945EA040E013385
S31500003850002400BFBEF1000F07D10CF101058D4217
S315000038603EBF00F80C204455AC4613F8012B002A45
S31500003870F0D1BDE8B04060467047D4D49446CBB38F
S3150000388070B583B04CF6CD450024CCF6CC450DF191
S31500003890020E00BFA3FB0526F60806EB8602A3EB85
S315000038A0420242F030020EF804200A2B04F1010213
S315000038B003D3092C14463346ECD3B0FA80F3B1FA9D
S315000038C081F45B0964092343AEF1010E002400BFB5
S315000038D04BB90CF101058D4205D21EF80260445524
S315000038E000F80C60AC46013AF2D103B0BDE8704076
S315000038F0604670470028FBD00029F9D00CF1010280
S315000039008A42F5D2302100F80C10002194468154E9
S31500003910EEE7B3F1FF3FC8BFFFF7B0BF78B171B1B3
S3150000392002F1010C8C450AD280B54FF02D0E00F83D
S3150000393002E0002200F80C206246BDE880405B42AF
S31500003940FFF79CBFF0B581B0B2EE041A20EE011A63
S31500003950B6EE002A31EE022ABEEE003AB5EE400A75
S3150000396031EE031AF1EE10FAB8BFB0EE412ABDEE01
S31500003970C20A10EE107A0C46B7F1FF3F05460ADC84
S3150000398045B13CB1501CA04204D22D21A9540021BE
S31500003990024629547F424CF6CD40CCF6CC40A7FBDC
S315000039A00001CE08284621463346FFF767FF024648
S315000039B045B13CB1501CA04204D22E21A95400218D
S315000039C00246295406EB8600A7EB4003284621460B
S315000039D001B0BDE8F040FFF751BF90B189B1B0B575
S315000039E002F1010E41F6A9258E45C0F202050AD262
S315000039F01C092C5D02F1020C8454002400F80E40D0
S31500003A0003E094460FE0F44696468C4508D203F050
S31500003A100F01695C00F80E10002100F80C1000E0A0
S31500003A20F446BDE8B04060467047D4D4E8B1B0B5BE
S31500003A30A0B004788C464FF0000E8DF800E0B4B1CB
S31500003A4001306B46002200BF511C7F299EBF9C544B
S31500003A5003F801E00A4610F8014B002CF4D1BCF142
S31500003A60000F0FD57E2A07D90AE001207047BCF166
S31500003A70000F4FF0000205D568462D218152013214
S31500003A80CCF1000C6D46284680216346FFF7F6FE12
S31500003A9042F25E624FF0000C0D21C0F202020023DA
S31500003AA0441C7F2C9EBF295405F804C02046D1181B
S31500003AB001334978022BF3D16846FFF78DFE20B01B
S31500003AC0B0BDD4D4B0B5A8B042F26C3E4FF0000CF5
S31500003AD05B2001216D46C0F2020E00228DF800C067
S31500003AE0531C9F2B9EBFA85405F803C01A461EF808
S31500003AF0010001310A29F3D14AF20030C2F2010075
S31500003B0003682846A021FFF7B9FE43F26453044632
S31500003B102C2101204FF0000CC0F20203621C9F2AE8
S31500003B209EBF295505F802C01446195C01300B28C2
S31500003B30F4D14AF20430C2F2010003682846A021FB
S31500003B402246FFF79BFE42F63F4304462C21012006
S31500003B504FF0000CC0F20203621C9F2A9EBF29553B
S31500003B6005F802C01446195C01300B28F4D14AF25C
S31500003B700830C2F2010003682846A0212246FFF75A
S31500003B807DFE41F6590304462C2101204FF0000C1E
S31500003B90C0F20203621C9F2A9EBF295505F802C087
S31500003BA01446195C01300B28F4D14AF2FE20C2F209
S31500003BB0010003782846A0212246FFF75FFE43F264
S31500003BC0627304462C2101204FF0000CC0F2020360
S31500003BD0621C9F2A9EBF295505F802C01446195C2F
S31500003BE001300E28F4D14AF2FF20C2F20100037818
S31500003BF02846A0212246FFF741FE42F25E624FF0C0
S31500003C00000C0D21C0F20202002300BF441C9F2CB1
S31500003C109EBF295405F804C02046D11801334978BF
S31500003C20022BF3D16846FFF7D7FD28B0B0BD68B1C7
S31500003C3010B54FF44361044619F087FF012004F8DC
S31500003C40040B2046BDE8104001F061BD4EF69870A9
S31500003C50CFF6FF707047014600284EF69770CFF6F4
S31500003C60FF7006D00A78012A18BF7047081D01F0B8
S31500003C7062BD013070472DE9F04F83B04EF6967B5A
S31500003C80CFF6FF7B814600280BF1020066D08A46FC
S31500003C90002963D09046002A60D099F800000128D8
S31500003CA050D14046742119F050FFDAF8000009F5AA
S31500003CB03F61C8F8080008F12800CDE90110BCC929
S31500003CC0BCC0BCC9BCC091E8FC00FCC0D9F8080067
S31500003CD009F10404C8F80C00204601F07FFD88F8BD
S31500003CE010009AED2C0AB8EEC00A88ED050A9AED86
S31500003CF0100AB8EEC00A88ED060A9AED110AB8EE67
S31500003D00C00A88ED070A9AED120AB8EEC00A88EDD5
S31500003D10080A9AED130AB8EEC00A88ED090A9AF85D
S31500003D209000012811D19AF8080070B1012008F11D
S31500003D30140188F80100204601F011FD88B1C8F889
S31500003D4004000BE00BF1010008E04046C8F804B09F
S31500003D5000F044F8012088F80000002003B0BDE818
S31500003D60F08FD9F80800C8F80C00204601F036FD9F
S31500003D70DDF804E088F810000299BEE8EC008C46F5
S31500003D80ACE8EC00BEE8EC000028ACE8EC009EE8ED
S31500003D90ED008CE8ED000FD0204601F02FFD38B184
S31500003DA00021C21C88F8021018BFC8F8040003E0FE
S31500003DB098F8390088F80200D8F8340098F83810D6
S31500003DC0C8F80C00404688F8101000F007F8D8F83C
S31500003DD00400012188F80010C0E7D4D490F8282008
S31500003DE00021012A80F86810C166016718BF704774
S31500003DF090ED170A9FED091A816DB4EE410AF1EEB6
S31500003E0010FAC16680ED1C0A01D5012103E00329E1
S31500003E1094BF0231002180F8681070479A99193FC3
S31500003E20052882BF41F64970C0F20200704745F28C
S31500003E30BC11C0F2020151F82000704710B548F2DB
S31500003E409D54C2F20104207848BB05200BF0E1FA2C
S31500003E5038B344F6D351C1F26201A0FB01014FF021
S31500003E60FF3000EB91120021B1EB126F4FF0010011
S31500003E7018BF10BD4EF21003CEF200034EF6235CBF
S31500003E805A60CEF2000CF0228CF8002007229960CE
S31500003E901A6048F2A052C2F201021160207000209E
S31500003EA010BD012010BD48F2A050C2F2010000680A
S31500003EB0704748F2A050C2F201000168013101606A
S31500003EC07047D4D42DE9F04F83B0064640684FF6CC
S31500003ED014470128CFF6FF7740F09D8048680C46CE
S31500003EE0012840F0988090681546012840F093809C
S31500003EF0D5F804B0D3F80480ABF1010099468045AB
S31500003F0040F08980D9F80800012840F08480D6F86E
S31500003F1008A0A06882457ED14FEA88000121019061
S31500003F2019F050FE002807F1020774D0029001989C
S31500003F30012119F047FE00286AD0DDF808E0BAF141
S31500003F40000F3ED0D4F800C032680027B7EE000A52
S31500003F500023B8F1000F30D00CEB870191ED002A59
S31500003F6002EB870191ED001A2E680027002400BF9E
S31500003F7006EB870191ED003AB4EE432AF1EE10FA12
S31500003F8006DB91ED013AB4EE432AF1EE10FA04D4C1
S31500003F900134A7B2B845EBD80FE00EEB870191EDDF
S31500003FA0002A00EB870731EE021A97ED002A81ED11
S31500003FB0001A32EE001A87ED001A01339FB2BA4595
S31500003FC0C7D8BBF1010F20D09FED150A00220021B2
S31500003FD000EB820393ED001AB0EE402AB5EE401ACC
S31500003FE0F1EE10FA05D00EEB820393ED002A82EE75
S31500003FF0012AD9F80030013103EB820282ED002A52
S315000040006B688AB2013B9342E2D819F0EBFD0027B8
S31500004010029819F0E7FD384603B0BDE8F08F00BFFF
S31500004020000000002DE9F0472DED048B8AB01F46F5
S3150000403043684FF61444012BCFF6FF7440F0C58059
S315000040400D464968012940F0C080AE68012101EBA8
S3150000405057018E4240F0B9805168012940F0B58081
S315000040609168B14240F0B18001680234002900F045
S31500004070AC802B68002B00F0A8801368002B00F0A2
S31500004080A480B0EE408AB7EE009A89EE080A01EEE7
S31500004090107AB8EE411AD0F808A000208DF8240056
S315000040A001204FEA570906910790BA45CDF820A09E
S315000040B028BFBA464FF0000020EE010A89EE000A3A
S315000040C04FF0000184BF0897BA4600BF8BB201EEDD
S315000040D0103A1368B8EE411A013120EE011A034472
S315000040E08E4200F1040083ED001AEFD10420012175
S315000040F04FF0010819F066FD002802908DF8148033
S31500004100CDF80C80CDF810804FD006A802A900F09B
S3150000411075F80446002848D106A802A900F09AF8C6
S315000041200446002841D1F000012119F04BFD089901
S31500004130069A8046104642463346009700F0FFF83E
S31500004140044678BB1FFA8AF000EE100AB8EE400A61
S3150000415028EE000A89EE000A08F104000024002176
S3150000416090ED001A10ED012A21EE011AB0EEC11AE7
S3150000417022EE022A32EE011A20EE011A31EE012A4F
S31500004180B9F1000F2A6801FE021A046000ED011A57
S315000041900A440830A9F10109013E01F1040182ED4A
S315000041A0001ADDD1404619F01DFD029828B19DF890
S315000041B01410C90701D019F015FD069828B19DF80D
S315000041C02410C90701D019F00DFD20460AB0BDEC38
S315000041D0048BBDE8F087FFE7029828B19DF814101C
S315000041E0C90701D019F0FEFC069828B19DF82410E5
S315000041F0C90701D019F0F6FC16F0A6FE2DE9F0412C
S3150000420082B00C4605464168606881424FF614400C
S31500004210CFF6FF701AD1A268012A17D1A9B10027DB
S315000042200DF10408002600BFA968286801FB06F204
S3150000423000EB82004246FFF755F8019821680136E7
S31500004240C851686804378642EED3002002B0BDE844
S31500004250F081D4D42DE9F04F81B02DED028B84B0DE
S315000042600C460546406849684FF61447CFF6FF7777
S31500004270884249D1A168012946D1002843D04FF090
S31500004280010BE846B7EE008A4FF0000A4FF000092E
S315000042902868AE6850B106FB09F100EB810000907A
S315000042A000208DF80C00CDE901B60AE0B00001212E
S315000042B019F088FC00908DF80CB0CDF804B0029689
S315000042C058B32068504490ED000AF1EE400A40468B
S315000042D0B0EE480A01F0B6FB0646009840B19DF8DC
S315000042E00C10C90704D019F07DFCA6B904E000BF84
S315000042F0002E18BF374607D1686809F101098145C4
S315000043000AF1040AC4D30027384604B0BDEC028B78
S3150000431001B0BDE8F08F3746F6E74FF61440CFF60A
S31500004320FF70871CF0E7009828B19DF80C10C907AC
S3150000433001D019F057FC16F007FE19F043BC2DE921
S31500004340F04387B00E9D0646012000EB55004FF660
S3150000435005498342CFF6FF791DD10F46A8000121FA
S31500004360904619F02FFCC8B1AF4228BF2F46BA00BD
S315000043703146044619F0F7FBE91B04EB8700890078
S3150000438019F0E3FBB5F5007F0BDA7F2D12DC202D4B
S315000043901CD0402D18E009F10C054BE009F1110580
S315000043A048E0B5F5006F0ADAB5F5007F0ED0B5F531
S315000043B0806F09E0802D09D0B5F5807F04E0B5F562
S315000043C0805F03D0B5F5006F4F4627D1402D23D12E
S315000043D02020ADF8040045F28010C0F20200818969
S315000043E0D0E90102ADF81010CDE902024020ADF887
S315000043F0140045F28000C0F20200069001A8214692
S31500004400424600230027FEF74AFFD8F80400C8F802
S315000044100470C8E9400701E009F10B073846294650
S3150000442001F06DFB05460028204618BF09F1050579
S3150000443019F0D8FB284607B0BDE8F083204619F0EE
S31500004440D1FB16F081FD19F0CDBBD4D42DE9F04F88
S3150000445083B089468346FFF726FDBBF1000F43D0A4
S31500004460DBF80CA08046DAF84C00E8B10024002501
S31500004470DBF810002946002814BF50F825C04FF07D
S31500004480000CDAF850004B4620440769D0E9066272
S315000044905846CDE9006CB84740BBDAF84C00013508
S315000044A0854204F12004E3D39AF854000026F0B1C3
S315000044B0002400BFD9F8681051F834507DB128683F
S315000044C020B1297BC90701D019F08CFB284619F0C9
S315000044D089FBD9F8680040F834609AF85400013432
S315000044E08442E7D3002602E0F52610E00646FFF7F1
S315000044F0DAFCB0EB08004FF47A714FF00003A0FB32
S31500004500010263F1000303FB0121C9E9160170B240
S3150000451003B0BDE8F08F83B010B5C1B0844643A8A0
S3150000452001AC0EC043AB20464FF480716246009347
S315000045301AF0E4FD2046FFF74FF941B0BDE8104000
S3150000454003B0704710B58EB010EE100A18F0C4FD17
S3150000455041EC100B42F6EA7202ACC0F202022046AF
S3150000456030218DED000B19F071FD2046FFF734F96F
S315000045700EB010BD2DE9F04F81B0DDF828C013460E
S315000045800022BCF1000F6CD04FF0000E4FF0000A75
S3150000459007681978D7E90189012909FB08F545D08B
S315000045A0092921D003296BD1002D54D000210025E3
S315000045B03C6893ED031A0C4494ED000A1C6980EEE6
S315000045C0010A0431BCFEC00A10EE106A34445E686B
S315000045D084F3080476447455D7E90146013506FB91
S315000045E004F4A542E4D31EE0ADB30021002500BFCC
S315000045F03C6893ED031A0C4494ED000A1C6980EEA6
S31500004600010A0431BCFEC00A10EE106A34445E682A
S3150000461004F3070476447455D7E90146013506FBD1
S3150000462004F4A542E4D3AE4415E000BF9DB14FEAC1
S315000046308E0B0025002600BF3C6859686459594412
S315000046404C51D7E90114013604FB01F18E4205F104
S315000046500405F1D3B64409FB08220AF1010AE24532
S3150000466096D199690020914211D08B0893420ED0C1
S3150000467041F23A70C0F20200FFF74DFFE82006E073
S3150000468041F66B40C0F20200FFF745FFF32040B24F
S3150000469001B0BDE8F08FD4D480B50378D1E9012C00
S315000046A0092B0CFB02F22ED0032B0CD0012B51D17F
S315000046B08369B2EB930F56D10A68416810461A46D1
S315000046C019F051FA3EE0836993423DD1D2B34FF0DF
S315000046D0000C0023426890ED031A12F803E0026909
S315000046E00133AEEB020200EE102A0A68B8EEC00AE9
S315000046F021EE000A624482ED000A82690CF1040C84
S315000047009342E7D31EE0836993421DD1D2B14FF0A5
S31500004710000C0023426890ED031A12F903E00269C7
S315000047200133AEEB020200EE102A0A68B8EEC00AA8
S3150000473021EE000A624482ED000A82690CF1040C43
S315000047409342E7D3002019E042F2B970C0F20200AA
S31500004750194610E043F2D540C0F202001946FFF7B1
S31500004760DAFEF2200AE0D81703EB9070811042F2CD
S31500004770B970C0F20200FFF7CEFEE82040B280BD5D
S3150000478020B130F8021C401A19F02CBA80B543F259
S315000047906F5042F6200243F25623C0F20200C0F2E6
S315000047A00202C0F202036B210AF078FEF0B581B076
S315000047B01D4616460F460446FFF775FB4FF47A7101
S315000047C0A0FB0101C7E90001276946F2015079689B
S315000047D02D68C0F20000884740B1014642F2F5104C
S315000047E0C0F20200FFF797FEFA2017E03A690020B0
S315000047F03146904708B1FD2010E0207B68B10026C5
S31500004800A0687A69805D294690470028F3D1207B0D
S315000048100136864205F14005F2D3002040B201B0D0
S31500004820F0BD10B5016804460020206011B1E268B1
S31500004830201D90472069416809B160688847204675
S3150000484010BDFCF797FDFCF795FDD4D42DE9F04F8C
S315000048509DB0DDF8A0B091469BF80C00DBF8106027
S3150000486080010C4619F042FA05460C90FFF71BFB37
S315000048704FF47A71A0FB0101CDE90A0100200590F1
S3150000488044F28170C0F2000006904BF23B30C0F259
S315000048900000089046F28020C0F2020009900AA9A2
S315000048A00DAA0CAB5846FFF781FF0746002840F0DB
S315000048B0A78026990DAA20460091FFF75BFE0746C2
S315000048C0002840F09D80DBF810000A9C0B9F806852
S315000048D08047049610B1FD20279E0BE0FFF7E3FA10
S315000048E04FF47A71A0FB0101001B279EB941C6E96E
S315000048F01401002003909BF80C00002875D04FF09F
S31500004900000A00BF05EB8A14A168086801280BDBC2
S3150000491004314FF0010800BF51F8042B013802FBA7
S3150000492008F8F9D102E000BF4FF00108217801290B
S3150000493032D0032910D0092969D15E469BF814B0FC
S31500004940102019F0D3F9BBF1010FB346279E074695
S3150000495040460BD026E000BF9BF81460102019F0EB
S31500004960C5F9002E279E074640461BD04FEA880011
S31500004970012119F027F9012187E80301B06E397387
S315000049800AEB090140F83170B06E50F8311020463C
S31500004990FFF782FE1AE000BF102019F0A7F90746BC
S315000049A04FEA8800012119F00DF9012187E803017A
S315000049B0B06E39730AEB090140F83170B06EA26926
S315000049C050F831006168006819F0CDF8B16EDBF877
S315000049D0040001EBC901504401EBCA0148609BF891
S315000049E00C000AF1010A82458CD30498C16844F28E
S315000049F08170C0F200008847284619F0F3F8039F3B
S31500004A0005A8FFF70EFF78B21DB0BDE8F08F43F2A0
S31500004A10D540C0F20200FFF77EFDF227F0E702E084
S31500004A2001E000E0FFE705A8FFF7FBFE16F08CFAB1
S31500004A302DE9F04F81B02DED108BA6B0409F0546B5
S31500004A40387B3C698001984616460B9119F04EF961
S31500004A500990139000200E9044F28170C0F200007D
S31500004A600F904BF23B30C0F20000119046F28020CE
S31500004A70C0F20200129024A914AA13AB3846FFF71D
S31500004A8095FE834650B10EA8FFF7CBFE4FFA8BF08A
S31500004A9026B0BDEC108B01B0BDE8F08F9DF850003C
S31500004AA0092802D0032840F0D181FFF7FCF9CDE9AF
S31500004AB00768DDF85480CDE90240AC69B8F1000F13
S31500004AC0CDF8108004D12046012119F07BF88046EC
S31500004AD0286CA96CC668CD68706942F65E619DED6A
S31500004AE0178A189FC0F20201019419F01FF80B995A
S31500004AF0CDF81880D1F81090B9F1000F00F061815F
S31500004B00834600EE107AB0686FF07F01B8EEC09A67
S31500004B109FEDEB0A7940800029430590B4EE408A68
S31500004B200020B1FA81F1F1EE10FA08BF012049091F
S31500004B309FEDE4AA9FEDE4BA9FEDE4CA9FEDE4DAA7
S31500004B409FEDE4EA9FEDE4FADFEDE48ADFEDE49A17
S31500004B50DFEDE4AADFEDE4BA002601EA000A49F235
S31500004B60456400200D9000BFB9F5806FCDF83090F8
S31500004B7028BF4FF480690598012100FB09F019F060
S31500004B8021F8002800F0658103460B9887680D9987
S31500004B904A469846B8470C98CDF8288000284046E3
S31500004BA0DDF8188049466FF07F0CA64600F0F880C5
S31500004BB090ED000ABBF1000FBCEEC00A10EE103AF1
S31500004BC04FEA134710D0BAF1000F08EB060229D0BE
S31500004BD087F08007802408F8067084EA132783F09C
S31500004BE080035770ACE000BFBAF1000FFAB241D0B3
S31500004BF0C3F30727DBB207FB0EF741F62F5413FB6F
S31500004C00047344F68B4412FB04320CEB124200EEA2
S31500004C10102AB8EEC00ABDEEC00A10EE102A02F342
S31500004C200702B5E0FFB2C3F30724DBB200EE107A49
S31500004C3001EE104A02EE103AB8EE400AB8EE411AFA
S31500004C40B8EE422AEDB3042D49D0022D57D180EE9D
S31500004C500A0A81EE0A1A82EE0A2A30EE0E0A31EEAE
S31500004C60281A32EE2A2A80EE0F0A81EE291A82EEDF
S31500004C702B2A44E0C3F30727DBB200EE102A01EE2D
S31500004C80107A02EE103AB8EE400AB8EE411AB8EEC3
S31500004C90422AEDB1042D56D0022D65D180EE0A0AC6
S31500004CA081EE0A1A82EE0A2A30EE0E0A31EE281A30
S31500004CB032EE2A2A80EE0F0A81EE291A82EE2B2A7C
S31500004CC052E080EE0A0A81EE0A1A82EE0A2A16E0FD
S31500004CD080EE0A0A81EE0A1A82EE0A2A44E0803F32
S31500004CE000EE107AA4F18007803B01EE107A02EE06
S31500004CF0103AB8EEC00AB8EEC11AB8EEC22A80EE73
S31500004D00080A81EE081A82EE082AB8FE400A30EE3A
S31500004D10090ABDEEC00A10EE103AB8FE410A30EE9E
S31500004D20090ABDEEC00A08F8063010EE103AB8FEC1
S31500004D30420A30EE090ABDEEC00A537010EE103A70
S31500004D400336937027E0803A00EE102AA7F180021E
S31500004D5001EE102AA3F1800202EE102AB8EEC00A74
S31500004D60B8EEC11AB8EEC22A21EE0B1A20EE0C0AD2
S31500004D7030EE010A22EE0D1A31EE000A80EE080A24
S31500004D80B8FE400A30EE090ABDEEC00A10EE102A3F
S31500004D9008F806200136013900F104007FF408AF57
S31500004DA00C9849F24564A0EB09090A9818F01AFF15
S31500004DB00B980D99006901F5806181420D91FFF410
S31500004DC0D3AEFFF770F803990027401A4FF47A71B3
S31500004DD0A0FB0102419B67F1000707FB0121089C2C
S31500004DE0C4E912013BB3616B42F68F20C0F20200A8
S31500004DF0FFF791FB019FC7B141F66F15C0F202059F
S31500004E00464600BF16F9010B18999DED171A401A70
S31500004E1000EE100AB8EEC00A21EE000AFFF792FB78
S31500004E202846FFF778FB013FECD142F6E640C0F298
S31500004E300200FFF770FBFFF736F805464098006959
S31500004E408068804790B14FF0FD0B1EE04FF0F70BE6
S31500004E5019E642F2FB704FF61641C0F20200CFF699
S31500004E60FF71FFF758FB4FF0FB0BA6E0FFF71BF8AF
S31500004E70401B4FF47A714FF0000BA0FB01026BF15F
S31500004E80000303FB0121C4E914014098007B0028BC
S31500004E9000F0898000264FF0010900BF099800EB59
S31500004EA0861ADAF80810086801281FDB0431012782
S31500004EB051F8042B013802FB07F7F9D117E000BFC0
S31500004EC08180803B00007F43A245163F8716993EAE
S31500004ED0D578E93DEC51F8BEFA7E6A3ED578E9BE52
S31500004EE04260653E3BDFCFBE6666663E01279AF8A6
S31500004EF0001001292CD003290CD0092969D140982A
S31500004F00047D102018F0F2FE0546012C384609D023
S31500004F1023E000BF4098047D102018F0E7FE054608
S31500004F203846D4B1B800012118F04CFE089CAF6099
S31500004F30079FC5E90009A06EF11985F80C9040F8A5
S31500004F403150A06E50F831105046FFF7A5FB1CE01B
S31500004F50102018F0CBFE0546B800012118F032FEED
S31500004F60089CAF60079FC5E90009A06EF11985F896
S31500004F700C9040F83150A06EDAF8182050F8310045
S31500004F80DAF80410006818F0EEFD409AA16E506839
S31500004F9001EBC701304401EBC6014860107B0136C6
S31500004FA08642FFF47BAF0298C16844F28170C0F27A
S31500004FB000008847099818F015FE049800287FF429
S31500004FC062ADB8F1000F3FF45EAD404618F00AFE40
S31500004FD059E543F2D540C0F20200FFF79CFA4FF0C4
S31500004FE0F20BEAE708E00EE006E005E004E00AE07E
S31500004FF0404618F0F7FDFFE7049820B9069810B16F
S31500005000069818F0EFFD0EA8FFF70BFC15F09CFFB5
S315000050102DE9F04F81B02DED028B86B007699468BB
S315000050200546B7FBF4F6884604FB06F04FF60A4938
S3150000503080000121B0EE408A9246CFF6FF794FF00C
S31500005040010B18F0BFFD02908DF814B0039604947E
S31500005050E0B1AE680346284600213A46B047DAF882
S31500005060200042F6E841C0F2020118F05FFD48BB9D
S31500005070BAF8040004280CD0012812D102A841462F
S315000050805246B0EE480A01F063FA1AE009F10C093B
S3150000509018E002A841465246B0EE480A01F032FB3B
S315000050A00FE0012702A841465246B0EE480A012306
S315000050B0009703F0D9FBD8F80810401A18BF09F179
S315000050C00A008146029828B19DF81410C90701D03C
S315000050D018F088FD484606B0BDEC028B01B0BDE86D
S315000050E0F08F029828B19DF81410C90701D018F066
S315000050F079FD15F029FF10B5044600F0EFFA606857
S3150000510018F070FD204610BD2DE9F04784B08246A8
S31500005110C068984690F84430DBB191460F460026A9
S31500005120002500BF816C3144D1E901420B69097D3C
S315000051300292CDE9001939462A46CDF80C80A047DF
S3150000514040B9DAF80C00013590F8441018368D4253
S31500005150E8D3002004B0BDE8F087D4D42DE9F04FA1
S315000051609FB0002800F04C8100294FF0EA0400F0BF
S315000051703F821746002A00F03B820546C068002899
S3150000518000F036820D91384670211E4618F0DDFC7F
S31500005190E868012490F85400C100012018F012FDBF
S315000051A0B8668046E86890F855100E2920D804FAAB
S315000051B001F144F6A40211421AD090F86110B9B96F
S315000051C0816C44F64D034A68C0F200039A420FD13F
S315000051D08C68617B61B190F83C10012908D1016CA3
S315000051E04BF2A1128968C0F20002914200F0A98137
S315000051F090F83C400120E10018F0E4FC002800F0A3
S3150000520001810146082000EB84001091CDF81C8036
S3150000521024F07FFC06960421064646F8081B014644
S31500005220099741F8044F074603911CB1A100304687
S3150000523018F08BFC04970F940B961E96FEF733FE20
S315000052400590E86890F83C10002900F0E3800026FD
S3150000525000214FF000081191149500BF006C06EB79
S31500005260C60281188058D1E903951390D1E90170DF
S315000052704C690E90C8690A921290102018F036FDFB
S315000052808246B800012118F09DFC0B9A01218AF88C
S315000052900C108AE8830091590023159342F806A062
S315000052A0D1B1CDF83080A84695192846A3461C46AC
S315000052B006F046F81599159411B115A806F040F8B0
S315000052C0D5F800A0BAF1000F00F02E81DAF8000040
S315000052D04546DDF830805C46002800F0FA801098DC
S315000052E0139A00EB460140F816A014984A60C0686D
S315000052F0119A8169CB4607EB0209894500F20781BD
S31500005300CDE917404BF2F920C0F200000D991B9031
S3150000531046F25010C0F20200CDE915151C9015A8F2
S3150000532000F0C3F905461298002814983CD048F2BC
S315000053303060C2F201000078A8B943F2766042F606
S315000053400551C0F20200C0F20201FFF7E4F843F291
S31500005350EC10C0F20200FFF7DEF848F230610120DF
S31500005360C2F201010870149A5068805970B9116828
S315000053700A9A086C91ED0E0A0244D068D2699047E9
S31500005380149A5168885150688059B8B3D168026838
S3150000539091ED0E0A57682946099D52465B460095CF
S315000053A0B847014609E000BFC06890ED0E0A0E9BA3
S315000053B0284651465A469847014649B142F2FB7083
S315000053C0C0F20200FFF7A7F8FB200024089002E0D5
S315000053D00124CDF844901C98149D416809B1199890
S315000053E08847002C00F09B80E86808F1010890F8D7
S315000053F03C1004368845FFF431AF0BE0F520E4E7B6
S31500005400EA24F5E041F65170C0F20200FFF783F896
S31500005410F824E7E0DDF840A0FEF745FD099C069B71
S3150000542005990027401A4FF47A71A0FB010267F133
S31500005430000707FB0121C4E91201D3B3616B42F6F1
S315000054408F20C0F20200FFF766F80F98AB4638B31C
S3150000545042F6E64841F66F190026C0F20208C0F28D
S31500005460020900BF5AF83670B7B1B86888B100248F
S31500005470002500BF3868204490ED000AFFF762F867
S315000054804846FFF748F8B8680135854204F1040438
S31500005490F0D34046FFF73FF80F9801368642E1D138
S315000054A043F66F10C0F20200FFF735F8099C069B21
S315000054B05D46284651462246FFF726FE28B928466D
S315000054C02146FEF7C3FF00287CD0DDF81C80044689
S315000054D07EE042F64A40C0F202004146FFF71BF862
S315000054E0039FDDF81C803868DDF840A0049E48B1B3
