S026000064656D6F456C656374726F6E69634E6F7365416C6C53656E736F72332E322E7372656396
S315000000002010002091510000255000009B51000057
S315000000109B5100009B5100009B5100009B5100002A
S315000000200000000000000000000000009B510000DE
S315000000309B510000000000009B51000011090000C8
S3150000004075480000014A0000194B0000FD4B0000F6
S3150000005097400000C73F00001F4100006B410000B1
S315000000603537000037380000D9380000EB3900007A
S315000000708048010106570000855500000000000079
S31500000080000000001B330000613300004000350013
S3150000009010B541F23C04C2F20004207808B10020F9
S315000000A010BD00F03FFD00B110BD40F20100C2F2EC
S315000000B00000007800F093FD002818BF10BD012055
S315000000C041F23E012070C2F200010020088040F299
S315000000D00001C2F2000180220A7010BDA0F14C019D
S315000000E0C9B2FC293CBF0120704741F23C01C2F273
S315000000F00001097840F20102C2F2000201291070E3
S315000001001CBF0020704700F06ABD40F20100C2F239
S315000001100000007870474FEA702105298FBF012043
S3150000012041F23E01C2F20001088098BF00207047EC
S31500000130C1061CBF0120704740F20001C2F2000157
S3150000014008700020704741F23C02C2F200021278A9
S31500000150012A1CBF0720704780B582B08DF80500C4
S31500000160080A8DF8060040F20100C2F2000000788D
S315000001708DF8071000F033FD28B90DF105000321B5
S31500000180002200F096FD02B080BD10B582B00C468C
S3150000019001464FF00100F4B141F23C02C2F2000206
S315000001A01278C2B140F20100C2F2000000788DF868
S315000001B0071000F014FD70B90DF107000DF10502EE
S315000001C00121022300F0E9FD28B9BDF8050000BAB7
S315000001D0000C2080002002B010BDD4D470B582B0CF
S315000001E00C46014603284FF0010025D824B341F2FE
S315000001F03C02C2F200021278F2B1481EC1B20329D3
S315000002004CF203114DF20312CFF6FF71CFF6FF72D7
S3150000021038BF02EB003141F23E00C2F2000040F26C
S3150000022000050088C2F200052A780843104381B20F
S315000002300120FFF788FF08B102B070BD28784FEAA9
S315000002407010072806D845F25031C0F2000151F867
S31500000250206000E0142600200DF10605ADF806002A
S3150000026001202946FFF791FF0028E5D1BDF90600D8
S31500000270002808D401204FF47A7104F08DFE013E67
S31500000280EED11420D8E701A90020FFF77EFF002851
S31500000290D2D1BDF8040020800020CDE741F23E0116
S315000002A0C2F2000109884FF0FF3202EB71210429E6
S315000002B006D845F27032C0F2000232F8111001E0A1
S315000002C04FF4C05181FB000100294FF4804144BF27
S315000002D04CF20001CFF6FF710844C11700EB514004
S315000002E0C013704710B530B1044600202146FFF711
S315000002F075FF10B110BD012010BDA11C0120FFF734
S315000003006DFF0028F6D1211D0220FFF767FF0028A8
S31500000310F0D1A11D0320BDE81040FFF75FBFB0B5C7
S3150000032082B041F2AC400124C2F200000DF1070296
S3150000033000218DF80740002503F05CFFA8B99DF861
S31500000340071040F20202C2F20002117040F20302EC
S31500000350C2F20002117041F24001C2F200010D60CA
S3150000036041F24401C2F200010C7002B0B0BDB0B55A
S3150000037082B0054601208DF8070099B30020087069
S3150000038041F24400C2F2000000780C46012828D150
S3150000039041F2AC40C2F200000DF10702002103F069
S315000003A029FFF8B940F20200C2F200009DF80710DA
S315000003B00278914218D141F24000C2F20000006872
S315000003C0281A14284FF000000CD340F20302C2F2A0
S315000003D0000213788B4205D0117019B901202070E4
S315000003E008E0072002B0B0BD017041F24000C2F241
S315000003F0000005600020F5E740B10079022805D12C
S3150000040041F24800C2F2000001210160704710B5B8
S3150000041041F24C04C2F20004207808B1002010BD5D
S3150000042045F69401C0F2000107C91268904700B171
S3150000043010BD012041F248012070C2F200010020E7
S31500000440086010BD80B110B5044604F05BFF68B1CA
S31500000450024645F69400C0F20000816800688B6889
S315000004602146984720B110BD01207047012010BDDC
S3150000047041F24801C2F2000108680028FCD00020C1
S31500000480086010BD48B141B102F1010C8C4504D29F
S3150000049083540021624600F80C1010467047D4D4ED
S315000004A09446F3B11A78E2B1B0B5B0FA80F5B1FA74
S315000004B081F46D09640945EA040E0133002400BF86
S315000004C0BEF1000F07D10CF101058D423EBF00F8C9
S315000004D00C204455AC4613F8012B002AF0D1BDE898
S315000004E0B04060467047D4D49446CBB370B583B061
S315000004F04CF6CD450024CCF6CC450DF1020E00BFDE
S31500000500A3FB0526F60806EB8602A3EB420242F0A1
S3150000051030020EF804200A2B04F1010203D3092C41
S3150000052014463346ECD3B0FA80F3B1FA81F45B0992
S3150000053064092343AEF1010E002400BF4BB90CF150
S3150000054001058D4205D21EF80260445500F80C6084
S31500000550AC46013AF2D103B0BDE870406046704740
S315000005600028FBD00029F9D00CF101028A42F5D20D
S31500000570302100F80C10002194468154EEE7B3F1C7
S31500000580FF3FC8BFFFF7B0BF78B171B102F1010CF0
S315000005908C450AD280B54FF02D0E00F802E00022FD
S315000005A000F80C206246BDE880405B42FFF79CBF26
S315000005B0F0B581B0B2EE041A20EE011AB6EE002AAA
S315000005C031EE022ABEEE003AB5EE400A31EE031ACB
S315000005D0F1EE10FAB8BFB0EE412ABDEEC20A10EE37
S315000005E0107A0C46B7F1FF3F05460ADC45B13CB12F
S315000005F0501CA04204D22D21A954002102462954A0
S315000006007F424CF6CD40CCF6CC40A7FB0001CE088D
S31500000610284621463346FFF767FF024645B13CB1FF
S31500000620501CA04204D22E21A9540021024629546E
S3150000063006EB8600A7EB40032846214601B0BDE83D
S31500000640F040FFF751BF90B189B1B0B502F1010E8C
S3150000065045F201458E45C0F200050AD21C092C5D03
S3150000066002F1020C8454002400F80E4003E0944684
S315000006700FE0F44696468C4508D203F00F01695CFC
S3150000068000F80E10002100F80C1000E0F446BDE85A
S31500000690B04060467047D4D4E8B1B0B5A0B0047895
S315000006A08C464FF0000E8DF800E0B4B101306B4679
S315000006B0002200BF511C7F299EBF9C5403F801E015
S315000006C00A4610F8014B002CF4D1BCF1000F0FD5EF
S315000006D07E2A07D90AE001207047BCF1000F4FF0CF
S315000006E0000205D568462D2181520132CCF1000C5D
S315000006F06D46284680216346FFF7F6FE45F27052A6
S315000007004FF0000C0D21C0F200020023441C7F2C88
S315000007109EBF295405F804C02046D11801334978F4
S31500000720022BF3D16846FFF78DFE20B0B0BDD4D4BE
S31500000730B0B5A8B045F2E44E4FF0000C5B200121A5
S315000007406D46C0F2000E00228DF800C0531C9F2B90
S315000007509EBFA85405F803C01A461EF801000131D1
S315000007600A29F3D141F29440C2F2000003682846F8
S31500000770A021FFF7B9FE45F27A7304462C21012029
S315000007804FF0000CC0F20003621C9F2A9EBF295541
S3150000079005F802C01446195C01300B28F4D141F269
S315000007A09840C2F2000003682846A0212246FFF7BF
S315000007B09BFE45F2AA6304462C2101204FF0000C53
S315000007C0C0F20003621C9F2A9EBF295505F802C08D
S315000007D01446195C01300B28F4D141F29C40C2F258
S315000007E0000003682846A0212246FFF77DFE45F259
S315000007F0B93304462C2101204FF0000CC0F200034F
S31500000800621C9F2A9EBF295505F802C01446195C32
S3150000081001300B28F4D141F29240C2F20000037875
S315000008202846A0212246FFF75FFE45F2B57304462F
S315000008302C2101204FF0000CC0F20003621C9F2AFD
S315000008409EBF295505F802C01446195C01300E28D2
S31500000850F4D141F29340C2F2000003782846A02169
S315000008602246FFF741FE45F270524FF0000C0D2173
S31500000870C0F20002002300BF441C9F2C9EBF2954D7
S3150000088005F804C02046D11801334978022BF3D16C
S315000008906846FFF7D7FD28B0B0BD10B541F24D044C
S315000008A0C2F20004207848BB052004F030FB38B3C0
S315000008B044F6D351C1F26201A0FB01014FF0FF30B3
S315000008C000EB91120021B1EB126F4FF0010018BF3F
S315000008D010BD4EF21003CEF200034EF6235C5A60B2
S315000008E0CEF2000CF0228CF80020072299601A60E4
S315000008F041F25002C2F2000211602070002010BDC9
S31500000900012010BD41F25000C2F20000006870479D
S3150000091041F25000C2F200000168013101607047E7
S3150000092082B000208DF8070001F0F4FA08B100BF8C
S31500000930FEE701F0FCFA01F0F3FD41F25404C2F2C5
S315000009400004204601F0E1F905462046294601F05B
S3150000095001FE05B1FEE7FFF7A0FF00B1FEE7FFF7D6
S31500000960DEFC00B1FEE702F063FE00B1FEE741F2F5
S31500000970540041F2C831C2F20000C2F2000101F097
S315000009800BFA68B1044601F0C5FD78B945F28B5003
S31500000990C0F200002146FFF77FFEFFF7C9FE05E023
S315000009A041F2C830C2F2000001F094FEFFF7AAFF40
S315000009B041F2540941F2C83A45F28B5805460026E1
S315000009C00DF10704C2F20009C2F2000AC0F20008E3
S315000009D0FFF798FF07468DF8076002F09DFE20B1ED
S315000009E038462146FFF7C3FC20BB9DF80710384662
S315000009F002F03BFEE0B9781BB0F57A7FE8D34846B3
S31500000A00514601F0C9F968B1834601F083FD00281B
S31500000A103D46DDD140465946FFF73EFEFFF788FECC
S31500000A203D46D5E7504601F055FE3D46D0E700BFAE
S31500000A30FEE700BFFEE7022818BF704741F2AC4050
S31500000A4045F66C11C2F20000C0F2000103F0C7BB0C
S31500000A5041F29441C2F200010A6802F101020A6001
S31500000A60D0B1007902282ED0032843D141F290401C
S31500000A70C2F200000121017041F29140C2F2000071
S31500000A800022027041F29240C2F20000027041F26E
S31500000A909340C2F2000043E041F29340C2F20000EC
S31500000AA00321017041F29240C2F20000012101705F
S31500000AB041F29040C2F200000021017041F29140E3
S31500000AC0C2F200002CE041F29040C2F20000002188
S31500000AD0017041F29140C2F200000122027041F21F
S31500000AE09240C2F20000017041F29340C2F200004F
S31500000AF0022115E041F29040C2F20000002101708F
S31500000B0041F29140C2F20000017041F29240C2F2FD
S31500000B1000000121017041F29340C2F2000003215E
S31500000B200170704710B541F2A044C2F2000420786B
S31500000B3000284FF0000020D141F29041C2F200019E
S31500000B40087041F29141C2F20001087041F29241EF
S31500000B50C2F20001087041F29341C2F2000108702E
S31500000B6045F6D001C0F2000107C912689047002877
S31500000B7018BF10BD01202070002010BDF0B581B057
S31500000B8041F29C40C2F20000016841F2A0460131E8
S31500000B900160C2F2000645F6D0003178C0F20000CE
S31500000BA0876891B1D0E90045F96820468847F96918
S31500000BB0204688470020307001204FF47A7104F0F7
S31500000BC0EBF93A682046294602E03A68D0E9000186
S31500000BD0904710B901203070002001B0F0BD41F2FD
S31500000BE0A041C2F20001097801291CBF0720704705
S31500000BF0014645F6D000C0F200008268006813691D
S31500000C000122184770B5B0B141F2924641F29045C3
S31500000C100446C2F20006C2F2000500BF3078012881
S31500000C2014D02878012815D001204FF47A7104F0E9
S31500000C30B3F9013CF2D141F29840C2F200000168DA
S31500000C4001310160FFF79AFF142070BDFFF796FF90
S31500000C50122070BD0020287070BDD4D470B5B0B11C
S31500000C6041F2924641F291450446C2F20006C2F2B2
S31500000C70000500BF3078012814D02878012815D047
S31500000C8001204FF47A7104F087F9013CF2D141F268
S31500000C909840C2F20000016801310160FFF76EFF63
S31500000CA0142070BDFFF76AFF122070BD0020287067
S31500000CB070BD944641F2A042C2F200021378012BA5
S31500000CC008D10A46014600284FF0010018BF002A45
S31500000CD002D170470720704780B541F29040C2F2BA
S31500000CE000000023037041F29140C2F2000003703D
S31500000CF041F29240C2F20000037041F29340C2F208
S31500000D000000037045F6D000C0F20000836800685A
S31500000D10D3F808E06346F0470028BDE88040D8D104
S31500000D206420FFF76FBF944641F2A042C2F2000270
S31500000D301378012B08D10A46014600284FF001001E
S31500000D4018BF002A02D170470720704780B541F2CC
S31500000D509040C2F200000023037041F29140C2F2BB
S31500000D600000037041F29240C2F20000037041F2AB
S31500000D709340C2F20000037045F6D000C0F20000B6
S31500000D8083680068D3F804E06346F0470028BDE8AE
S31500000D908040D8D16420FFF761BFB0B5154641F257
S31500000DA0A042C2F200021278012A0ED102460028A1
S31500000DB04FF0010008D039B135B11C4623B11046B9
S31500000DC00022FFF776FF10B1B0BD0720B0BD284660
S31500000DD021460022BDE8B040FFF7A5BF48B100217B
S31500000DE00170C0F80610C0F80210C0E90311C0E98E
S31500000DF00511704738B3B0B582B0044600202546C9
S31500000E00207045F8020FC4F80600C4E90300C4E9DF
S31500000E1005006846FFF766FA98B9DDE900106860D4
S31500000E202960002504EB4500B0F90200FFF736FA09
S31500000E3004EB85010135042DC860F3D10120207033
S31500000E40002002B0B0BD01207047002814BF007812
S31500000E50002000F00100704770B5054600284FF0ED
S31500000E60010055D00E46002952D01446002A4FD014
S31500000E7000202080A07060602846FFF7E6FF207003
S31500000E8088B105F10C00002100EB410232F80A2C72
S31500000E906AB950F8212052B901310429F4D102204F
S31500000EA00221022230E00121022001222CE03168D9
S31500000EB0002910D4002200BF50F82230002B00D5A4
S31500000EC05B428B4203D8032A02F10102F4D18B4222
S31500000ED001D8042212E06888E96805F110020023AF
S31500000EE002EB430636F80C6C86420AD152F82360B0
S31500000EF08E4206D10133032BF2D1082202210120B2
S31500000F0002E000200021002260700020A1706260D3
S31500000F1070BD20B180B5582104F0DFF980BD70475F
S31500000F2018B10A21C0F20501016070474FF00102B5
S31500000F30E8B1E1B180B54FF0000C002351F803E0B1
S31500000F40C2180433102BC2F804E0C2F814E0C2F849
S31500000F5024C0C2F834C0C2F844C0EFD140F2011137
S31500000F60C0F20011002201604265BDE880401046D3
S31500000F70704720B10021C0E90D11C0E90F1170477B
S31500000F8070B5044600284FF001006AD00E460029CD
S31500000F9067D01546002A64D03046FFF756FF002872
S31500000FA060D06078002861D006F10C00002100BFF7
S31500000FB050F8212004EB8103013104295A61F7D14D
S31500000FC0002000BF04EB80014A684B6901309A1A81
S31500000FD004284A62F6D100204FF47A7104EB8002AD
S31500000FE053682BB1566A06FB01F696FBF3F300E055
S31500000FF00023013004285364F0D1002004EB800163
S315000010004A6A4B6B01309A42C8BF4A630428F5D13D
S315000010102888092154F82120824203DA0C2901F19B
S315000010200101F7D182424FF00000A8BF0120A07055
S315000010306888092154F82120002A00D552428242AC
S3150000104003D80C2901F10101F4D182424FF00000CE
S3150000105098BF0120616DE0700120207000200131F1
S31500001060616570BD00202070032070BD00202070D7
S31500001070072070BD48B180B5002101808170043021
S315000010804FF4037104F029F980BD704758B180B55B
S315000010903C214FF0000E14220A234FF0050C80E885
S315000010A00E50BDE880407047F0B581B04FF00107A3
S315000010B0D8B10D46C9B106462868A8B168681F3878
S315000010C010F11E0F10D3A86801280DDB0027301D74
S315000010D04FF403713780B77004F0FFF806F11C0077
S315000010E095E85E005EC000E00327384601B0F0BD1B
S315000010F02DE9F04188B0044600284FF0010000F0C9
S31500001100DF800E46002900F0DB809046002A00F0C2
S31500001110D7801F46002B00F0D380207805AA02282E
S3150000112004BF03202070E16A0020A0706060A06008
S31500001130079107A93046FFF78FFE002840F0C080D0
S315000011409DF815000125012808BF022506990228E9
S315000011502078616008BF03250328657030D0012818
S3150000116018D0002840F0AB80E068E1690130E0600B
S3150000117088424FF00100C0F0A18020700220A070CC
S31500001180002704F130004FF4F071276104F0A5F850
S31500001190C4E90577012D24D12169206A81422AD22A
S315000011A004EB011306F10C023033002752F82760D6
S315000011B043F827600137042FF8D1013121613CE063
S315000011C0022D57D0012D71D10020C4E905004046FB
S315000011D031463A46FFF7D4FE0028A06070D10720BA
S315000011E06CE00020206104F130004FF4F07104F04F
S315000011F074F8042062E0022810D30121224600BFC1
S31500001200002300BF02EB83073D6C0133042B3D63D3
S31500001210F8D10131814202F11002F1D104EB001044
S3150000122006F10C012030002251F8223040F822301D
S315000012300132042AF8D12169206A814201D20320B1
S315000012403CE0204600F040F8B8B301A9204600F083
S3150000125073F8A8BB01A94046FFF768FEA06078BBFB
S315000012604046FFF786FE0020C4E9050002202070F4
S31500001270062023E06069A16A421C0020C4E905201B
S315000012804FF00800D1B18A4218D94046FFF741FE17
S3150000129004F130004FF4F07104F01FF800202070C4
S315000012A0C4E90300C4E905000A2007E0A06900219B
S315000012B00130C4E90510092000E00520A0700020D7
S315000012C008B0BDE8F081D4D484460069DCF820205B
S315000012D090424FF0000038BF70472DE9F043DCF82C
S315000012E024900CF13008A2F1010E0CF14006002406
S315000012F058F82450022A0FD333467746284600BFB3
S3150000130053F8101B8142B8BF0846A942C8BF0D4614
S31500001310013FF5D101E000BF2846281A48454FF0A5
S315000013200000B8BF012004DA0134042C06F10406DB
S31500001330DED1BDE8F04370472DE9F04F9EB0D0F8FE
S3150000134020A0AAF11F0313F11E0F01D2032053E0C0
S3150000135000F130084FF0FF304FEA5A0E00EB5A0CFE
S315000013604FF000096C4600BF0020454655F8103B7B
S3150000137044F8203001308245F8D1BAF1020F1BD370
S3150000138001254FF0000B00BF54F825705E4600BFE4
S3150000139054F82630BB4207DD04EB8602013E701C82
S315000013A05360F5D1002300E0731C013555450BF160
S315000013B0010B44F82370E7D15FEACA7010D154F8E4
S315000013C02E0054F82C20C317801843EBE27210EB62
S315000013D0D27042F100025FEA62024FEA300001E099
S315000013E054F82E0041F8290009F10109B9F1040F5A
S315000013F008F10408B8D100201EB0BDE8F08FD4D49F
S315000014002DE9F04749BA01808BB300F1010C4FF08A
S31500001410020E4FF00008312402EB4801497800EB38
S315000014200E0900F80E1012F81810FF264FF0000AE9
S315000014300CF80E1019F80A104E40082135466FB206
S315000014407600002FA1F1010148BF84EA45060D068A
S31500001450F4D10AF1010ABAF1020FEBD108F1010841
S315000014600EF1030E984589F80260D5D101E04FF0E0
S31500001470020E1FFA8EF0BDE8F087D4D42DE9F047AE
S3150000148090B08A4602EB42011FFA81F9E8461746F8
S3150000149041464A4600F078F898BB77B34FF0000E05
S315000014A03121002208EB0E0393F802C0FF26002527
S315000014B05C5D6640082400BF374678B27600002897
S315000014C0A4F1010448BF81EA47062006F4D101359C
S315000014D0022DEDD1F0B2604511D118F80E0097B289
S315000014E00AF8070058780EF103031FFA83FE1AFA6A
S315000014F082F60232CE457070D4D3002001E04FF65A
S31500001500FF7000B210B0BDE8F087D4D470B51646AF
S315000015100D46FFF7B3FF68B966B10021CAB235F8C8
S3150000152012300131CCB21BBAA6424FEA134325F85A
S315000015301230F3D870BD80B582B049BAADF8061046
S315000015400DF10601022200F05BF802B080BDB0B5D5
S3150000155088B06D460446DBB22846FFF751FF0246C7
S315000015602046294600F04CF808B0B0BD10B541F24F
S31500001570A144C2F20004207810B9FFF7D3FA00B1F3
S3150000158010BD0120207010BD70B506464FF0FF005B
S3150000159091B1144682B145F6D000C0F200000D4666
S315000015A0816800680B6931460122984718B93046B0
S315000015B000F00EF810B1FF2040B270BD284621465B
S315000015C00022FFF7B0FB002818BF4FF0FF30F3E70B
S315000015D0B0B541F2A145C2F200052978044631B9F9
S315000015E0FFF7A0FA08B1FF2008E001202870204686
S315000015F0FFF7F5FA002818BF4FF0FF3040B2B0BD34
S3150000160070B506464FF0FF0091B1144682B145F61B
S31500001610D000C0F200000D46816800680B693146B3
S315000016200122984718B93046FFF7D2FF10B1FF20C4
S3150000163040B270BD284621460022FFF73AFB00283B
S3150000164018BF4FF0FF30F3E7B8B144F6D351C1F2FB
S315000016506201A0FB011291094FF47A7301FB13009A
S315000016600123002818BF03EB9211012998BF1946E0
S3150000167008464FF47A7103F08FBC704780B54FF47B
S31500001680C80E4FF440224FF434034FF4481C002197
S31500001690C0E900E2C0E9023CC0E904118161BDE88D
S315000016A0804000F000B8F0B581B0044640F28D40AD
S315000016B0122100F009FA271D83CF0026E16100F10F
S315000016C0120140F28D4004F13C05C4E91466A6659A
S315000016D084F82060C4E90966E76200F0F5F940F68F
S315000016E03141C0F2030104F1300340F28D6207C3B9
S315000016F02846142103F0F1FD206804F1640340F646
S3150000170031418322C4E9177607C384F8706001B0BB
S31500001710F0BD2DE9F04F85B00546006948F2000A94
S315000017209146B0F5341FCFF6FF7A04DC00F5803021
S31500001730AE692861B8E1481E4FF6E752904212D2D0
S315000017404CF61F600022814238BF0846CBF2E012F9
S3150000175002EB004B44F62160814238BF4FF4803BD8
S31500001760C5F814B001E0D5F814B0D5E91710002279
S31500001770CFF62472ABEB0000511A00F0A5F94FF436
S31500001780660100F0DFF90646A0F555014FF65660F2
S31500001790CFF6FF7000F0D6F90446AAF5461084424B
S315000017A002DA4FF0FA7834E0B4F5481F02DD4FF064
S315000017B000082EE0696E002E17D44FF4A02000F02A
S315000017C0C1F9C0F1FA704FF4802100F07DF90646A8
S315000017D000F1FA77204600F03BFA00F580313846F2
S315000017E000F072F9A0EB060813E008464FF4C801B2
S315000017F000F06AF90646204600F02AFA00F5803124
S315000018004FF0FA7000F060F90146304600F09AF9A0
S31500001810804695F8700010B1D5E91D1406E0012048
S3150000182044464146C5F87C8085F87000AF6EC7F522
S31500001830803000F087F906463846414600F082F9C6
S315000018408719EE6E2146C6F580306F6700F07AF98B
S3150000185004463046414600F075F92044391AA86717
S315000018604CF6CD40CFF6FF7048BF494200F06AF90A
S3150000187000F0EEF901464FF0F07000F063F900F564
S31500001880A8114FF4803000F01FF9E96F0446C0F547
S31500001890803000F057F906462046414600F052F9DE
S315000018A00644B6F5004FEE67D8BF4FF40046BBF1CD
S315000018B0010FAE61C0F2F88095F82000002800F014
S315000018C0E980D5E90921A2F5C80010F5480F9EBFA9
S315000018D011440022C5E909216C6C0020C7F6FE7090
S315000018E08442BCBF04F580346C64AF6CCDE903213F
S315000018F0874240F200004FF4803140F28F22C0F65A
S315000019008C20CDE901B9BCBF07F58037AF64C5E9C6
S315000019101412A8652846214600F07EF9D5E90C91F7
S315000019208346A1EB0900594600F00CF900EB0908C3
S315000019302846394600F070F901464FF42A0000F0B7
S3150000194001F900F1AA7041F20A71C5E9151028469D
S31500001950314600F061F94146824600F0F3F8009006
S31500001960E86300204FF48031C1F26440296540F2FB
S315000019708F21C5E915102846214600F04DF9A96BBF
S31500001980A1EB0902A0EB0B01104600F0DBF800EB1F
S3150000199009042846394600F03FF901464FF42A006B
S315000019A000F0D0F800F1AA7041F20A71C5E91510ED
S315000019B02846314600F030F9214600F0C3F844F6D7
S315000019C0CD4183462864EC6CCAF58030C0F2010133
S315000019D000F0B8F844F6CD41411A40F2444000F018
S315000019E0B1F82044E96920EAE0708842E864C4BF9F
S315000019F00020A864DDE9031008440199081A4FF491
S31500001A00800100F061F8D5F82C80DDF808900446D6
S31500001A10002800D5604240444FF48037B0F1B46FDF
S31500001A20C8BF4FF48027CBF58001384600F08AF80E
S31500001A3000F0BAF882464FF48000394600F082F88A
S31500001A400146404600F040F80146404600F07AF86C
S31500001A5080465846214600F075F8394600F034F8BD
S31500001A60214600F06FF8404400F09EF801465046CB
S31500001A7000F068F80746E8620098214600F062F830
S31500001A80039948F2000ADDF810B00844CFF6FF7A51
S31500001A90686206E0012085F820000020EF6AC5E9AB
S31500001AA0090B5844C5E9177006F50040000CBAEB5F
S31500001AB006014FF00002C8BFA2EB1140C9F80000B2
S31500001AC005B0BDE8F08FD4D459B310B500288646CA
S31500001AD001D5C0F1000E00290A4600D54A424FF44E
S31500001AE08033724508D200BFBEEB420F4FEA420276
S31500001AF04FEA4303F8D813B3D40F22FA04FC98B183
S31500001B00E3400022BEEB0C0434BF74461A43022B9A
S31500001B104FEA440E09D3BEF1000F4FEA5303F1D149
S31500001B2003E04FF0004208E00022E64528BF0132FC
S31500001B30484048BF5242BDE81040104670474FF03B
S31500001B400042F8E70028844601D5C0F1000C0029C0
S31500001B500B4600D54B42B0B54FEA1C4E1A0C1FFA85
S31500001B608CFC9BB202FB0EF502FB0CF203FB0E2271
S31500001B7003FB0CF3140C13EB024344EB05020025A4
S31500001B80B5EBD23F0CD113F5004F28BF013203F558
S31500001B900045120442EA1542484048BF524201E05D
S31500001BA04FF000421046B0BD4FF080410B468142D7
S31500001BB04FEA9101FAD880B548F2000C00224FF0A6
S31500001BC0010ECFF6FF7C00BF63B100BF9918411A22
S31500001BD028BF084603EB520138BF51089B080A4646
S31500001BE0F4D100E011465FEACE7210D0B0F5803F26
S31500001BF006D3401A09040CEB004001F5004201E04F
S31500001C0000040A044FF480434FF0000EDCE78842DC
S31500001C1088BF0131084680BD10B50446D0E91502DB
S31500001C20891AFFF78FFF10F5481F01DA206D10BDE6
S31500001C30B0F5481FC4BF002010BD246D00F008F8A1
S31500001C4000F580312046BDE81040FFF73DBFD4D4F3
S31500001C5046F2AE51C0F20A018842C4BF6FF000409E
S31500001C60704743F26E71CFF6F4718842BCBF002014
S31500001C7070472DE9F0410028054600D5454245F656
S31500001C80500845F64001C0F2000800284FF480379E
S31500001C904FF000064FF48030C0F2000148BF88467E
S31500001CA0BD4207D358F826402146FFF74BFFED1BF0
S31500001CB0BD42F9D20136042E4FEAD70708BFBDE868
S31500001CC0F081EDE700B310B54FF45D71044603F003
S31500001CD004FB2046FFF782F804F11C00FFF719F910
S31500001CE004F17400FFF71CF904F52270FFF7CEF932
S31500001CF004F17800FFF7BEF9002084F87003C4E908
S31500001D00D900C4F86C0310BD7047B0B54FF240441B
S31500001D10CFF6FF7468B10546FFF7D4FF05F17800EA
S31500001D2005F52271FFF7C0F928B1C5F86803053437
S31500001D302DE008342DE0FEF7ABF918B1C5F86803BD
S31500001D40043424E04820FEF7C9F918B1C5F8680341
S31500001D5003341CE00020FEF7DEF918B1C5F868036D
S31500001D60023414E08020FEF7E3F918B1C5F86803E1
S31500001D7001340CE005F5277001F0AEFBC5F86C03E5
S31500001D8028B900240120C5F8604385F87003C5F81A
S31500001D9064432046B0BDD4D42DE9F0410D464FF240
S31500001DA04741CFF6FF710446002801F1010018BF34
S31500001DB0002D01D1BDE8F08194F870030128084692
S31500001DC0F8D12846C82103F088FAD4F86003013018
S31500001DD0C4F8600328602046FFF70CF8804604F13B
S31500001DE0780004F11C0204F174032146FFF780F920
S31500001DF004F527760746304601F09EFB21782971C7
S31500001E00217F6971617FA971A17FE971E17FC5E9D0
S31500001E1003872972D4F880100746696194F8781010
S31500001E200020297694F87910697694F87A10A976C4
S31500001E30E16FE961D4F884102962D4F888106962E8
S31500001E40D4F88C10A962D4F89010E962216F296346
S31500001E50211849882A18918604EB4001CA6805EBC7
S31500001E604003DA630A6A0230DA640A6C0828DA6523
S31500001E700A6EDA66096DD967EAD13046C5F8907000
S31500001E8001F0D0FB85F89400B7FA87F0400985F891
S31500001E908C00304601F0C2FBB8B10168C5F8981055
S31500001EA04168C5F89C108168C5F8A010C168C5F8DE
S31500001EB0A410018AA5F8A8104169C5F8AC1081697B
S31500001EC0C5F8B010007F85F8B40041F29440C2F224
S31500001ED00000006841F2984141F29C42C2F20001C2
S31500001EE0C2F2000205F1B8030968126807C341F29D
S31500001EF09240C2F20000007885F8C40041F2934097
S31500001F00C2F20000007885F8C5000020C4F864031A
S31500001F10BDE8F08141F2A240C2F20000002101704A
S31500001F2041F2A340C2F200000170FEF770BA41F21E
S31500001F30A240C2F200000178012906D100210170F9
S31500001F4041F2A340C2F2000001700020704741F246
S31500001F50A240C2F20000017809B1002070470121B9
S31500001F60017041F2A340C2F200000021017000F0AE
S31500001F7001B8D4D42DE9F04FADF5417D41F2A3402F
S31500001F80C2F2000000780024002840F0BE8245F22C
S31500001F908C3301ADC0F2000328464FF44071002295
S31500001FA08DF80440FEF77CFA024628464FF440714D
S31500001FB02C23FEF767FA45F2C4330246C0F200034B
S31500001FC028464FF44071FEF76BFA024628464FF456
S31500001FD040712C23FEF756FA45F2EF530246C0F243
S31500001FE0000328464FF44071FEF75AFA0246284687
S31500001FF04FF440712C23FEF745FA45F29F43024603
S31500002000C0F2000328464FF44071FEF749FA024633
S3150000201028464FF440712C23FEF734FA45F220434C
S315000020200246C0F2000328464FF44071FEF738FA24
S31500002030024628464FF440712C23FEF723FA45F258
S3150000204095330246C0F2000328464FF44071FEF76E
S3150000205027FA024628464FF440712C23FEF712FA5F
S3150000206045F22E430246C0F2000328464FF4407163
S31500002070FEF716FA024628464FF440712C23FEF767
S3150000208001FA45F631030246C0F2000328464FF432
S315000020904071FEF705FA024628464FF440712C239C
S315000020A0FEF7F0F945F253530246C0F20003284604
S315000020B04FF44071FEF7F4F9024628464FF440719A
S315000020C02C23FEF7DFF945F200630246C0F2000357
S315000020D028464FF44071FEF7E3F9024628464FF4CE
S315000020E040712C23FEF7CEF945F292730246C0F2F8
S315000020F0000328464FF44071FEF7D2F902462846FF
S315000021004FF440712C23FEF7BDF945F2AF5302465A
S31500002110C0F2000328464FF44071FEF7C1F90246AB
S3150000212028464FF440712C23FEF7ACF945F20963BB
S315000021300246C0F2000328464FF44071FEF7B0F99C
S31500002140024628464FF440712C23FEF79BF945F2D0
S3150000215012630246C0F2000328464FF44071FEF7B0
S315000021609FF9024628464FF440712C23FEF78AF960
S3150000217045F2C3730246C0F2000328464FF440718D
S31500002180FEF78EF9024628464FF440712C23FEF7DF
S3150000219079F945F2FD430246C0F2000328464FF4A2
S315000021A04071FEF77DF9024628464FF440712C2314
S315000021B0FEF768F945F22B630246C0F20003284693
S315000021C04FF44071FEF76CF9024628464FF4407111
S315000021D02C23FEF757F945F222730246C0F200039C
S315000021E028464FF44071FEF75BF945F2714845F217
S315000021F01A5945F23D4A45F2597B45F2675645F272
S3150000220046670246C0F20008C0F20009C0F2000AA2
S31500002210C0F2000BC0F20006C0F2000728464FF4D9
S3150000222040712C23FEF72EF90146284622464346E6
S3150000223000F089FF024628464FF440712C23FEF732
S3150000224021F90146284622464B4600F07CFF02460D
S3150000225028464FF440712C23FEF714F90146284610
S315000022602246534600F06FFF024628464FF440715F
S315000022702C23FEF707F90146284622465B4600F066
S3150000228062FF024628464FF440712C23FEF7FAF807
S31500002290014628462246334600F055FF02462846A8
S315000022A04FF440712C23FEF7EDF8014628462246EE
S315000022B03B4600F048FF0134042C0246AED101AC87
S315000022C020464FF440712C23FEF7DCF845F21D53EF
S315000022D00246C0F2000320464FF44071FEF7E0F8D4
S315000022E0024620464FF440712C23FEF7CBF845F208
S315000022F00C730246C0F2000320464FF44071FEF70D
S31500002300CFF8024620464FF440712C23FEF7BAF868
S3150000231045F29D730246C0F2000320464FF4407119
S31500002320FEF7BEF8024620464FF440712C23FEF716
S31500002330A9F845F2C5630246C0F2000320464FF4F1
S315000023404071FEF7ADF8024620464FF440712C234B
S31500002350FEF798F845F273630246C0F20003204682
S315000023604FF44071FEF79CF8024620464FF4407148
S315000023702C23FEF787F845F2B8530246C0F2000355
S3150000238020464FF44071FEF78BF8024620464FF484
S3150000239040712C23FEF776F845F2D6330246C0F29A
S315000023A0000320464FF44071FEF77AF802462046B5
S315000023B04FF440712C23FEF765F845F2AC730246E4
S315000023C0C0F2000320464FF44071FEF769F802465A
S315000023D020464FF440712C23FEF754F845F60203CD
S315000023E00246C0F2000320464FF44071FEF758F84B
S315000023F0024620464FF440712C23FEF743F845F27F
S3150000240069730246C0F2000320464FF44071FEF79E
S3150000241047F8024620464FF440712C23FEF732F867
S3150000242045F2A2330246C0F2000320464FF4407143
S31500002430FEF736F8024620464FF440712C23FEF78D
S3150000244021F845F2E0730246C0F2000320464FF43D
S315000024504071FEF725F8024620464FF440712C23C2
S31500002460FEF710F845F610030246C0F200032046B8
S315000024704FF44071FEF714F8024620464FF44071BF
S315000024802C23FDF7FFFF45F249430246C0F2000345
S3150000249020464FF44071FEF703F8024620464FF4FB
S315000024A040712C23FDF7EEFF45F254630246C0F25D
S315000024B0000320464FF44071FDF7F2FF0246204626
S315000024C04FF440712C23FDF7DDFF45F2EE43024643
S315000024D0C0F2000320464FF44071FDF7E1FF45F2DC
S315000024E070530246C0F2000320464FF44071FDF7D8
S315000024F0D7FF2046FDF7A6FF41F2A3410446C2F2EC
S31500002500000110B901200024087020460DF5417D18
S31500002510BDE8F08F41F2A240C2F200000078704799
S3150000252041F2A240C2F20000007808B100207047D4
S3150000253080B545F27E40C0F20000FDF783FFBDE89E
S31500002540804000B1704745F22C50C0F20000FDF704
S3150000255079BFD4D4002800F0BB80F0B5B1B00446F2
S3150000256041F2A240C2F20000007800284FF00000BD
S3150000257040F0AC8045F2B56301AD0E468DF804001F
S31500002580C0F200032846C0210022FDF789FF02465B
S315000025902846C0213346FDF7F2FF45F2A153024615
S315000025A0C0F200032846C021FDF77AFFD4F868334D
S315000025B002462846C021FDF7E2FF45F2F3730246C4
S315000025C0C0F200032846C021FDF76AFFD4F86C3339
S315000025D002462846C021FDF7D2FF45F26443024673
S315000025E0C0F200032846C021FDF75AFF0646FDF754
S315000025F08CFD03462846C0213246FEF724F845F2F4
S3150000260070530246C0F200032846C021FDF748FF7A
S315000026102846FDF717FF002858D145F28F4301AD34
S315000026200027C0F200032846C02100228DF804705E
S31500002630FDF736FF064600F0F7FD03462846C021A3
S315000026403246FEF700F845F273530246C0F2000325
S315000026502846C021FDF724FF064600F0DFFD0346AD
S315000026602846C0213246FDF71BFF45F27A33024663
S31500002670C0F200032846C021FDF712FF94F820336C
S3150000268002462846C021FDF7DEFF024604F2213449
S315000026902846C0212D23FDF7F5FEE35D02462846B8
S315000026A0C0210137FDF7CFFF0246052FF0D145F2D5
S315000026B0705301ACC0F200032046C021FDF7F0FEC6
S315000026C02046FDF7BFFE08B9FEF732F831B0F0BD7F
S315000026D001207047002800F066822DE9F04FADF525
S315000026E0517D044641F2A240C2F200000078012862
S315000026F040F05B82FFF73EFC002840F07C832368B5
S3150000270011AD002628464FF4407100228DF8446032
S31500002710FDF7EAFE024628464FF440712C23FDF7EA
S31500002720B1FE2379024628464FF44071FDF7DCFEE0
S31500002730024628464FF440712C23FDF7A3FE637929
S31500002740024628464FF44071FDF7CEFE0246284663
S315000027504FF440712C23FDF795FEA37902462846D7
S315000027604FF44071FDF7C0FE024628464FF4407113
S315000027702C23FDF787FEE379024628464FF4407185
S31500002780FDF7B2FE024628464FF440712C23FDF7B2
S3150000279079FE237A024628464FF44071FDF7A4FEDF
S315000027A0024628464FF440712C23FDF76BFEE36882
S315000027B0024628464FF44071FDF7E1FE02462846E0
S315000027C04FF440712C23FDF75DFE2369024628462F
S315000027D04FF44071FDF7D3FE024628464FF4407190
S315000027E02C23FDF74FFE6369024628464FF44071DD
S315000027F0FDF7C5FE024628464FF440712C23FDF72F
S3150000280041FE237E024628464FF44071FDF76CFEDA
S31500002810024628464FF440712C23FDF733FE637EB3
S31500002820024628464FF44071FDF75EFE02462846F2
S315000028304FF440712C23FDF725FEA37E0246284661
S315000028404FF44071FDF750FE024628464FF44071A2
S315000028502C23FDF717FEE369024628464FF4407124
S31500002860FDF742FE024628464FF440712C23FDF741
S3150000287009FE236A024628464FF44071FDF734FEEE
S31500002880024628464FF440712C23FDF7FBFD636A90
S31500002890024628464FF44071FDF726FE02462846BA
S315000028A04FF440712C23FDF7EDFDA36A024628463E
S315000028B04FF44071FDF718FE024628464FF440716A
S315000028C02C23FDF7DFFDE36A024628464FF44071EC
S315000028D0FDF70AFE024628464FF440712C23FDF709
S315000028E0D1FD236B024628464FF44071FDF7FCFDEF
S315000028F0024600BF28464FF440712C23FDF7C2FD67
S31500002900A119B1F93430024628464FF44071FDF75B
S3150000291036FE024628464FF440712C23FDF7B2FDE1
S3150000292004EB4607FB6B024628464FF44071FDF761
S3150000293026FE024628464FF440712C23FDF7A2FDE1
S31500002940FB6C024628464FF44071FDF718FE02461E
S3150000295028464FF440712C23FDF794FDFB6D02468B
S3150000296028464FF44071FDF70AFE024628464FF40A
S3150000297040712C23FDF786FDFB6E024628464FF478
S315000029804071FDF7FCFD024628464FF440712C23AA
S31500002990FDF778FDFB6F024628464FF44071FDF7C0
S315000029A0EEFD0236082E0246A4D111AD28464FF49C
S315000029B040712C23FDF766FD94F88C3002462846BC
S315000029C04FF44071FDF790FD024628464FF44071E2
S315000029D02C23FDF757FDD4F89030024628464FF4D5
S315000029E04071FDF7CCFD024628464FF440712C237A
S315000029F0FDF748FD94F89430024628464FF440719E
S31500002A00FDF772FD024628464FF440712C23FDF770
S31500002A1039FD94ED260A024628464FF44071FDF72B
S31500002A20C7FD024628464FF440712C23FDF72AFDC8
S31500002A3094ED270A024628464FF44071FDF7B8FD8B
S31500002A40024628464FF440712C23FDF71BFDD4F8AF
S31500002A50A030024628464FF44071FDF790FD02462D
S31500002A6028464FF440712C23FDF70CFDD4F8A43012
S31500002A70024628464FF44071FDF781FD024628467E
S31500002A804FF440712C23FDF7FDFCB4F8A830024644
S31500002A9028464FF44071FDF727FD024628464FF4BD
S31500002AA040712C23FDF7EEFCD4F8AC3002462846E4
S31500002AB04FF44071FDF763FD024628464FF440711E
S31500002AC02C23FDF7DFFCD4F8B030024628464FF43D
S31500002AD04071FDF709FD024628464FF440712C234C
S31500002AE0FDF7D0FC94F8B430024628464FF4407106
S31500002AF0FDF7FAFC024628464FF440712C23FDF7F9
S31500002B00C1FCD4F8B830024628464FF44071FDF7B0
S31500002B10EBFC024628464FF440712C23FDF7B2FC2D
S31500002B20D4F8BC30024628464FF44071FDF7DCFC71
S31500002B30024628464FF440712C23FDF7A3FCD4F837
S31500002B40C030024628464FF44071FDF7CDFC0246E0
S31500002B5028464FF440712C23FDF794FC94F8C430BA
S31500002B60024628464FF44071FDF7BEFC0246284651
S31500002B704FF440712C23FDF785FC94F8C5300246CE
S31500002B8028464FF44071FDF7AFFC45F270530246FC
S31500002B90C0F2000328464FF44071FDF781FC284639
S31500002BA0FDF750FC27E10120704745F2857301AD22
S31500002BB00026C0F200032846402100228DF804605A
S31500002BC0FDF76EFC2368024628464021FDF78CFC83
S31500002BD045F270530246C0F2000328464021FDF735
S31500002BE05FFC2846FDF72EFC002840F0048145F2E4
S31500002BF0795311ADC0F200032846C02100228DF89A
S31500002C004460FDF74DFC237902462846C021FDF7B6
S31500002C106BFC45F212430246C0F200032846C0216F
S31500002C20FDF73EFCE36802462846C021FDF7A7FCF7
S31500002C3045F2EC330246C0F200032846C021FDF7F8
S31500002C402FFC236902462846C021FDF798FC45F271
S31500002C50C1430246C0F200032846C021FDF720FC0E
S31500002C60237E02462846C021FDF73EFC45F2D0539E
S31500002C700246C0F200032846C021FDF711FC637E20
S31500002C8002462846C021FDF72FFC45F2B143024615
S31500002C90C0F200032846C021FDF702FCE3690246A4
S31500002CA02846C021FDF720FC45F2DA530246C0F261
S31500002CB000032846C021FDF7F3FBA37E0246284603
S31500002CC0C021FDF711FC45F270530246C0F2000325
S31500002CD02846C021FDF7E4FB2846FDF7B3FB002894
S31500002CE040F0898045F2DD6311AD0027C0F2000394
S31500002CF02846C02100228DF84470FDF7D1FB637988
S31500002D0002462846C021FDF7EFFB45F23273024624
S31500002D10C0F200032846C021FDF7C2FBA379024694
S31500002D202846C021FDF7E0FB45F2E2530246C0F219
S31500002D3000032846C021FDF7B3FBE3790246284687
S31500002D40C021FDF7D1FB45F2F5330246C0F2000380
S31500002D502846C021FDF7A4FB237A02462846C02157
S31500002D60FDF7C2FB45F243730246C0F20003284654
S31500002D70C021FDF795FB236A02462846C021FDF7D0
S31500002D80B3FB45F25B430246C0F200032846C0216E
S31500002D90FDF786FB636A02462846C021FDF7A4FBC1
S31500002DA045F283630246C0F200032846C021FDF7C0
S31500002DB077FB236B02462846C021FDF795FB45F2BB
S31500002DC0C9430246C0F200032846C021FDF768FB4E
S31500002DD0636902462846C021FDF7D1FB45F27053D0
S31500002DE00246C0F200032846C021FDF759FB2846DB
S31500002DF0FDF728FB18B10DF5517DBDE8F08F45F2C2
S31500002E00936845F2705911AEC0F20008C0F200098D
S31500002E104FF0000A002500BF45F262733046C0211C
S31500002E200022C0F200038DF84470FDF739FB02461C
S31500002E303046C0215346FDF757FB45F622030246AE
S31500002E403046C021C0F20003FDF72AFB04EB4A011D
S31500002E50B1F9343002463046C021FDF790FB45F209
S31500002E60275302463046C021C0F20003FDF718FB87
S31500002E7004EB8A0BDBF83C3002463046C021FDF7F6
S31500002E807EFB45F28C6302463046C021C0F2000349
S31500002E90FDF706FBDBF84C3002463046C021FDF755
S31500002EA06EFB45F2606302463046C021C0F2000365
S31500002EB0FDF7F6FADBF85C3002463046C021FDF736
S31500002EC05EFB45F2F16302463046C021C0F20003C4
S31500002ED0FDF7E6FADBF86C3002463046C021FDF716
S31500002EE04EFB02463046C0214346FDF7D9FADBF8D1
S31500002EF07C3002463046C021FDF741FB0246304693
S31500002F00C0214B46FDF7CCFA3046FDF79BFA002868
S31500002F107FF471AF0AF1010ABAF1040F2F467FF46C
S31500002F207BAF002045F2D74311AD8DF84400C0F2C7
S31500002F3000032846C0210022FDF7B2FA94F88C302F
S31500002F4002462846C021FDF7CFFA45F62903024678
S31500002F50C0F200032846C021FDF7A2FA94F8943087
S31500002F6002462846C021FDF7BFFA45F29A6302469B
S31500002F70C0F200032846C021FDF792FAD4F890303B
S31500002F8002462846C021FDF7FAFA94F88C1002464C
S31500002F90012960D145F21C4311ADC0F20003284659
S31500002FA0C021FDF77DFA94ED260A02462846C02187
S31500002FB0FDF7FEFA45F2DA730246C0F20003284630
S31500002FC0C021FDF76DFA94ED270A02462846C02176
S31500002FD0FDF7EEFA45F2B9430246C0F20003284671
S31500002FE0C021FDF75DFAB4F8A83002462846C02194
S31500002FF0FDF77AFA45F21C730246C0F20003284632
S31500003000C021FDF74DFAD4F8AC3002462846C0215F
S31500003010FDF7B5FA45F268630246C0F2000328469A
S31500003020C021FDF73DFA94F8B43002462846C02187
S31500003030FDF75AFA45F275430246C0F200032846E8
S31500003040C021FDF72DFAD4F8B03002462846C0213B
S31500003050FDF74AFA024645F2705311ADC0F200037D
S315000030602846C021FDF71CFA2846FDF7EBF9002893
S315000030707FF4C1AE204600F001F8BCE6B0B5A8B0BA
S315000030800546002045F2E4436C468DF80000C0F288
S3150000309000032046A0210022FDF702FAD5F8B83039
S315000030A002462046A021FDF71FFA45F2AF3302463D
S315000030B0C0F200032046A021FDF7F2F9D5F8BC3096
S315000030C002462046A021FDF70FFA45F2FC630246B0
S315000030D0C0F200032046A021FDF7E2F9D5F8C03082
S315000030E002462046A021FDF7FFF945F2A0630246FD
S315000030F0C0F200032046A021FDF7D2F995F8C430AE
S3150000310002462046A021FDF7EFF945F24C73024630
S31500003110C0F200032046A021FDF7C2F995F8C5309C
S3150000312002462046A021FDF7DFF945F2705302461C
S31500003130C0F200032046A021FDF7B2F92046FDF7B4
S3150000314081F928B0B0BD70B51C4645F2D763154667
S315000031500A46C0F200034FF440710646FDF7A0F997
S31500003160024630464FF440712B46FDF7BDF9024644
S3150000317030464FF440715F23FDF784F9024630462E
S315000031804FF440712346BDE87040FDF789B945F21A
S315000031903802CFF6FF72914201DA00210DE04FF6B8
S315000031A0E022C0F201029142B8BF0A4602EB420198
S315000031B001F5023101F5EB61C90880B582B048F22C
S315000031C0A062C0F201029042B8BF024640F29F23BD
S315000031D002FB03F2920A002848BF0022ADF8042041
S315000031E0ADF8061001AA592042F20F610223FEF73C
S315000031F0AEF902B080BD10B51446FFF7C8FF00B1A6
S3150000320010BD48F2A060C0F20100FEF71DFA592079
S3150000321021460122BDE81040FEF778B940F20400CD
S31500003220C2F20000006870475920704710B5044686
S31500003230592043F28261FEF77EF900B110BD4FF4CA
S31500003240FA70FEF701FA592021460322BDE8104024
S31500003250FEF714B980B582B00DF10200FFF7E6FF64
S3150000326002B080BD50B110B59421044602F035F885
S31500003270FEF77CF9FFF7EEFF28B110BD4FF61840B8
S31500003280CFF6FF70704704F18000FFF7CFFF0028EC
S3150000329018BF10BD2046FEF7F1F9012084F8900012
S315000032A00020A4F88600C4E9220010BDE8B110B5DC
S315000032B0044690F8900001281CD104F186030846C4
S315000032C011461A46FFF797FF002818BF10BDB4F83D
S315000032D0861004F188022046FEF71BFAD4F88C000B
S315000032E00130C4F88C00002010BD4FF61840CFF610
S315000032F0FF7070476FF47A7010BD38B1D0F88C004B
S315000033002E284FF0000038BF01207047012070477B
S3150000331040F20800C2F20000704780B582B09421E6
S315000033208DF8071030B14420FDF759FC28B16FF035
S31500003330090012E04FF0FF300FE00DF10700012108
S315000033400022FDF7B6FC10B16FF00A0005E002207E
S315000033504FF47A7101F020FE002002B080BDD4D473
S31500003360F0B583B00746FD208DF80B000020ADF8C0
S315000033700800019037B14420FDF731FC28B16FF009
S3150000338013009BE04FF0FF3098E00DF10B00012198
S315000033900022FDF78EFC10B16FF014008EE00A20BB
S315000033A04FF47A7101F0F8FD01A806210022FDF71D
S315000033B0BAFC10B16FF0150080E001A80DF1040C05
S315000033C0451CFF2201233120614600BF09780824ED
S315000033D04A4000BF11464EB25200002E48BF80EA56
S315000033E04102013CF6D1D9074FF000032946EDD141
S315000033F09DF80600D1B281424CD10CF1030CFF219D
S3150000340000200122312300BF1CF8000041400820A3
S315000034100E4675B24900002D48BF83EA46010138C1
S31500003420F6D1D2074FF001004FF00002ECD19DF823
S315000034300900C9B2814230D1BDF80400BDF80710B9
S3150000344000BA09BA000C090C00EE100A9FED1C1A0E
S3150000345002EE101AB8EE400AB8EE422A80EE010AD1
S3150000346082EE011A9FED172A9FED183A20EE022AE6
S3150000347021EE030AB9EE081A30EE010A9FED121A80
S31500003480B5EE400AF1EE10FA32EE011A08D59FEDBC
S31500003490100A0EE06FF0010010E06FF002000DE080
S315000034A09FED0C2AB4EE420AF1EE10FAC8BFB0EE58
S315000034B0420A002087ED011A87ED020A03B0F0BD2B
S315000034C000FF7F4700002F43000034C20000FA428D
S315000034D0000000000000C842B0B54FF62E05CFF63A
S315000034E0FF75F8B1C421044601F0F7FE012084F807
S315000034F0B800FFF70DFF206088B1C16879B1016996
S3150000350069B1022184F8B810C168884730B9032030
S3150000351084F8B800201DFFF7A5FE30B10546C4F8B3
S31500003520BC5000E002352846B0BD0120002584F8D5
S31500003530C00084F8B850F2E700285CD0F0B581B03E
S315000035402DED048B044690F8C000012858D10421C3
S31500003550206884F8B81001698847002855D120688A
S315000035609FED2D0A90ED018A90ED029A28EE001A41
S31500003570B6EE002ABEEE004A31EE023A31EE041AE9
S31500003580B5EE408AF1EE10FAB8BFB0EE413ABDEEA4
S31500003590C31A29EE000A11EE105A30EE021A30EE66
S315000035A0040AB5EE409AF1EE10FAB8BFB0EE401A32
S315000035B0BDEEC10A10EE107A0520261D84F8B8006B
S315000035C0304639462A46FFF771FEF0B9B4F88A004C
S315000035D0D4E92312A4F8A800304684ED268A84EDA7
S315000035E0279AC4E92857C4E92B12FFF786FE84F808
S315000035F0B400002006E04FF63000CFF6FF707047AB
S315000036006FF4FA60002184F8B810C4F8BC00BDEC71
S31500003610048B01B0F0BD00BF00007A44002818BF3B
S3150000362098307047002814BF90F8B8000020704703
S3150000363080B541F2AC40C2F2000040F20C610022BB
S3150000364000F0E9FD00B180BDFEF771FC002818BF4F
S3150000365080BD41F2A441C2F200010020087041F28F
S31500003660A841C2F20001086080BD70B541F2A445D0
S31500003670C2F200052A780446022A15D0012A20D172
S3150000368041F2A846C2F200063068201AB0F5FA6F79
S3150000369021D341F2AC40C2F2000040F20C6100229C
S315000036A000F0B9FDA0B170BD41F2A840C2F2000021
S315000036B000684BF62071201AC0F20201884202D23D
S315000036C009E0012907D12046BDE8704000F005B8A1
S315000036D0022028703460002070BDB0B50446FEF7A5
S315000036E036FC00B1B0BD41F2AC40C2F2000040F27F
S315000036F00C610122012500F08EFD002818BFB0BD27
S3150000370041F2A440C2F20000057041F2A840C2F2A4
S31500003710000004600020B0BD41F2A440C2F20000E7
S315000037200078B0FA80F04009704780B5FDF7F8F8E8
S31500003730002080BDEFF303804FF0704101EB006085
S3150000374046F200318015C4F20001425822F480325C
S315000037504250415841F26851C2F200010858D0E97E
S31500003760061291421FD0026942B190F82030102B08
S3150000377007D383685B6842F821300EE0826852689E
S315000037800BE0D0F808C0072B03D89CF8043053543C
S3150000379003E0BCF8043022F81130C26901319142CD
S315000037A0816118BF70474068012290F9030000F05C
S315000037B01F0102FA01F14EF200124009CEF2000298
S315000037C042F82010704742684169537A43B9126A39
S315000037D032B1127B012A03D18268D278920629D5AA
S315000037E0C269531E994205D18268138A23F0800369
S315000037F01382C269914208BF7047C26842B190F80D
S315000038002030102B08D352F8212083685A600FE02D
S315000038108268002353600BE0D0F808C0072B03D85A
S31500003820525C8CF8042003E032F81120ACF8042036
S31500003830013141617047EFF303804FF0704246F269
S31500003840003102EB0060C4F200018015425822F4F8
S3150000385080324250425841F26852C2F20002105879
S315000038604268136AB3B35B78012B33D1C369D0F8CE
S3150000387014C0013B9C451DD192F903204EF2001C59
S3150000388051F82230CEF2000C23F4803341F8223076
S3150000389051F8221002F01F010123520903FA01F127
S315000038A00CEB8203BFF35F8FC3F880114CF8221034
S315000038B0FFF789BF116969B192F90310012301F07D
S315000038C01F0203FA02F24EF200134909CEF2000378
S315000038D043F82120FFF777BF4FF0704246F20031E0
S315000038E0EFF3038002EB0062C4F200019015435827
S315000038F023F480334350435841F26853C2F2000325
S3150000390018588368DB789B0704D543685B7A012BDC
S3150000391018BF704780B512164EF2001CCEF2000C8E
S3150000392002F01F034FF0010E52090EFA03F30CEBDF
S315000039308202C2F88030BFF34F8FBFF36F8F4268A9
S3150000394092F90220002A0CD402F01F0352090EFA43
S3150000395003F30CEB8202C2F88030BFF34F8FBFF344
S315000039606F8F8268137803F0BF031370426892F971
S315000039700230002B15D451F8232022F4803241F86E
S31500003980232051F8231003F01F01012202FA01F14E
S315000039905A090CEB8203BFF35F8FC3F880114CF812
S315000039A022100121BDE8804000F000B82DE9F04169
S315000039B084B00446806A0DF1040828B1024692E8F4
S315000039C0E0004346E0C300E04046626812780171B9
S315000039D00260E16A8160616A8847A06A10B198E86E
S315000039E00E000EC004B0BDE8F081F0B581B04FF016
S315000039F07041EFF3038001EB006541F26851A815B1
S31500003A00C2F200010C58606890F902104EF20010E4
S31500003A100029CEF200000DD401F01F02012349094E
S31500003A2003FA02F200EB8101C1F88020BFF34F8F49
S31500003A30BFF36F8FA16846F200360A78C4F200061B
S31500003A4002F0BF020A70616891F90210002915D4CC
S31500003A5056F82120012322F4803246F8212056F818
S31500003A60212001F01F02490903FA02F200EB81034B
S31500003A70BFF35F8FC3F8802140F82120A0680021A2
S31500003A80C778C1703A0703D520460521FFF78EFF98
S31500003A90F80703D020460421FFF788FFF84310F00B
S31500003AA0140F4FEA256503D120460821FFF77EFF54
S31500003AB056F8250020F4803046F8250056F82500F3
S31500003AC001B0F0BD0A780123934013F0060F05D02C
S31500003AD0CB695B681B781B0700F1E1802DE9F04795
S31500003AE048F20003C4F2110343EA02224FF0000831
S31500003AF0026280F80080C1614B6943628B69C0F83D
S31500003B002880C362837823F003035E1C86704E7898
S31500003B1016B943F00203837091F90B704EF2001C44
S31500003B20CEF2000C07F01F044FF0010E0EFA04F659
S31500003B300CF180047A098D7A44F8226046F2003A44
S31500003B40BFF34F8FC4F2000ABFF36F8F5AF82720D6
S31500003B5041F2685922F480324AF827205AF8272081
S31500003B602A010CF54075C2F20009EA5549F827000A
S31500003B7091F905200F7902F01F060EFA06F6530991
S31500003B8044F82360BFF34F8FBFF36F8F5AF822308C
S31500003B9023F480334AF822305AF822303B01AB54E2
S31500003BA049F8220091F907208B7902F01F060EFAD8
S31500003BB006F6570944F82760BFF34F8FBFF36F8FA0
S31500003BC05AF822601B0126F480364AF822605AF819
S31500003BD02260AB5449F8220091F909200B7A02F0D1
S31500003BE01F060EFA06F6570944F82760BFF34F8FF3
S31500003BF0BFF36F8F5AF822401B0124F480344AF831
S31500003C0022405AF82240AB5449F82200EFF31082C2
S31500003C108EF3108844F204050B78C4F208054FF0C1
S31500003C2000442E6824FA03F326EA03032B602B686C
S31500003C3082F31088026A82F80280026A82F804809F
S31500003C40026A82F80980026A82F80A80026A82F8A9
S31500003C500B80026AA2F81A800A780EFA02F340F282
S31500003C60F932134202D0036A4024DC74036A062444
S31500003C701C770B780EFA03F3134203D0026A4FF453
S31500003C8078439382CA784E788B78D20042EA031240
S31500003C903EB1032E08BF42F04002F22602E00322A4
S31500003CA0B0E0E226036A02271A70026A00259671BE
S31500003CB0CA69137B07EA4307082B036A08BF0A276A
S31500003CC05F73066A5378977835721678056A06F038
S31500003CD0FE06022E4FEAC31667F3451609D1FF23E7
S31500003CE06B701278022A026A08BF46F01006D67177
S31500003CF016E0EE715268036A97785F7057781E78FF
S31500003D0007F0030706F0FC0637441F70D7789F7448
S31500003D10DF79127807F0A30702F05C023A44DA7101
S31500003D200022C369C0E90322C0E90522D1F81CE0DC
S31500003D3093F905309EF800105AF8234003F01F054A
S31500003D4024F480344AF823405AF82340012404FA24
S31500003D5005F60CF5C0755B09BFF35F8F45F8236068
S31500003D604CF82360C36993F90B305AF8236026F4A4
S31500003D7080364AF823605AF8236003F01F0604FAD7
S31500003D8006F65B09BFF35F8F45F823604CF82360A6
S31500003D90C36993F907305AF8236026F480364AF847
S31500003DA023605AF8236003F01F0604FA06F65B093F
S31500003DB0BFF35F8F45F823604CF82360C36993F91E
S31500003DC009305AF8236026F480364AF823605AF8F8
S31500003DD0236003F01F06B4405B09BFF35F8F45F80D
S31500003DE023404CF823401C23076A63F39F01B970F4
S31500003DF0BEF80A10018144F65511C5F243314160FF
S31500003E00BDE8F0471046704703460020C3E9051297
S31500003E10704780B5D0F820E09EF802C00CF07B0316
S31500003E208EF80230837803F00303A2EB030C0B44F5
S31500003E30026AC0E9033C937843F08003937082786A
S31500003E4002F00302022A05D10988006A41F47E4184
S31500003E50C18102E00978006AC170002080BD10B5FA
S31500003E60C2690123127803FA02F212F0060F02D099
S31500003E700A78120723D4026A4FF0000E92F802C0A5
S31500003E800CF00B039370C0F80CE0036A8A785A7042
S31500003E904A781C7802F0030204F0FC0422441A70EB
S31500003EA0CA789A74DA79097802F0A30201F05C0103
S31500003EB01144D971006A0CF07B01817001E04FF06A
S31500003EC0030E704610BD4FF0FF3200200A604A60B4
S31500003ED070478A0701D4062206E0026A937803F047
S31500003EE07B03937000220261C9071CBF0022826116
S31500003EF0104670478446C0E909130020CCF82C20F0
S31500003F007047026A002141609170C1694EF2801CBF
S31500003F1091F90520012102F01F0301FA03F352096A
S31500003F20CEF2000C4CF82230BFF34F8FBFF36F8FE9
S31500003F30C26992F90B2002F01F0301FA03F352093A
S31500003F404CF82230BFF34F8FBFF36F8FC26992F9DF
S31500003F50072002F01F0301FA03F352094CF822303E
S31500003F60BFF34F8FBFF36F8FC26992F9092002F03A
S31500003F701F0301FA03F352094CF82230BFF34F8FA7
S31500003F80BFF36F8FEFF3108281F31088C06944F29C
S31500003F9004030078C4F208034FF0004C19682CFAA9
S31500003FA000F008431860186882F3108800207047F4
S31500003FB00246806908600021002091617047062052
S31500003FC0704706207047EFF303804FF0704101EB16
S31500003FD0006046F200318015C4F20001425822F416
S31500003FE080324250415841F26851C2F200010858ED
S31500003FF0C1690A690169C2B9C1B1817801F00302D8
S31500004000C168022A05D10988026A41F47E41D1813C
S3150000401002E00978026AD1708178026901F003032F
S31500004020D11AC26801611A44C26071B9016A8A78FC
S3150000403002F07B0204328A70416A00294FF00001C7
S31500004040C16002D0802200F001B870472DE9F0432C
S3150000405085B08146806A0DF1040830B1054695E8C1
S31500004060D800C4468CE8D80000E04046D9F81C3099
S315000040701B78816003600271D9F82C10C160D9F8F1
S3150000408024108847D9F8280010B198E88E008EC011
S3150000409005B0BDE8F08310B582B0EFF303804FF0B2
S315000040A0704101EB006046F200318015C4F2000158
S315000040B0425822F480324250415841F26851C2F2CD
S315000040C000010C58A07800F00302206A022A03D1EE
S315000040D0018A6FF35F2100E04179A069019198B1EF
S315000040E0606901A901F0FDF8A0786169A26900F094
S315000040F003000144101A6161A0610ED1606A60B1CB
S3150000410020460021012203E0606A30B120460422E5
S3150000411002B0BDE81040FFF799BF02B010BD10B560
S315000041204FF07041EFF3038001EB006141F26852FA
S315000041308815C2F2000210580C16026A937803F032
S315000041407B039370426A1AB100210222FFF77EFFB9
S3150000415046F20030C4F2000050F8241021F48031F9
S3150000416040F8241050F8240010BD4FF07041EFF3D2
S31500004170038001EB006C41F268514FEAAC50C2F289
S31500004180000108588178036A01F00301022903D16E
S31500004190198A6FF35F2100E0597910B51A79D406B0
S315000041A002F0380204D51C7F64F3861282F04002C6
S315000041B01C7904F0C7041C71436A4FEA2C640BB1E6
S315000041C0FFF744FF46F20030C4F2000050F8241016
S315000041D021F4803140F8241050F8240010BD80B539
S315000041E045F25422C5F24F020260084600F028F854
S315000041F0002080BD6FF03F0000EA9100C9B200EBDD
S31500004200810040F60001C4F208014058C0F34001A5
S31500004210002011707047C8B2012383409BB24FF44F
S31500004220803C002A08BF0CFA00F36FF0010000EA98
S31500004230D11008220101C4F2080200205350704731
S3150000424070B5044600F05CF841F2645CEFF3108050
S31500004250012181F31088C2F2000CDCF8001039B994
S3150000426040F60351C4F2080100220A7040220A7087
S31500004270DCF800100131CCF8001080F3108820889B
S3150000428010B340F6000E0021C4F2080E606800EB81
S31500004290C102928850F83130100ADD03D2B20BD534
S315000042A00EEB801555F8226026F4803645F822601C
S315000042B023F4803645F822600EEB801040F8223059
S315000042C0208801318142E1D3EFF31081012080F390
S315000042D01088DCF8000020B1DCF800000138CCF8CA
S315000042E00000DCF8000038B940F60350C4F20800BC
S315000042F0002202708022027081F3108870BDD4D42F
S315000043002DE9F04F81B00446008800285CD043F2C6
S3150000431040084EF2BB4A45F6BC1BC4F2080800260C
S31500004320C4F2010AC0F2000B4FF00109002700BFDA
S3150000433060683BF8172000EBC600818891423CD1AB
S3150000434000689AF8001000F0B85009FA07F5B0F1C5
S31500004350807F05EA010015D150B9012000F0F1FE79
S315000043609AF8000028438AF80000012000F0C0FEF9
S3150000437018F91700002820D418F8170040F080001C
S3150000438015E000BF50B1012000F0DBFE9AF80000F6
S31500004390A8438AF80000012000F0AAFE18F91700C9
S315000043A0B0F1FF3F09DC18F8170000F07F0008F8AD
S315000043B01700C820012100F0EFFD0137032FB7D108
S315000043C0208801368642B1D301B0BDE8F08F10B522
S315000043D0044608784FF20002C4F2090202EB0020FC
S315000043E02061216088684FF0010C6060087B44F210
S315000043F004022072C869C4F208026063086AE063B6
S315000044000020A063C4E90500C4E9070084F8290078
S3150000441084F82A0084F82B0084F82C00EFF3108E21
S315000044208CF310880B781068C3F109030CFA03F3B8
S315000044309843106010688EF31088204600F0B0F89C
S3150000444044F64311C5F249210020E16010BD9C46A7
S31500004450012380F82AC000F065B99C46002380F845
S315000044602AC000F05FB9B0B5044600690025C571E1
S315000044702168204600F094F894F82600216984F813
S315000044802800A069B322C4E90750002084F82C5004
S3150000449084F82A50CA71B0BD0346416000201A72E2
S315000044A070478446C0E90D130020CCF83C207047C5
S315000044B0C0684BF2BD62CAF6B6521044B0FA80F03C
S315000044C0420900200A707047B0B50446006900250D
S315000044D0C5712168204600F063F894F8260021692A
S315000044E084F82800A0694EF28013C4E90750B3206F
S315000044F084F82C5084F82A50C8712069CEF2000343
S31500004500C5712068E56090F91110012001F01F02C5
S3150000451000FA02F2490943F82120BFF34F8FBFF397
S315000045206F8F216891F90E1001F01F0200FA02F256
S31500004530490943F82120BFF34F8FBFF36F8F2168DE
S3150000454091F9101001F01F0200FA02F2490943F82E
S315000045502120BFF34F8FBFF36F8F216891F90F10A2
S3150000456001F01F0200FA02F2490943F82120BFF3C5
S315000045704F8FBFF36F8FEFF3108180F3108822689F
S3150000458044F204031278C4F20803C2F109021D685A
S31500004590904028431860186881F310880020B0BD49
S315000045A0F0B5026900231370026940231370026993
S315000045B013785B06FCD5C023137002680369526A40
S315000045C0082512794EF2001C42F0E0021A740268C5
S315000045D00369526ACEF2000CD27841F2685E42F06C
S315000045E0E0025A7402680369526AC2F2000E9278B7
S315000045F062F306159D7002680369526A157852784F
S31500004600013DB5FA85F56D0945EA420242F004021C
S31500004610DA70026844F2402552680369C0F20F0559
S31500004620AA424FF0770208BF6FF008025A7102697A
S31500004630002393710269B323D3714A7B91F9116008
S3150000464013010CF54072935546F200334EF82600DE
S31500004650C4F2000353F8264006F01F0524F4803404
S3150000466043F8264053F82640012404FA05F70CF5D2
S31500004670C0757609BFF35F8F45F826704CF8267033
S315000046804E7B91F90F703601D6554EF8270053F838
S31500004690276026F4803643F8276053F8276007F032
S315000046A01F0604FA06F67F09BFF35F8F45F82760F9
S315000046B04CF827604E7B91F910703601D6554EF8AE
S315000046C0270053F8276026F4803643F8276053F80E
S315000046D0276007F01F0604FA06F67F09BFF35F8F0F
S315000046E045F827604CF827604E7B91F90E1036018D
S315000046F056544EF8210053F8212022F4803243F814
S31500004700212053F8212001F01F0204FA02F2490980
S31500004710BFF35F8F45F821204CF8212000699F21C7
S315000047200170F0BD90F808C0C0E90512BCF1010F98
S3150000473008D101794FF4807C43EA4101A0F825C0F5
S3150000474080F8241010B581B04EF2200180F829308F
S31500004750C4F2010109680091009901F00F2100914E
S31500004760DDF800E0DDF800C001690B7C90F82C4014
S315000047709CB9CEF30322A2EB1C6203FA02F2042ACE
S3150000478006D3920891F90130002B03D5013AF9D1ED
S3150000479008216CE00022CA71826990F82630002157
S315000047A080F82810C0E9072180F8273080F82B1000
S315000047B080F82D1080F82E1080F82F1080F8301019
S315000047C00168D0F810C0496A0B784C78013BB3FAFF
S315000047D083F34A795B0991F806E043EA440343EA26
S315000047E0021242EACE1242F004028CF80320026959
S315000047F0137943F0100313710269137903F0F70379
S3150000480013710269137903F0EF0313710269C97911
S31500004810137903F07F0343EAC111117101694A79E3
S3150000482042F001024A71016891F90F1000290BD478
S3150000483001F01F02012303FA02F24EF200134909A6
S31500004840CEF2000343F8212001694A7A02F0F3020E
S315000048504A720169BF22CA7190F82C1019B1002161
S3150000486080F82C1003E000690221417000210846FF
S3150000487001B010BD10B582B0EFF303804FF0704168
S3150000488001EB006046F200328015C4F20002835844
S3150000489023F4803383508058EFF3038001EB0060EC
S315000048A041F268518015C2F200010C5894F82D00AF
S315000048B0B8B1E069002861D02168496AC97901293F
S315000048C004D12046052100F037FAE069012857D0C7
S315000048D0022833D0032840D12069017941F04001F4
S315000048E03AE0A069022804D82069017941F0400124
S315000048F00171E06901280ED12069017941F01001AA
S3150000490001712069017941F008010171206901797D
S3150000491001F0EF0101712068406AC079012803D1D6
S315000049202046052100F008FA2069C07C8DF80700B2
S315000049309DF80700012084F82D001FE02069017909
S3150000494041F0100101712069017941F008010171FE
S315000049502069017901F0EF010171D4E90401C07CFD
S31500004960226A8854D4E9071001300139C4E90710D6
S3150000497004D12069017901F0BF01017102B010BDB7
S3150000498094F82A00012831D120684EF2801390F95C
S315000049900F10012001F01F0200FA02F24909CEF2BF
S315000049A0000343F82120BFF34F8FBFF36F8F2169B8
S315000049B0CA7942F08002CA7121690A7942F010026E
S315000049C00A7121690A7902F0F7020A7121690A79E6
S315000049D002F0EF020A71216904224A7021694A79BC
S315000049E002F0FE024A7184F82C00B6E72069417A8B
S315000049F001F0F7014172206908214170ADE7D4D476
S31500004A00B0B5EFF303804FF0704146F2003501EB8D
S31500004A100060C4F200058015425922F480324251EA
S31500004A204059EFF3038001EB006041F268518015B5
S31500004A30C2F200010C5894F82700C8B194F8260079
S31500004A40032806D194F82800022802D194F83000F1
S31500004A5068B394F824002169887494F8280094F8BF
S31500004A602710013084F82800481E84F82700B0BDBE
S31500004A7094F82900D8B92068406AC079012808D17D
S31500004A8094F82B0028B9206A18B12046052100F0B9
S31500004A9053F9E06960B1D4E90401226A895C817442
S31500004AA0D4E9071001300139C4E9071000D0B0BDC0
S31500004AB02069C17901F07F01C17120696FF0BE01E3
S31500004AC090F90720B2F1FF3F03DC002901F1010153
S31500004AD0F6D1206890F9100055F8201021F48031A5
S31500004AE045F8201055F82000206890F9100000289D
S31500004AF00BD400F01F01012202FA01F14EF28022CE
S31500004B004009CEF2000242F820102069C17941F036
S31500004B104001C171B0BDD4D410B5EFF303804FF09E
S31500004B20704101EB006041F268518015C2F200014C
S31500004B300C582068406AC079012803D12046052117
S31500004B4000F0FAF894F82900012806D194F8270015
S31500004B50012802D194F8300080B3E06970BB94F864
S31500004B602A00012822D12068012290F90F004EF276
S31500004B70801300F01F0102FA01F14009CEF2000392
S31500004B8043F82010BFF34F8FBFF36F8F2069C179B1
S31500004B9041F08001C1712069042141702069417989
S31500004BA001F0FE01417184F82C2007E02069417A6A
S31500004BB001F0F70141722069082141702069C1792D
S31500004BC001F0BF01C17120696FF0BE01C2795206C2
S31500004BD003D5002901F10101F8D1EFF303804FF06D
S31500004BE0704101EB006046F200318015C4F200010D
S31500004BF0425822F480324250405810BDB0B5EFF30F
S31500004C0003804FF0704101EB006041F2685180155E
S31500004C10C2F200010C5821694A7A4B7A02F01F0051
S31500004C2003F0E0030F2802F003024B7201D83AB9F1
S31500004C3024E021694B785B0658BF42F00102D2B1ED
S31500004C40012084F82B0020690025C57121682046C3
S31500004C50FFF7A6FC94F82600216984F82800A069CD
S31500004C60C4E90750B32084F82C5084F82A50C87140
S31500004C70204601214DE04A78520611D4010706D498
S31500004C8094F82C20012A31D110F004022ED0E069CC
S31500004C9010B994F82B0098B3002919D4012036E0F6
S31500004CA0012084F82B000820487020682169406A9A
S31500004CB002784379807942EA031242EAC01040F052
S31500004CC00200C8702069417941F00101417122E07A
S31500004CD094F82600002184F82800A069C4E907108A
S31500004CE0012084F82C1084F82A100DE0400712D514
S31500004CF02068406AC07901280DD12046042108E0C9
S31500004D0094F8290080F003002169B322CA71C1B268
S31500004D10204600F011F8EFF303804FF0704101EBED
S31500004D20006046F200318015C4F20001425822F4B8
S31500004D30803242504058B0BD10B582B00446806BF8
S31500004D4000281ABFD0E90023CDE900236846E26BAC
S31500004D5001710260616B8847A06B18B1DDE9001232
S31500004D60C0E90012002084F82B0002B010BD4EF2FC
S31500004D702000C4F20100817941F220020068C2F2EB
S31500004D80000252F82110C0F3026021FA00F041F24D
S31500004D90A451C2F2000108607047D4D42DE9F04155
S31500004DA04EF2FE34C4F201044CF200164AF20350ED
S31500004DB0C4F2010620800120B08000BFB088002820
S31500004DC0FCD147F200010120C4F200013080886066
S31500004DD0086041F2200742F600504CF2002C4EF2D9
S31500004DE02005C2F20007C0F2311041F200214FF453
S31500004DF0004243F20063C0F6EB3CC4F20105C0F288
S31500004E007A01C0F26E1387E80F00C7E9042CA8796F
S31500004E10296857F82000C1F3026141F2A458C8403E
S31500004E20C2F20008C8F8000000206075092085F865
S31500004E30820094F8820018B994F88300800760D045
S31500004E4094F8820050B9012084F88200C82001211C
S31500004E5000F0A2F894F882000128FBD1002084F823
S31500004E60830084F882000020A87400BF287F000712
S31500004E70FCD543F2021028810020A872287F800604
S31500004E80FCD50320307741F22120C2F201002860D0
S31500004E900520A871A879296857F82000C1F3026196
S31500004EA0C840C8F8000042F20800C4F20000F12130
S31500004EB001710121F02201700271297485F8321006
S31500004EC095F8580040F0400085F8580095F95800CC
S31500004ED0B0F1FF3FFADC002085F85000C42085F8C9
S31500004EE0580095F8580000F0BF0085F8580000BF3C
S31500004EF095F958000028FBD44FF425402080BDE8E2
S31500004F00F0814FF47A7000F001F8ACE7704741F297
S31500004F102001C2F2000151F820007047B0B543F2FB
S31500004F202404C4F208040025C8200121257100F0DC
S31500004F3033F8257020780028FCD1207840F0020054
S31500004F40207000BF20788007FCD4002004F8020CF3
S31500004F5014F8020C0028FBD1002004F11C0100BF4C
S31500004F6011F8102002F07F0201F8102011F910202C
S31500004F70002AFBD401300328F2D1012000F0E1F829
S31500004F804EF2BB41C4F20101002201200A70BDE8C5
S31500004F90B04000F0ADB8704741F2A452C2F2000230
S31500004FA0126841F20023C0F27A039A4201FB00F034
S31500004FB00FD340F6FF01C0F23D0111444DF6836266
S31500004FC0C4F21B32A1FB0212110DA0FB0101E9B1D3
S31500004FD01FE04CF6002348F63811C3F69A33C0F2A8
S31500004FE04101B3FBF2F2884207D24FF47A7100FB1B
S31500004FF001F0B0FBF2F0800808E09200B0FBF2F09E
S31500005000884206D24FF47A7100FB01F028B100F015
S3150000501005B84FF0FF3000F001B87047013800289E
S31500005020FCD170472DE9F04146F22018C4F2000881
S31500005030B8F80000B8F8201041F2245501EA00063D
S31500005040B7B20024C2F2000527FA04F0C00704D064
S3150000505055F8241009B1204688470134102CF3D1A5
S31500005060A8F81060BDE8F08170B584B048F2480633
S315000050700320C4F2000600F064F86FF0FF0045F666
S31500005080781430604FF0FF300021C0F20004012296
S31500005090CDE9020034F8113002FA01F5002B01F1D6
S315000050A0010118BFA8430C29F4D14EF280320190B9
S315000050B0002001A9CEF2000251F8203006EB80054F
S315000050C0AB6242F8203001300328F5D1032000F00E
S315000050D00FF846F200310020C4F2000134F8102027
S315000050E00AB141F8202001300C28F7D104B070BD78
S315000050F00122EFF3108182F3108841F29852C2F236
S31500005100000232F8103023B132F81030013B22F899
S31500005110103032F810208AB94EF2FE3CC4F2010C6F
S3150000512045F6D822BCF80030C0F2000232F8100072
S3150000513043F4254222EA0000ACF8000081F310880F
S31500005140704780B50122EFF3108182F3108841F297
S315000051509852C2F2000232F810308BB94EF2FE3C81
S3150000516045F6D823C4F2010CC0F20003BCF800E0F7
S3150000517033F8103043EA0E0343F42543ACF800300D
S3150000518032F81030013322F8103081F3108880BDD8
S3150000519000F006F8FEF7C9FAFEE700BE7047D4D461
S315000051A0B0B54EF60850CEF200004FF47001C0F8CC
S315000051B0801040F20001C0F20001016000200024CE
S315000051C0FBF739FCFFF7EAFD0120FBF734FC40F260
S315000051D02000C2F2000080F30A88002000F050F898
S315000051E0FFF7C5FDFFF79AFE0320FFF7AAFF40F67B
S315000051F01050C4F208004FF6FF7100BF20F81410DB
S3150000520001340C2CFAD10320FFF772FF0320FFF7BD
S3150000521098FF0420C4F20E00002101604160816005
S31500005220C1600320FFF764FF0220FBF704FC0120A6
S3150000523000F026F841F2AC54C2F20004204600F019
S3150000524069F8204600F07AF845F6323045F63231F4
S31500005250C0F20000C0F20001081A8410012C08DB1D
S3150000526045F63235C0F2000555F8040B8047013C7F
S31500005270FAD1FFF7F9FE0020BDE8B040FFF78BBE7C
S31500005280F0B581B045F6F415C0F200052E68044667
S3150000529076B16868071D00BF7879844204D157E962
S315000052A00101091A00F019F8013E07F10C07F3D1C4
S315000052B0AE6886B1E86800F1080500BF68798442E7
S315000052C005D155E902022968121A00F00AF8013ED2
S315000052D005F11005F2D101B0F0BD0A46002100F03B
S315000052E009B810B500239A4203D0CC5CC4540133EC
S315000052F0F9E710BD00239A4208BF7047C154013335
S31500005300F9E7D4D4034613F8012B002AFBD1181A67
S315000053100138704710B505490446054AFFF7E1FF15
S31500005320044805492044FFF7D8FF10BD900000004F
S315000053300000000000000000000000000249401AC2
S3150000534002490860704700BF08000000A815002049
S315000053508200000046000000280000001400000043
S315000053600C00000008000000060000000400000019
S31500005370001000080004000200010D0A5B534750AC
S3150000538034305D2073657269616C3D0073657175BB
S31500005390656E6365006D715F7265636F76657265D4
S315000053A06400656E765F626C61636B6F7574002076
S315000053B074696D656F75743D002C2061626F72743F
S315000053C065643D006D715F6672616D655F636F6DEB
S315000053D0706C65746500656E765F68756D69646985
S315000053E074795F6D696C6C695F72680020736D5FBC
S315000053F06572723D00207265636F76657265643D05
S31500005400003031323334353637383941424344453A
S315000054104600206163715F6572723D0020543D0055
S315000054206D715F726573706F6E64696E67006D7122
S315000054305F616371756972655F657272006261733F
S31500005440656C696E655F6D76006932635F72656370
S315000054506F7665725F636F756E74002077696E6430
S315000054606F773D00206164735F616464723D3078DC
S3150000547000726177002073616D706C653D000D0AE6
S3150000548053434937206F70656E206F6B0D0A005BC2
S3150000549053475034305D20616464723D3078006D4E
S315000054A0715F626173656C696E655F72656164796F
S315000054B00020666C6167733D002520737261773D3D
S315000054C0002073746174653D00206D6574726963B4
S315000054D0735F6572723D005B454E565D2076616C6A
S315000054E069643D005B4932435D2063623D00693279
