S01A000064656D6F456C656374726F6E69634E6F73652E73726563C8
S3150000000020040020CD23000061220000D723000039
S31500000010D7230000D7230000D7230000D7230000F2
S31500000020000000000000000000000000D7230000D0
S31500000030D723000000000000D7230000D7230000CC
S31500000040791A0000051C00001D1D0000011E00009D
S31500000050E7120000171200006F130000BB13000028
S31500000060970A0000290B00003B0C0000731F0000DC
S30B0000007080484000350047
S3150000007810B540F23C44C2F20004207808B10020D2
S3150000008810BD00F0B9FB00B110BD40F20100C2F28C
S315000000980000007800F0DCFB002818BF10BD012026
S315000000A840F23E412070C2F200010020088040F272
S315000000B80001C2F2000180220A7010BD40F2010060
S315000000C8C2F20000007870474FEA702105298FBFF9
S315000000D8012040F23E41C2F20001088098BF00208C
S315000000E87047C1061CBF0120704740F20001C2F2EA
S315000000F8000108700020704740F23C42C2F200023C
S315000001081278012A1CBF0720704780B582B08DF887
S315000001180500080A8DF8060040F20100C2F2000048
S3150000012800788DF8071000F093FB28B90DF105004B
S315000001380321002200F0FCFB02B080BD10B582B09E
S315000001480C4601464FF00100F4B140F23C42C2F2BF
S3150000015800021278C2B140F20100C2F20000007833
S315000001688DF8071000F074FB70B90DF107000DF15A
S3150000017805020121022300F043FC28B9BDF8050059
S3150000018800BA000C2080002002B010BD70B582B005
S315000001980C46014603284FF0010025D824B340F247
S315000001A83C42C2F200021278F2B1481EC1B20329DB
S315000001B84CF203114DF20312CFF6FF71CFF6FF7220
S315000001C838BF02EB003140F23E40C2F2000040F276
S315000001D800050088C2F200052A780843104381B258
S315000001E80120FFF789FF08B102B070BD28784FEAF1
S315000001F87010072806D842F28C51C0F2000151F857
S31500000208206000E0142600200DF10605ADF8060072
S3150000021801202946FFF792FF0028E5D1BDF906001F
S31500000228002808D401204FF47A7101F0CFFF013E6F
S31500000238EED11420D8E701A90020FFF77FFF002898
S31500000248D2D1BDF8040020800020CDE740F23E411F
S31500000258C2F2000109884FF0FF3202EB712104292E
S3150000026806D842F2AC52C0F2000232F8111001E090
S315000002784FF4C05181FB000100294FF4804144BF6F
S315000002884CF20001CFF6FF710844C11700EB51404C
S31500000298C013704710B530B1044600202146FFF759
S315000002A875FF10B110BD012010BDA11C0120FFF77C
S315000002B86DFF0028F6D1211D0220FFF767FF0028F1
S315000002C8F0D1A11D0320BDE81040FFF75FBF40F243
S315000002D83E40C2F2000000884FF0FF3101EB70206B
S315000002E804288FBF4FF4C05042F2AC51C0F200014F
S315000002F831F81000704740B10079022805D140F264
S315000003084040C2F20000012101607047A2B042F2EB
S31500000318F861C0F2000107C91268904708B100BF2A
S31500000328FEE742F21F60C0F2000000F019F9FFF77D
S315000003389FFE30B142F2D950C0F2000000F010F929
S31500000348FEE70020FFF7C0FE38B142F25F60C0F258
S31500000358000000F005F900BFFEE78020FFF7C1FEA8
S3150000036838B142F24260C0F2000000F0F9F800BF6E
S31500000378FEE742F23060C0F2000000F0F1F800F04B
S315000003880FF903A842F29C6842F2AF6942F27B6A0F
S3150000039842F2036B811C0C3000240AADC0F200083F
S315000003A8C0F20009C0F2000AC0F2000B0026029152
S315000003B8019000BF03A8013600F032FB074600286B
S315000003C840F0908003A800F056FB002800F08A80D1
S315000003D840F60D20C0F25B000A90284603213246FB
S315000003E800F05EF942F2EF575D220121C0F20007E4
S315000003F8431C5F2B9EBF2A54EC5418467A5C013185
S315000004081429F5D1284600F0ABF8002840F0A18061
S31500000418002700BF42F2B460C0F2000050F827007F
S3150000042800218DF82810027852B101304B1C5F2B41
S315000004389EBF6A54EC54194610F8012B002AF5D1D0
S31500000448202201204B1C5F2B9EBF6A54EC54194690
S3150000045818F8002001300628F4D1029830F9172040
S31500000468B2F1FF3F05DC52425E299EBF2D2068523D
S315000004780131284600F014F901460020202200BF69
S315000004884B1C5F2B9EBF6A54EC54194609EB0002BD
S31500000498013052780428F3D1019850F82720B2F198
S315000004A8FF3F05DC52425E299EBF2D20685201316E
S315000004B8284600F0F5F800210D2200BF431C5F2BEB
S315000004C89EBF2A54EC5418460AEB010201315278B1
S315000004D80229F3D1284600F043F8D0BB0137042F90
S315000004E898D136E040F60D20C0F25B000A90284607
S315000004F80321324600F0D4F801465D22012000BFF0
S315000005084B1C5F2B9EBF6A54EC5419461BF80020FF
S3150000051801301C28F4D1B7F1FF3F05DC7F425E2984
S315000005289EBF2D206852013128463A4600F0B8F899
S3150000053800210D22431C5F2B9EBF2A54EC541846FB
S315000005480AEB0102013152780229F3D1284600F05C
S3150000055807F84FF47A704FF47A7101F037FE29E7FD
S3150000056880B110B5044601F0E7FF68B1024642F2D1
S31500000578F860C0F20000816800688B6821469847D9
S3150000058820B110BD01207047012010BD40F2404146
S31500000598C2F2000108680028FCD00020086010BDDF
S315000005A82DE9F04198B042F2BA52002041230121C8
S315000005B8E846C0F2000200248DF80000651C5F2D95
S315000005C89EBF08F8043008F805002C46535C013134
S315000005D80E29F3D100253027FFF770FD42F2786126
S315000005E8C0F20001002200BF631C5F2B9EBF08F803
S315000005F8047008F803501C468B1801325F78022AEB
S31500000608F2D15E2C16D842F2C8510209C0F2000196
S315000006188B5C08EB040208F8043000235E2C537048
S3150000062801D15F2406E000F00F00085C0234507028
S3150000063808F8043042F2A26100202023C0F200012B
S31500000648002200BF661C5F2E9EBF08F8043008F81B
S31500000658060034468B1801325B78042AF2D1FFF77C
S3150000066836FE02464046214600F01AF842F27E63FC
S315000006786D2601210022C0F2000300BF471C5F2F30
S315000006889EBF08F8006008F8072038465E5C01310E
S315000006981A29F3D16846FFF763FF18B0BDE8F08161
S315000006A88C4672B3B0B583B04CF6CD440021CCF677
S315000006B8CC440DF1020E00BFA2FB0435ED0805EB94
S315000006C88503A2EB430343F030030EF801300A2AF0
S315000006D801F1010303D3092919462A46ECD3AEF1E1
S315000006E8010200210CF101055F2D04D8D45C4155A7
S315000006F800F80C40AC46013BF4D103B0BDE8B0406D
S3150000070809E00CF101015F2905D8302200F80C2018
S3150000071800228C46425460467047022818BF70472C
S3150000072840F24C4042F2A871C2F20000C0F2000149
S3150000073800F079BED0B1007902282ED0032843D123
S3150000074840F24440C2F200000121017040F24540E7
S31500000758C2F200000022027040F24640C2F20000D7
S31500000768027040F24740C2F2000043E040F24740C0
S31500000778C2F200000321017040F24640C2F20000B6
S315000007880121017040F24440C2F2000000210170CC
S3150000079840F24540C2F200002CE040F24440C2F26A
S315000007A800000021017040F24540C2F2000001221B
S315000007B8027040F24640C2F20000017040F2474023
S315000007C8C2F20000022115E040F24440C2F20000E5
S315000007D80021017040F24540C2F20000017040F26B
S315000007E84640C2F200000121017040F24740C2F2C1
S315000007F8000003210170704710B540F24844C2F268
S315000008080004207800284FF0000020D140F244412F
S31500000818C2F20001087040F24541C2F200010870B8
S3150000082840F24641C2F20001087040F24741C2F266
S315000008380001087042F23471C0F2000107C912685B
S315000008489047002818BF10BD01202070002010BD59
S3150000085840F24841C2F20001097801291CBF07206D
S315000008687047014642F23470C0F2000082680068A0
S31500000878136901221847D4D4C0B170B540F2464670
S3150000088840F244450446C2F20006C2F2000500BF23
S31500000898307801280CD02878C0B901204FF47A7135
S315000008A801F094FC013CF3D1142070BD142070476C
S315000008B8002040F245412870C2F2000140F2474547
S315000008C8087030701220C2F2000500E000200021F6
S315000008D8297070BDC0B170B540F2464640F2454534
S315000008E80446C2F20006C2F2000500BF30780128AD
S315000008F80CD02878C0B901204FF47A7101F066FC53
S31500000908013CF3D1142070BD1420704740F24440D6
S31500000918C2F2000000210170297040F247451220FA
S31500000928C2F20005317000E000200021297070BD78
S3150000093894460A4601464FF001004AB341B340F2D5
S315000009484843C2F200031B7813B380B540F2444013
S31500000958C2F200000023037040F24540C2F20000D4
S31500000968037040F24640C2F20000037040F247406E
S31500000978C2F20000037042F23470C0F200008368CD
S315000009880068D3F808E06346F047BDE8804000B148
S3150000099870476420FFF770BF94460A4601464FF039
S315000009A801004AB341B340F24843C2F200031B7840
S315000009B813B380B540F24440C2F20000002303702E
S315000009C840F24540C2F20000037040F24640C2F2CF
S315000009D80000037040F24740C2F20000037042F282
S315000009E83470C0F2000083680068D3F804E06346F8
S315000009F8F047BDE8804000B170476420FFF76ABF42
S31500000A08B0B5154600221C46FFF792FF00B1B0BDEF
S31500000A18284621460022BDE8B040FFF7BDBFD4D422
S31500000A2838B3B0B582B0044600202546207045F894
S31500000A38020FC4F80600C4E90300C4E905006846C5
S31500000A48FFF728FC98B9DDE90010686029600025E1
S31500000A5804EB4500B0F90200FFF7F8FB04EB85014B
S31500000A680135042DC860F3D101202070002002B0A2
S31500000A78B0BD01207047002814BF0078002000F0A0
S31500000A880100704780B5FFF741FC002080BDEFF3F9
S31500000A9803804FF0704101EB006046F2003180158B
S31500000AA8C4F20001425822F480324250415840F2C2
S31500000AB80851C2F200010858D0E9061291421FD027
S31500000AC8026942B190F82030102B07D383685B681F
S31500000AD842F821300EE0826852680BE0D0F808C070
S31500000AE8072B03D89CF80430535403E0BCF80430B1
S31500000AF822F81130C26901319142816118BF7047ED
S31500000B084068012290F9030000F01F0102FA01F182
S31500000B184EF200124009CEF2000242F82010704749
S31500000B284FF0704246F20031EFF3038002EB0062A9
S31500000B38C4F200019015435823F4803343504358B8
S31500000B4840F20853C2F2000318588368DB789B0703
S31500000B5804D543685B7A012B18BF704780B5121617
S31500000B684EF2001CCEF2000C02F01F034FF0010EED
S31500000B7852090EFA03F30CEB8202C2F88030BFF377
S31500000B884F8FBFF36F8F426892F90220002A0CD468
S31500000B9802F01F0352090EFA03F30CEB8202C2F8A5
S31500000BA88030BFF34F8FBFF36F8F8268137803F0DF
S31500000BB8BF031370426892F90230002B15D451F81E
S31500000BC8232022F4803241F8232051F8231003F021
S31500000BD81F01012202FA01F15A090CEB8203BFF345
S31500000BE85F8FC3F880114CF822100121BDE88040C0
S31500000BF800F000B82DE9F04184B00446806A0DF192
S31500000C08040828B1024692E8E0004346E0C300E043
S31500000C1840466268127801710260E16A8160616A21
S31500000C288847A06A10B198E80E000EC004B0BDE867
S31500000C38F081F0B581B04FF07041EFF3038001EB1E
S31500000C48006540F20851A815C2F200010C58606808
S31500000C5890F902104EF200100029CEF200000DD4D1
S31500000C6801F01F020123490903FA02F200EB810190
S31500000C78C1F88020BFF34F8FBFF36F8FA16846F28C
S31500000C8800360A78C4F2000602F0BF020A706168EC
S31500000C9891F90210002915D456F82120012322F4CF
S31500000CA8803246F8212056F8212001F01F02490912
S31500000CB803FA02F200EB8103BFF35F8FC3F88021CA
S31500000CC840F82120A0680021C778C1703A0703D5EB
S31500000CD820460521FFF78EFFF80703D0204604219A
S31500000CE8FFF788FFF84310F0140F4FEA256503D184
S31500000CF820460821FFF77EFF56F8250020F48030AD
S31500000D0846F8250056F8250001B0F0BD0A780123FB
S31500000D18934013F0060F05D0CB695B681B781B0759
S31500000D2800F1E1802DE9F04748F20003C4F211030F
S31500000D3843EA02224FF00008026280F80080C1618F
S31500000D484B6943628B69C0F82880C362837823F0B5
S31500000D5803035E1C86704E7816B943F0020383704F
S31500000D6891F90B704EF2001CCEF2000C07F01F042E
S31500000D784FF0010E0EFA04F60CF180047A098D7A0A
S31500000D8844F8226046F2003ABFF34F8FC4F2000AD5
S31500000D98BFF36F8F5AF8272040F2085922F48032A1
S31500000DA84AF827205AF827202A010CF54075C2F27E
S31500000DB80009EA5549F8270091F905200F7902F04C
S31500000DC81F060EFA06F6530944F82360BFF34F8F41
S31500000DD8BFF36F8F5AF8223023F480334AF8223053
S31500000DE85AF822303B01AB5449F8220091F9072002
S31500000DF88B7902F01F060EFA06F6570944F82760A3
S31500000E08BFF34F8FBFF36F8F5AF822601B0126F48A
S31500000E1880364AF822605AF82260AB5449F8220014
S31500000E2891F909200B7A02F01F060EFA06F6570901
S31500000E3844F82760BFF34F8FBFF36F8F5AF82240ED
S31500000E481B0124F480344AF822405AF82240AB5455
S31500000E5849F82200EFF310828EF3108844F2040555
S31500000E680B78C4F208054FF000442E6824FA03F301
S31500000E7826EA03032B602B6882F31088026A82F83D
S31500000E880280026A82F80480026A82F80980026A8D
S31500000E9882F80A80026A82F80B80026AA2F81A802F
S31500000EA80A780EFA02F340F2F932134202D0036AC4
S31500000EB84024DC74036A06241C770B780EFA03F3C5
S31500000EC8134203D0026A4FF478439382CA784E7865
S31500000ED88B78D20042EA03123EB1032E08BF42F0D5
S31500000EE84002F22602E00322B0E0E226036A022765
S31500000EF81A70026A00259671CA69137B07EA4307C6
S31500000F08082B036A08BF0A275F73066A537897781F
S31500000F1835721678056A06F0FE06022E4FEAC316E3
S31500000F2867F3451609D1FF236B701278022A026A05
S31500000F3808BF46F01006D67116E0EE715268036ACD
S31500000F4897785F7057781E7807F0030706F0FC0657
S31500000F5837441F70D7789F74DF79127807F0A30794
S31500000F6802F05C023A44DA710022C369C0E903223E
S31500000F78C0E90522D1F81CE093F905309EF8001067
S31500000F885AF8234003F01F0524F480344AF8234016
S31500000F985AF82340012404FA05F60CF5C0755B09D6
S31500000FA8BFF35F8F45F823604CF82360C36993F954
S31500000FB80B305AF8236026F480364AF823605AF82C
S31500000FC8236003F01F0604FA06F65B09BFF35F8F7A
S31500000FD845F823604CF82360C36993F907305AF83B
S31500000FE8236026F480364AF823605AF8236003F013
S31500000FF81F0604FA06F65B09BFF35F8F45F8236000
S315000010084CF82360C36993F909305AF8236026F42B
S3150000101880364AF823605AF8236003F01F06B44066
S315000010285B09BFF35F8F45F823404CF823401C2328
S31500001038076A63F39F01B970BEF80A10018144F686
S315000010485511C5F243314160BDE8F0471046704777
S3150000105803460020C3E90512704780B5D0F820E0A2
S315000010689EF802C00CF07B038EF80230837803F0FA
S315000010780303A2EB030C0B44026AC0E9033C937812
S3150000108843F080039370827802F00302022A05D1A6
S315000010980988006A41F47E41C18102E00978006A44
S315000010A8C170002080BD10B5C2690123127803FA09
S315000010B802F212F0060F02D00A78120723D4026A47
S315000010C84FF0000E92F802C00CF00B039370C0F8B4
S315000010D80CE0036A8A785A704A781C7802F0030290
S315000010E804F0FC0422441A70CA789A74DA790978EA
S315000010F802F0A30201F05C011144D971006A0CF0F8
S315000011087B01817001E04FF0030E704610BD4FF071
S31500001118FF3200200A604A6070478A0701D4062217
S3150000112806E0026A937803F07B039370002202615B
S31500001138C9071CBF00228261104670478446C0E971
S3150000114809130020CCF82C207047026A0021416060
S315000011589170C1694EF2801C91F90520012102F0B7
S315000011681F0301FA03F35209CEF2000C4CF82230A1
S31500001178BFF34F8FBFF36F8FC26992F90B2002F04E
S315000011881F0301FA03F352094CF82230BFF34F8FBD
S31500001198BFF36F8FC26992F9072002F01F0301FAA5
S315000011A803F352094CF82230BFF34F8FBFF36F8F0A
S315000011B8C26992F9092002F01F0301FA03F35209E2
S315000011C84CF82230BFF34F8FBFF36F8FEFF31082C7
S315000011D881F31088C06944F204030078C4F2080356
S315000011E84FF0004C19682CFA00F00843186018688C
S315000011F882F3108800207047024680690860002143
S315000012080020916170470620704706207047EFF36B
S3150000121803804FF0704101EB006046F20031801503
S31500001228C4F20001425822F480324250415840F23A
S315000012380851C2F200010858C1690A690169C2B9B0
S31500001248C1B1817801F00302C168022A05D1098873
S31500001258026A41F47E41D18102E00978026AD170BE
S315000012688178026901F00303D11AC26801611A4440
S31500001278C26071B9016A8A7802F07B0204328A7008
S31500001288416A00294FF00001C16002D0802200F0B7
S3150000129801B870472DE9F04385B08146806A0DF1A3
S315000012A8040830B1054695E8D800C4468CE8D8004D
S315000012B800E04046D9F81C301B7881600360027153
S315000012C8D9F82C10C160D9F824108847D9F8280015
S315000012D810B198E88E008EC005B0BDE8F08310B551
S315000012E882B0EFF303804FF0704101EB006046F2E5
S315000012F800318015C4F20001425822F4803242506F
S31500001308415840F20851C2F200010C58A07800F08A
S315000013180302206A022A03D1018A6FF35F2100E0E3
S315000013284179A069019198B1606901A901F0F3F8C2
S31500001338A0786169A26900F003000144101A61618E
S31500001348A0610ED1606A60B120460021012203E047
S31500001358606A30B12046042202B0BDE81040FFF7AB
S3150000136899BF02B010BD10B54FF07041EFF303807E
S3150000137801EB006140F208528815C2F200021058CB
S315000013880C16026A937803F07B039370426A1AB1CB
S3150000139800210222FFF77EFF46F20030C4F2000069
S315000013A850F8241021F4803140F8241050F8240015
S315000013B810BD4FF07041EFF3038001EB006C40F273
S315000013C808514FEAAC50C2F2000108588178036A06
S315000013D801F00301022903D1198A6FF35F2100E0A6
S315000013E8597910B51A79D40602F0380204D51C7F4B
S315000013F864F3861282F040021C7904F0C7041C715B
S31500001408436A4FEA2C640BB1FFF744FF46F20030FB
S31500001418C4F2000050F8241021F4803140F824105A
S3150000142850F8240010BD80B545F25422C5F24F028B
S315000014380260084600F002F8002080BD70B5044638
S3150000144800F05CF840F2045CEFF31080012181F3B0
S315000014581088C2F2000CDCF8001039B940F60351C6
S31500001468C4F2080100220A7040220A70DCF8001053
S315000014780131CCF8001080F31088208810B340F6AC
S31500001488000E0021C4F2080E606800EBC1029288C3
S3150000149850F83130100ADD03D2B20BD50EEB8015A9
S315000014A855F8226026F4803645F8226023F4803603
S315000014B845F822600EEB801040F822302088013172
S315000014C88142E1D3EFF31081012080F31088DCF824
S315000014D8000020B1DCF800000138CCF80000DCF888
S315000014E8000038B940F60350C4F208000022027022
S315000014F88022027081F3108870BDD4D42DE9F04F94
S3150000150881B00446008800285CD043F240084EF2B9
S31500001518BB4A42F2F87BC4F208080026C4F2010A64
S31500001528C0F2000B4FF00109002700BF60683BF8C6
S31500001538172000EBC600818891423CD100689AF8D2
S31500001548001000F0B85009FA07F5B0F1807F05EAF7
S31500001558010015D150B9012000F00DFF9AF80000DE
S3150000156828438AF80000012000F0DCFE18F917006D
S31500001578002820D418F8170040F0800015E000BFB6
S3150000158850B1012000F0F7FE9AF80000A8438AF847
S315000015980000012000F0C6FE18F91700B0F1FF3F61
S315000015A809DC18F8170000F07F0008F81700C820B3
S315000015B8012100F00BFE0137032FB7D12088013631
S315000015C88642B1D301B0BDE8F08F10B5044608785D
S315000015D84FF20002C4F2090202EB002020612160EA
S315000015E888684FF0010C6060087B44F204022072A0
S315000015F8C869C4F208026063086AE0630020A06351
S31500001608C4E90500C4E9070084F8290084F82A001B
S3150000161884F82B0084F82C00EFF3108E8CF31088D6
S315000016280B781068C3F109030CFA03F398431060AA
S3150000163810688EF31088204600F0B0F844F643117F
S31500001648C5F249210020E16010BD9C46012380F8BF
S315000016582AC000F065B99C46002380F82AC000F02D
S315000016685FB9B0B5044600690025C57121682046F2
S3150000167800F094F894F82600216984F82800A069F7
S31500001688B322C4E90750002084F82C5084F82A5065
S31500001698CA71B0BD0346416000201A72704784467D
S315000016A8C0E90D130020CCF83C207047C0684BF207
S315000016B8BD62CAF6B6521044B0FA80F0420900205C
S315000016C80A707047B0B5044600690025C5712168DF
S315000016D8204600F063F894F82600216984F828006B
S315000016E8A0694EF28013C4E90750B32084F82C5041
S315000016F884F82A50C8712069CEF20003C5712068A3
S31500001708E56090F91110012001F01F0200FA02F2BB
S31500001718490943F82120BFF34F8FBFF36F8F216824
S3150000172891F90E1001F01F0200FA02F2490943F876
S315000017382120BFF34F8FBFF36F8F216891F91010E7
S3150000174801F01F0200FA02F2490943F82120BFF30B
S315000017584F8FBFF36F8F216891F90F1001F01F02A9
S3150000176800FA02F2490943F82120BFF34F8FBFF36D
S315000017786F8FEFF3108180F31088226844F2040318
S315000017881278C4F20803C2F109021D689040284382
S315000017981860186881F310880020B0BDF0B502699A
S315000017A800231370026940231370026913785B06DD
S315000017B8FCD5C023137002680369526A082512799A
S315000017C84EF2001C42F0E0021A7402680369526A7B
S315000017D8CEF2000CD27840F2085E42F0E0025A746B
S315000017E802680369526AC2F2000E927862F306151D
S315000017F89D7002680369526A15785278013DB5FAF8
S3150000180885F56D0945EA420242F00402DA7002687B
S3150000181844F2402552680369C0F20F05AA424FF008
S31500001828770208BF6FF008025A71026900239371A4
S315000018380269B323D3714A7B91F9116013010CF540
S315000018484072935546F200334EF82600C4F2000360
S3150000185853F8264006F01F0524F4803443F8264042
S3150000186853F82640012404FA05F70CF5C0757609E5
S31500001878BFF35F8F45F826704CF826704E7B91F9BA
S315000018880F703601D6554EF8270053F8276026F410
S31500001898803643F8276053F8276007F01F0604FAD6
S315000018A806F67F09BFF35F8F45F827604CF8276077
S315000018B84E7B91F910703601D6554EF8270053F82D
S315000018C8276026F4803643F8276053F8276007F028
S315000018D81F0604FA06F67F09BFF35F8F45F82760EF
S315000018E84CF827604E7B91F90E10360156544EF887
S315000018F8210053F8212022F4803243F8212053F89E
S31500001908212001F01F0204FA02F24909BFF35F8F92
S3150000191845F821204CF8212000699F210170F0BD6F
S3150000192890F808C0C0E90512BCF1010F08D1017989
S315000019384FF4807C43EA4101A0F825C080F82410C2
S3150000194810B581B04EF2200180F82930C4F20101A9
S3150000195809680091009901F00F210091DDF800E077
S31500001968DDF800C001690B7C90F82C409CB9CEF3D9
S315000019780322A2EB1C6203FA02F2042A06D3920897
S3150000198891F90130002B03D5013AF9D108216CE011
S315000019980022CA71826990F82630002180F8281042
S315000019A8C0E9072180F8273080F82B1080F82D1021
S315000019B880F82E1080F82F1080F830100168D0F8C3
S315000019C810C0496A0B784C78013BB3FA83F34A791D
S315000019D85B0991F806E043EA440343EA021242EA45
S315000019E8CE1242F004028CF803200269137943F000
S315000019F8100313710269137903F0F703137102696F
S31500001A08137903F0EF0313710269C979137903F0A7
S31500001A187F0343EAC111117101694A7942F0010253
S31500001A284A71016891F90F1000290BD401F01F02C1
S31500001A38012303FA02F24EF200134909CEF200031B
S31500001A4843F8212001694A7A02F0F3024A720169D1
S31500001A58BF22CA7190F82C1019B1002180F82C10F9
S31500001A6803E00069022141700021084601B010BD5B
S31500001A7810B582B0EFF303804FF0704101EB0060C0
S31500001A8846F200328015C4F20002835823F48033EC
S31500001A9883508058EFF3038001EB006040F2085151
S31500001AA88015C2F200010C5894F82D00B8B1E0690F
S31500001AB8002861D02168496AC979012904D12046DC
S31500001AC8052100F037FAE069012857D0022833D0FB
S31500001AD8032840D12069017941F040013AE0A06924
S31500001AE8022804D82069017941F040010171E069B2
S31500001AF801280ED12069017941F010010171206990
S31500001B08017941F0080101712069017901F0EF01BD
S31500001B1801712068406AC079012803D12046052151
S31500001B2800F008FA2069C07C8DF807009DF80700C8
S31500001B38012084F82D001FE02069017941F0100189
S31500001B4801712069017941F0080101712069017963
S31500001B5801F0EF010171D4E90401C07C226A8854BE
S31500001B68D4E9071001300139C4E9071004D1206906
S31500001B78017901F0BF01017102B010BD94F82A0085
S31500001B88012831D120684EF2801390F90F100120F8
S31500001B9801F01F0200FA02F24909CEF2000343F8E7
S31500001BA82120BFF34F8FBFF36F8F2169CA7942F0A7
S31500001BB88002CA7121690A7942F010020A71216904
S31500001BC80A7902F0F7020A7121690A7902F0EF022E
S31500001BD80A71216904224A7021694A7902F0FE02D3
S31500001BE84A7184F82C00B6E72069417A01F0F701BA
S31500001BF84172206908214170ADE7D4D4B0B5EFF33E
S31500001C0803804FF0704146F2003501EB0060C4F2E4
S31500001C1800058015425922F4803242514059EFF3AB
S31500001C28038001EB006040F208518015C2F2000102
S31500001C380C5894F82700C8B194F82600032806D152
S31500001C4894F82800022802D194F8300068B394F872
S31500001C5824002169887494F8280094F82710013024
S31500001C6884F82800481E84F82700B0BD94F8290097
S31500001C78D8B92068406AC079012808D194F82B00A1
S31500001C8828B9206A18B12046052100F053F9E06901
S31500001C9860B1D4E90401226A895C8174D4E9071029
S31500001CA801300139C4E9071000D0B0BD2069C179F7
S31500001CB801F07F01C17120696FF0BE0190F907201C
S31500001CC8B2F1FF3F03DC002901F10101F6D12068DA
S31500001CD890F9100055F8201021F4803145F82010AD
S31500001CE855F82000206890F9100000280BD400F061
S31500001CF81F01012202FA01F14EF280224009CEF2BA
S31500001D08000242F820102069C17941F04001C171F2
S31500001D18B0BDD4D410B5EFF303804FF0704101EB9A
S31500001D28006040F208518015C2F200010C58206884
S31500001D38406AC079012803D12046052100F0FAF847
S31500001D4894F82900012806D194F82700012802D121
S31500001D5894F8300080B3E06970BB94F82A00012833
S31500001D6822D12068012290F90F004EF2801300F06C
S31500001D781F0102FA01F14009CEF2000343F82010D0
S31500001D88BFF34F8FBFF36F8F2069C17941F0800190
S31500001D98C1712069042141702069417901F0FE0171
S31500001DA8417184F82C2007E02069417A01F0F70197
S31500001DB841722069082141702069C17901F0BF018B
S31500001DC8C17120696FF0BE01C279520603D5002998
S31500001DD801F10101F8D1EFF303804FF0704101EBF7
S31500001DE8006046F200318015C4F20001425822F420
S31500001DF880324250405810BDB0B5EFF303804FF023
S31500001E08704101EB006040F208518015C2F20001F2
S31500001E180C5821694A7A4B7A02F01F0003F0E00356
S31500001E280F2802F003024B7201D83AB924E021695F
S31500001E384B785B0658BF42F00102D2B1012084F804
S31500001E482B0020690025C57121682046FFF7A6FCEE
S31500001E5894F82600216984F82800A069C4E9075087
S31500001E68B32084F82C5084F82A50C87120460121E2
S31500001E784DE04A78520611D4010706D494F82C206E
S31500001E88012A31D110F004022ED0E06910B994F875
S31500001E982B0098B3002919D4012036E0012084F8D4
S31500001EA82B000820487020682169406A0278437927
S31500001EB8807942EA031242EAC01040F00200C87074
S31500001EC82069417941F00101417122E094F8260028
S31500001ED8002184F82800A069C4E90710012084F8C5
S31500001EE82C1084F82A100DE0400712D52068406AA5
S31500001EF8C07901280DD12046042108E094F829006C
S31500001F0880F003002169B322CA71C1B2204600F0ED
S31500001F1811F8EFF303804FF0704101EB006046F2D1
S31500001F2800318015C4F20001425822F48032425032
S31500001F384058B0BD10B582B00446806B00281ABF61
S31500001F48D0E90023CDE900236846E26B01710260FF
S31500001F58616B8847A06B18B1DDE90012C0E9001271
S31500001F68002084F82B0002B010BD10B582B0EFF344
S31500001F7803804FF0704101EB006046F20031801596
S31500001F88C4F20001425822F480324250415840F2CD
S31500001F980851C2F200010C586069E168019001A875
S31500001FA88847A068C16809B10121017702B010BD50
S31500001FB84EF22000C4F20100817940F22042006806
S31500001FC8C2F2000252F82110C0F3026021FA00F0B2
S31500001FD840F24451C2F20001086070472DE9F04111
S31500001FE84EF2FE34C4F201044CF200164AF20350D3
S31500001FF8C4F2010620800120B08000BFB088002806
S31500002008FCD147F200010120C4F20001308088604B
S31500002018086040F2204742F600504CF2002C4EF27F
S315000020282005C2F20007C0F2311041F200214FF438
S31500002038004243F20063C0F6EB3CC4F20105C0F26D
S315000020487A01C0F26E1387E80F00C7E9042CA87955
S31500002058296857F82000C1F3026140F24458C84085
S31500002068C2F20008C8F8000000206075092085F84B
S31500002078820094F8820018B994F88300800760D02B
S3150000208894F8820050B9012084F88200C820012102
S3150000209800F09CF894F882000128FBD1002084F80F
S315000020A8830084F882000020A87400BF287F0007F8
S315000020B8FCD543F2021028810020A872287F8006EA
S315000020C8FCD50320307741F22120C2F201002860B6
S315000020D80520A871A879296857F82000C1F302617C
S315000020E8C840C8F8000042F20800C4F20000F12116
S315000020F801710121F02201700271297485F83210EC
S3150000210895F8580040F0400085F8580095F95800B1
S31500002118B0F1FF3FFADC002085F85000C42085F8AE
S31500002128580095F8580000F0BF0085F8580000BF21
S3150000213895F958000028FBD44FF425402080BDE8C7
S31500002148F0814FF47A7000F001F8ACE77047D4D408
S31500002158B0B543F22404C4F208040025C8200121BE
S31500002168257100F033F8257020780028FCD12078F6
S3150000217840F00200207000BF20788007FCD40020C1
S3150000218804F8020C14F8020C0028FBD1002004F114
S315000021981C0100BF11F8102002F07F0201F8102080
S315000021A811F91020002AFBD401300328F2D10120AE
S315000021B800F0E1F84EF2BB41C4F201010022012011
S315000021C80A70BDE8B04000F0ADB8704740F244521E
S315000021D8C2F20002126841F20023C0F27A039A4260
S315000021E801FB00F00FD340F6FF01C0F23D01114498
S315000021F84DF68362C4F21B32A1FB0212110DA0FB3D
S315000022080101E9B11FE04CF6002348F63811C3F680
S315000022189A33C0F24101B3FBF2F2884207D24FF477
S315000022287A7100FB01F0B0FBF2F0800808E092003A
S31500002238B0FBF2F0884206D24FF47A7100FB01F047
S3150000224828B100F005B84FF0FF3000F001B870472C
S3150000225801380028FCD170472DE9F04146F22018D4
S31500002268C4F20008B8F80000B8F8201040F2C445D7
S3150000227801EA0006B7B20024C2F2000527FA04F004
S31500002288C00704D055F8241009B120468847013400
S31500002298102CF3D1A8F81060BDE8F08170B584B0B1
S315000022A848F248060320C4F2000600F064F86FF00E
S315000022B8FF0042F2B47430604FF0FF300021C0F2E4
S315000022C800040122CDE9020034F8113002FA01F5C2
S315000022D8002B01F1010118BFA8430C29F4D14EF2D5
S315000022E880320190002001A9CEF2000251F8203078
S315000022F806EB8005AB6242F8203001300328F5D1A1
S31500002308032000F00FF846F200310020C4F2000165
S3150000231834F810200AB141F8202001300C28F7D1F2
S3150000232804B070BD0122EFF3108182F3108840F2E9
S315000023383852C2F2000232F8103023B132F81030A7
S31500002348013B22F8103032F810208AB94EF2FE3CD2
S31500002358C4F2010C42F61412BCF80030C0F20002B6
S3150000236832F8100043F4254222EA0000ACF80000D7
S3150000237881F31088704780B50122EFF3108182F34C
S31500002388108840F23852C2F2000232F810308BB987
S315000023984EF2FE3C42F61413C4F2010CC0F20003DE
S315000023A8BCF800E033F8103043EA0E0343F4254343
S315000023B8ACF8003032F81030013322F8103081F3CF
S315000023C8108880BD00F006F8FEF75CFBFEE700BE4D
S315000023D87047D4D4B0B54EF60850CEF200004FF48C
S315000023E87001C0F8801040F20001C0F200010160DF
S315000023F800200024FEF791F9FFF7F0FD0120FEF713
S315000024088CF940F22000C2F2000080F30A8800200E
S3150000241800F050F8FFF7CCFDFFF79AFE0320FFF710
S31500002428AAFF40F61050C4F208004FF6FF7100BF2D
S3150000243820F8141001340C2CFAD10320FFF772FF90
S315000024480320FFF798FF0420C4F20E000021016064
S3150000245841608160C1600320FFF764FF0220FEF738
S315000024685CF9012000F026F840F24C54C2F2000450
S31500002478204600F069F8204600F07AF842F66E1019
S3150000248842F66E11C0F20000C0F20001081A84106C
S31500002498012C08DB42F66E15C0F2000555F8040B50
S315000024A88047013CFAD1FFF7F9FE0020BDE8B040AD
S315000024B8FFF78BBEF0B581B042F63005C0F20005D5
S315000024C82E68044676B16868071D00BF787984428D
S315000024D804D157E90101091A00F019F8013E07F17C
S315000024E80C07F3D1AE6886B1E86800F1080500BFAD
S315000024F86879844205D155E902022968121A00F062
S315000025080AF8013E05F11005F2D101B0F0BD0A4600
S31500002518002100F009B810B500239A4203D0CC5C1C
S31500002528C4540133F9E710BD00239A4208BF704727
S31500002538C1540133F9E7D4D4034613F8012B002A12
S31500002548FBD1181A0138704710B505490446054AE3
S31500002558FFF7E1FF044805492044FFF7D8FF10BDFF
S3150000256876000000000000000000000000000000E7
S315000025780249401A02490860704700BF0800000077
S3150000258848050020820000004600000028000000E0
S31500002598140000000C0000000800000006000000FF
S315000025A8040000000010000800040002000143486F
S315000025B830004144533131313520616464723D0045
S315000025C8303132333435363738394142434445465B
S315000025D800414453313131355F4F70656E20666175
S315000025E8696C65640D0A005D20414453313131350B
S315000025F8207363616E206F6B0D0A005D20414453A2
S3150000260831313135207363616E206661696C6564AA
S315000026182C206572723D000D0A53434937206F70AE
S31500002628656E206F6B0D0A004144533131313520F8
S31500002638696E6974206F6B0D0A004144533131315C
S31500002648355F5365744461746152617465206661CF
S31500002658696C65640D0A00414453313131355F5365
S3150000266865744761696E206661696C65640D0A0068
S315000026783078000D0A006D56207067613D362E31A0
S315000026883434562064723D3132385350530D0A00A3
S3150000269843483100207261773D002066733D004350
S315000026A848330043483200206D763D00B6250000C9
S315000026B898260000AB260000A726000000010000AF
S315000026C8020000200F00FFFF00000000FFFF0000CF
S315000026D8070200000C040C050C060C07000000009D
S315000026E800000000FF02000000000000C4260000F1
S315000026F854040020D8260000CC2700000101031B43
S315000027081C00000002000000A08601004400000032
S31500002718010C000102030000000000000000000098
S315000027283D07000000000000042700008404002084
S315000027380C27000000280000000001060001000028
S315000027480000010601010000000001060201000068
S315000027580500000003010000050000000401000058
S315000027680500000005010000000001000801000046
S31500002778000001000003000000040107090400002E
S31500002788000401070A04000005000000080600000E
S31500002798000001050D060000000001050E060000F8
S315000027A80D00000040270000000000007D007E00AC
S315000027B87F008000AA01AB01AC01AD01C901CD01C2
S315000027C8CC012100150D000059100000631000000F
S315000027D8AF1000001711000023110000451100007A
S315000027E853110000011200000F120000131200001E
S315000027F8020403040404D4D4D315000053160000BD
S315000028085F1600006B1600009D160000A716000054
S31500002818B5160000CD16000000000068000000682C
S3150000282820000020200000200500000048280000A5
S31500002838090000008428000002000000202800008B
S315000028480000006800000068000100080000006839
S315000028580000006800010008200000202000002079
S31500002868000000033C0400204C0500200000000383
S315000028784C0500204C0500200000000300000068FD
S31500002888000000680000006000010C0800000068F5
S3150000289800000068000000700001090800000068D8
S315000028A80000006800000008000102080000006837
S315000028B80000006870000000000101080000002008
S315000028C8000000200000006000010C03000000204A
S315000028D8000000200000007000010903000000202D
S315000028E8000000200000000800000203000000208D
S315000028F80600002070000000000001034C050020BF
S315000029084C050020760000000000010301000200CB
S31500002918080010002000D4D400010306362E332EFA
S3150000292831004275696C7420776974682052656E47
S315000029386573617320416476616E63656420466CD5
S31500002948657869626C6520536F6674776172652075
S315000029585061636B6167652076657273696F6E2077
S30B00002968362E332E31006D
S3090100A100FFFFFFFF58
S3090100A200FFFDFFFF59
S3090100A280F8F8FFFFE5
S705000023CD0A
